{
  "contracts/PofNFT.sol": {
    "PofNFT": {
      "abi": [
        {
          "inputs": [
            {
              "internalType": "uint64",
              "name": "_subscriptionId",
              "type": "uint64"
            },
            {
              "internalType": "address",
              "name": "vrfCoordinator",
              "type": "address"
            },
            {
              "internalType": "bytes32",
              "name": "_keyHash",
              "type": "bytes32"
            }
          ],
          "stateMutability": "nonpayable",
          "type": "constructor"
        },
        {
          "inputs": [
            {
              "internalType": "address",
              "name": "sender",
              "type": "address"
            },
            {
              "internalType": "uint256",
              "name": "tokenId",
              "type": "uint256"
            },
            {
              "internalType": "address",
              "name": "owner",
              "type": "address"
            }
          ],
          "name": "ERC721IncorrectOwner",
          "type": "error"
        },
        {
          "inputs": [
            {
              "internalType": "address",
              "name": "operator",
              "type": "address"
            },
            {
              "internalType": "uint256",
              "name": "tokenId",
              "type": "uint256"
            }
          ],
          "name": "ERC721InsufficientApproval",
          "type": "error"
        },
        {
          "inputs": [
            {
              "internalType": "address",
              "name": "approver",
              "type": "address"
            }
          ],
          "name": "ERC721InvalidApprover",
          "type": "error"
        },
        {
          "inputs": [
            {
              "internalType": "address",
              "name": "operator",
              "type": "address"
            }
          ],
          "name": "ERC721InvalidOperator",
          "type": "error"
        },
        {
          "inputs": [
            {
              "internalType": "address",
              "name": "owner",
              "type": "address"
            }
          ],
          "name": "ERC721InvalidOwner",
          "type": "error"
        },
        {
          "inputs": [
            {
              "internalType": "address",
              "name": "receiver",
              "type": "address"
            }
          ],
          "name": "ERC721InvalidReceiver",
          "type": "error"
        },
        {
          "inputs": [
            {
              "internalType": "address",
              "name": "sender",
              "type": "address"
            }
          ],
          "name": "ERC721InvalidSender",
          "type": "error"
        },
        {
          "inputs": [
            {
              "internalType": "uint256",
              "name": "tokenId",
              "type": "uint256"
            }
          ],
          "name": "ERC721NonexistentToken",
          "type": "error"
        },
        {
          "inputs": [
            {
              "internalType": "address",
              "name": "have",
              "type": "address"
            },
            {
              "internalType": "address",
              "name": "want",
              "type": "address"
            }
          ],
          "name": "OnlyCoordinatorCanFulfill",
          "type": "error"
        },
        {
          "inputs": [
            {
              "internalType": "address",
              "name": "owner",
              "type": "address"
            }
          ],
          "name": "OwnableInvalidOwner",
          "type": "error"
        },
        {
          "inputs": [
            {
              "internalType": "address",
              "name": "account",
              "type": "address"
            }
          ],
          "name": "OwnableUnauthorizedAccount",
          "type": "error"
        },
        {
          "anonymous": false,
          "inputs": [
            {
              "indexed": true,
              "internalType": "address",
              "name": "owner",
              "type": "address"
            },
            {
              "indexed": true,
              "internalType": "address",
              "name": "approved",
              "type": "address"
            },
            {
              "indexed": true,
              "internalType": "uint256",
              "name": "tokenId",
              "type": "uint256"
            }
          ],
          "name": "Approval",
          "type": "event"
        },
        {
          "anonymous": false,
          "inputs": [
            {
              "indexed": true,
              "internalType": "address",
              "name": "owner",
              "type": "address"
            },
            {
              "indexed": true,
              "internalType": "address",
              "name": "operator",
              "type": "address"
            },
            {
              "indexed": false,
              "internalType": "bool",
              "name": "approved",
              "type": "bool"
            }
          ],
          "name": "ApprovalForAll",
          "type": "event"
        },
        {
          "anonymous": false,
          "inputs": [
            {
              "indexed": true,
              "internalType": "uint256",
              "name": "tokenId",
              "type": "uint256"
            },
            {
              "indexed": true,
              "internalType": "address",
              "name": "owner",
              "type": "address"
            },
            {
              "components": [
                {
                  "internalType": "string",
                  "name": "name",
                  "type": "string"
                },
                {
                  "internalType": "uint256",
                  "name": "nutrient",
                  "type": "uint256"
                },
                {
                  "internalType": "uint256",
                  "name": "freshness",
                  "type": "uint256"
                },
                {
                  "internalType": "uint256",
                  "name": "ecoFriendliness",
                  "type": "uint256"
                },
                {
                  "internalType": "uint256",
                  "name": "taste",
                  "type": "uint256"
                }
              ],
              "indexed": false,
              "internalType": "struct PofNFT.Plant",
              "name": "plant",
              "type": "tuple"
            }
          ],
          "name": "NFTCreated",
          "type": "event"
        },
        {
          "anonymous": false,
          "inputs": [
            {
              "indexed": true,
              "internalType": "address",
              "name": "previousOwner",
              "type": "address"
            },
            {
              "indexed": true,
              "internalType": "address",
              "name": "newOwner",
              "type": "address"
            }
          ],
          "name": "OwnershipTransferred",
          "type": "event"
        },
        {
          "anonymous": false,
          "inputs": [
            {
              "indexed": true,
              "internalType": "uint256",
              "name": "requestId",
              "type": "uint256"
            },
            {
              "indexed": false,
              "internalType": "string",
              "name": "name",
              "type": "string"
            }
          ],
          "name": "RequestIdCreated",
          "type": "event"
        },
        {
          "anonymous": false,
          "inputs": [
            {
              "indexed": true,
              "internalType": "address",
              "name": "from",
              "type": "address"
            },
            {
              "indexed": true,
              "internalType": "address",
              "name": "to",
              "type": "address"
            },
            {
              "indexed": true,
              "internalType": "uint256",
              "name": "tokenId",
              "type": "uint256"
            }
          ],
          "name": "Transfer",
          "type": "event"
        },
        {
          "inputs": [
            {
              "internalType": "string",
              "name": "name",
              "type": "string"
            }
          ],
          "name": "CreateNFT",
          "outputs": [],
          "stateMutability": "payable",
          "type": "function"
        },
        {
          "inputs": [
            {
              "internalType": "address",
              "name": "to",
              "type": "address"
            },
            {
              "internalType": "uint256",
              "name": "tokenId",
              "type": "uint256"
            }
          ],
          "name": "approve",
          "outputs": [],
          "stateMutability": "nonpayable",
          "type": "function"
        },
        {
          "inputs": [
            {
              "internalType": "address",
              "name": "owner",
              "type": "address"
            }
          ],
          "name": "balanceOf",
          "outputs": [
            {
              "internalType": "uint256",
              "name": "",
              "type": "uint256"
            }
          ],
          "stateMutability": "view",
          "type": "function"
        },
        {
          "inputs": [],
          "name": "getAllNFT",
          "outputs": [
            {
              "components": [
                {
                  "internalType": "string",
                  "name": "name",
                  "type": "string"
                },
                {
                  "internalType": "uint256",
                  "name": "nutrient",
                  "type": "uint256"
                },
                {
                  "internalType": "uint256",
                  "name": "freshness",
                  "type": "uint256"
                },
                {
                  "internalType": "uint256",
                  "name": "ecoFriendliness",
                  "type": "uint256"
                },
                {
                  "internalType": "uint256",
                  "name": "taste",
                  "type": "uint256"
                }
              ],
              "internalType": "struct PofNFT.Plant[]",
              "name": "",
              "type": "tuple[]"
            }
          ],
          "stateMutability": "view",
          "type": "function"
        },
        {
          "inputs": [
            {
              "internalType": "uint256",
              "name": "tokenId",
              "type": "uint256"
            }
          ],
          "name": "getApproved",
          "outputs": [
            {
              "internalType": "address",
              "name": "",
              "type": "address"
            }
          ],
          "stateMutability": "view",
          "type": "function"
        },
        {
          "inputs": [
            {
              "internalType": "uint256",
              "name": "_idToken",
              "type": "uint256"
            }
          ],
          "name": "getNFT",
          "outputs": [
            {
              "components": [
                {
                  "internalType": "string",
                  "name": "name",
                  "type": "string"
                },
                {
                  "internalType": "uint256",
                  "name": "nutrient",
                  "type": "uint256"
                },
                {
                  "internalType": "uint256",
                  "name": "freshness",
                  "type": "uint256"
                },
                {
                  "internalType": "uint256",
                  "name": "ecoFriendliness",
                  "type": "uint256"
                },
                {
                  "internalType": "uint256",
                  "name": "taste",
                  "type": "uint256"
                }
              ],
              "internalType": "struct PofNFT.Plant",
              "name": "",
              "type": "tuple"
            }
          ],
          "stateMutability": "view",
          "type": "function"
        },
        {
          "inputs": [
            {
              "internalType": "address",
              "name": "owner",
              "type": "address"
            },
            {
              "internalType": "address",
              "name": "operator",
              "type": "address"
            }
          ],
          "name": "isApprovedForAll",
          "outputs": [
            {
              "internalType": "bool",
              "name": "",
              "type": "bool"
            }
          ],
          "stateMutability": "view",
          "type": "function"
        },
        {
          "inputs": [],
          "name": "name",
          "outputs": [
            {
              "internalType": "string",
              "name": "",
              "type": "string"
            }
          ],
          "stateMutability": "view",
          "type": "function"
        },
        {
          "inputs": [],
          "name": "owner",
          "outputs": [
            {
              "internalType": "address",
              "name": "",
              "type": "address"
            }
          ],
          "stateMutability": "view",
          "type": "function"
        },
        {
          "inputs": [
            {
              "internalType": "uint256",
              "name": "tokenId",
              "type": "uint256"
            }
          ],
          "name": "ownerOf",
          "outputs": [
            {
              "internalType": "address",
              "name": "",
              "type": "address"
            }
          ],
          "stateMutability": "view",
          "type": "function"
        },
        {
          "inputs": [
            {
              "internalType": "uint256",
              "name": "",
              "type": "uint256"
            }
          ],
          "name": "plants",
          "outputs": [
            {
              "internalType": "string",
              "name": "name",
              "type": "string"
            },
            {
              "internalType": "uint256",
              "name": "nutrient",
              "type": "uint256"
            },
            {
              "internalType": "uint256",
              "name": "freshness",
              "type": "uint256"
            },
            {
              "internalType": "uint256",
              "name": "ecoFriendliness",
              "type": "uint256"
            },
            {
              "internalType": "uint256",
              "name": "taste",
              "type": "uint256"
            }
          ],
          "stateMutability": "view",
          "type": "function"
        },
        {
          "inputs": [
            {
              "internalType": "uint256",
              "name": "requestId",
              "type": "uint256"
            },
            {
              "internalType": "uint256[]",
              "name": "randomWords",
              "type": "uint256[]"
            }
          ],
          "name": "rawFulfillRandomWords",
          "outputs": [],
          "stateMutability": "nonpayable",
          "type": "function"
        },
        {
          "inputs": [],
          "name": "renounceOwnership",
          "outputs": [],
          "stateMutability": "nonpayable",
          "type": "function"
        },
        {
          "inputs": [],
          "name": "requestIdTemp",
          "outputs": [
            {
              "internalType": "uint256",
              "name": "",
              "type": "uint256"
            }
          ],
          "stateMutability": "view",
          "type": "function"
        },
        {
          "inputs": [
            {
              "internalType": "address",
              "name": "from",
              "type": "address"
            },
            {
              "internalType": "address",
              "name": "to",
              "type": "address"
            },
            {
              "internalType": "uint256",
              "name": "tokenId",
              "type": "uint256"
            }
          ],
          "name": "safeTransferFrom",
          "outputs": [],
          "stateMutability": "nonpayable",
          "type": "function"
        },
        {
          "inputs": [
            {
              "internalType": "address",
              "name": "from",
              "type": "address"
            },
            {
              "internalType": "address",
              "name": "to",
              "type": "address"
            },
            {
              "internalType": "uint256",
              "name": "tokenId",
              "type": "uint256"
            },
            {
              "internalType": "bytes",
              "name": "data",
              "type": "bytes"
            }
          ],
          "name": "safeTransferFrom",
          "outputs": [],
          "stateMutability": "nonpayable",
          "type": "function"
        },
        {
          "inputs": [
            {
              "internalType": "address",
              "name": "operator",
              "type": "address"
            },
            {
              "internalType": "bool",
              "name": "approved",
              "type": "bool"
            }
          ],
          "name": "setApprovalForAll",
          "outputs": [],
          "stateMutability": "nonpayable",
          "type": "function"
        },
        {
          "inputs": [
            {
              "internalType": "bytes4",
              "name": "interfaceId",
              "type": "bytes4"
            }
          ],
          "name": "supportsInterface",
          "outputs": [
            {
              "internalType": "bool",
              "name": "",
              "type": "bool"
            }
          ],
          "stateMutability": "view",
          "type": "function"
        },
        {
          "inputs": [],
          "name": "symbol",
          "outputs": [
            {
              "internalType": "string",
              "name": "",
              "type": "string"
            }
          ],
          "stateMutability": "view",
          "type": "function"
        },
        {
          "inputs": [
            {
              "internalType": "uint256",
              "name": "tokenId",
              "type": "uint256"
            }
          ],
          "name": "tokenURI",
          "outputs": [
            {
              "internalType": "string",
              "name": "",
              "type": "string"
            }
          ],
          "stateMutability": "view",
          "type": "function"
        },
        {
          "inputs": [
            {
              "internalType": "address",
              "name": "from",
              "type": "address"
            },
            {
              "internalType": "address",
              "name": "to",
              "type": "address"
            },
            {
              "internalType": "uint256",
              "name": "tokenId",
              "type": "uint256"
            }
          ],
          "name": "transferFrom",
          "outputs": [],
          "stateMutability": "nonpayable",
          "type": "function"
        },
        {
          "inputs": [
            {
              "internalType": "address",
              "name": "newOwner",
              "type": "address"
            }
          ],
          "name": "transferOwnership",
          "outputs": [],
          "stateMutability": "nonpayable",
          "type": "function"
        },
        {
          "inputs": [],
          "name": "withdraw",
          "outputs": [],
          "stateMutability": "nonpayable",
          "type": "function"
        }
      ],
      "evm": {
        "bytecode": {
          "linkReferences": {},
          "object": "60a06040523480156200001157600080fd5b5060405162003fec38038062003fec8339818101604052810190620000379190620003b0565b81336040518060400160405280600681526020017f506f664e465400000000000000000000000000000000000000000000000000008152506040518060400160405280600381526020017f504f4600000000000000000000000000000000000000000000000000000000008152508160009081620000b6919062000686565b508060019081620000c8919062000686565b505050600073ffffffffffffffffffffffffffffffffffffffff168173ffffffffffffffffffffffffffffffffffffffff1603620001405760006040517f1e4fbdf70000000000000000000000000000000000000000000000000000000081526004016200013791906200077e565b60405180910390fd5b62000151816200020060201b60201c565b508073ffffffffffffffffffffffffffffffffffffffff1660808173ffffffffffffffffffffffffffffffffffffffff168152505050816008806101000a81548173ffffffffffffffffffffffffffffffffffffffff021916908373ffffffffffffffffffffffffffffffffffffffff16021790555082600860006101000a81548167ffffffffffffffff021916908367ffffffffffffffff160217905550806009819055505050506200079b565b6000600660009054906101000a900473ffffffffffffffffffffffffffffffffffffffff16905081600660006101000a81548173ffffffffffffffffffffffffffffffffffffffff021916908373ffffffffffffffffffffffffffffffffffffffff1602179055508173ffffffffffffffffffffffffffffffffffffffff168173ffffffffffffffffffffffffffffffffffffffff167f8be0079c531659141344cd1fd0a4f28419497f9722a3daafe3b4186f6b6457e060405160405180910390a35050565b600080fd5b600067ffffffffffffffff82169050919050565b620002ea81620002cb565b8114620002f657600080fd5b50565b6000815190506200030a81620002df565b92915050565b600073ffffffffffffffffffffffffffffffffffffffff82169050919050565b60006200033d8262000310565b9050919050565b6200034f8162000330565b81146200035b57600080fd5b50565b6000815190506200036f8162000344565b92915050565b6000819050919050565b6200038a8162000375565b81146200039657600080fd5b50565b600081519050620003aa816200037f565b92915050565b600080600060608486031215620003cc57620003cb620002c6565b5b6000620003dc86828701620002f9565b9350506020620003ef868287016200035e565b9250506040620004028682870162000399565b9150509250925092565b600081519050919050565b7f4e487b7100000000000000000000000000000000000000000000000000000000600052604160045260246000fd5b7f4e487b7100000000000000000000000000000000000000000000000000000000600052602260045260246000fd5b600060028204905060018216806200048e57607f821691505b602082108103620004a457620004a362000446565b5b50919050565b60008190508160005260206000209050919050565b60006020601f8301049050919050565b600082821b905092915050565b6000600883026200050e7fffffffffffffffffffffffffffffffffffffffffffffffffffffffffffffffff82620004cf565b6200051a8683620004cf565b95508019841693508086168417925050509392505050565b6000819050919050565b6000819050919050565b600062000567620005616200055b8462000532565b6200053c565b62000532565b9050919050565b6000819050919050565b620005838362000546565b6200059b62000592826200056e565b848454620004dc565b825550505050565b600090565b620005b2620005a3565b620005bf81848462000578565b505050565b5b81811015620005e757620005db600082620005a8565b600181019050620005c5565b5050565b601f82111562000636576200060081620004aa565b6200060b84620004bf565b810160208510156200061b578190505b620006336200062a85620004bf565b830182620005c4565b50505b505050565b600082821c905092915050565b60006200065b600019846008026200063b565b1980831691505092915050565b600062000676838362000648565b9150826002028217905092915050565b62000691826200040c565b67ffffffffffffffff811115620006ad57620006ac62000417565b5b620006b9825462000475565b620006c6828285620005eb565b600060209050601f831160018114620006fe5760008415620006e9578287015190505b620006f5858262000668565b86555062000765565b601f1984166200070e86620004aa565b60005b82811015620007385784890151825560018201915060208501945060208101905062000711565b8683101562000758578489015162000754601f89168262000648565b8355505b6001600288020188555050505b505050505050565b620007788162000330565b82525050565b60006020820190506200079560008301846200076d565b92915050565b60805161382e620007be60003960008181610719015261076d015261382e6000f3fe6080604052600436106101405760003560e01c8063715018a6116100b6578063a22cb4651161006f578063a22cb46514610451578063b88d4fde1461047a578063c87b56dd146104a3578063e985e9c5146104e0578063f2fde38b1461051d578063f3b1633d1461054657610140565b8063715018a61461035c57806376d85aca146103735780638da5cb5b1461038f5780638dd2361c146103ba5780639179e19c146103fb57806395d89b411461042657610140565b806323b872dd1161010857806323b872dd1461023c5780633ccfd60b1461026557806342842e0e1461027c578063576f7ea7146102a55780636352211e146102e257806370a082311461031f57610140565b806301ffc9a71461014557806306fdde0314610182578063081812fc146101ad578063095ea7b3146101ea5780631fe543e314610213575b600080fd5b34801561015157600080fd5b5061016c600480360381019061016791906124da565b610571565b6040516101799190612522565b60405180910390f35b34801561018e57600080fd5b50610197610653565b6040516101a491906125cd565b60405180910390f35b3480156101b957600080fd5b506101d460048036038101906101cf9190612625565b6106e5565b6040516101e19190612693565b60405180910390f35b3480156101f657600080fd5b50610211600480360381019061020c91906126da565b610701565b005b34801561021f57600080fd5b5061023a60048036038101906102359190612862565b610717565b005b34801561024857600080fd5b50610263600480360381019061025e91906128be565b6107d7565b005b34801561027157600080fd5b5061027a6108d9565b005b34801561028857600080fd5b506102a3600480360381019061029e91906128be565b61097a565b005b3480156102b157600080fd5b506102cc60048036038101906102c79190612625565b61099a565b6040516102d991906129e0565b60405180910390f35b3480156102ee57600080fd5b5061030960048036038101906103049190612625565b610ad9565b6040516103169190612693565b60405180910390f35b34801561032b57600080fd5b5061034660048036038101906103419190612a02565b610aeb565b6040516103539190612a3e565b60405180910390f35b34801561036857600080fd5b50610371610ba5565b005b61038d60048036038101906103889190612b0e565b610bb9565b005b34801561039b57600080fd5b506103a4610dd2565b6040516103b19190612693565b60405180910390f35b3480156103c657600080fd5b506103e160048036038101906103dc9190612625565b610dfc565b6040516103f2959493929190612b57565b60405180910390f35b34801561040757600080fd5b50610410610eca565b60405161041d9190612a3e565b60405180910390f35b34801561043257600080fd5b5061043b610ed0565b60405161044891906125cd565b60405180910390f35b34801561045d57600080fd5b5061047860048036038101906104739190612bdd565b610f62565b005b34801561048657600080fd5b506104a1600480360381019061049c9190612cbe565b610f78565b005b3480156104af57600080fd5b506104ca60048036038101906104c59190612625565b610f95565b6040516104d791906125cd565b60405180910390f35b3480156104ec57600080fd5b5061050760048036038101906105029190612d41565b610ffe565b6040516105149190612522565b60405180910390f35b34801561052957600080fd5b50610544600480360381019061053f9190612a02565b611092565b005b34801561055257600080fd5b5061055b611118565b6040516105689190612eb9565b60405180910390f35b60007f80ac58cd000000000000000000000000000000000000000000000000000000007bffffffffffffffffffffffffffffffffffffffffffffffffffffffff1916827bffffffffffffffffffffffffffffffffffffffffffffffffffffffff1916148061063c57507f5b5e139f000000000000000000000000000000000000000000000000000000007bffffffffffffffffffffffffffffffffffffffffffffffffffffffff1916827bffffffffffffffffffffffffffffffffffffffffffffffffffffffff1916145b8061064c575061064b82611231565b5b9050919050565b60606000805461066290612f0a565b80601f016020809104026020016040519081016040528092919081815260200182805461068e90612f0a565b80156106db5780601f106106b0576101008083540402835291602001916106db565b820191906000526020600020905b8154815290600101906020018083116106be57829003601f168201915b5050505050905090565b60006106f08261129b565b506106fa82611323565b9050919050565b610713828261070e611360565b611368565b5050565b7f000000000000000000000000000000000000000000000000000000000000000073ffffffffffffffffffffffffffffffffffffffff163373ffffffffffffffffffffffffffffffffffffffff16146107c957337f00000000000000000000000000000000000000000000000000000000000000006040517f1cf993f40000000000000000000000000000000000000000000000000000000081526004016107c0929190612f3b565b60405180910390fd5b6107d3828261137a565b5050565b600073ffffffffffffffffffffffffffffffffffffffff168273ffffffffffffffffffffffffffffffffffffffff16036108495760006040517f64a0ae920000000000000000000000000000000000000000000000000000000081526004016108409190612693565b60405180910390fd5b600061085d8383610858611360565b611663565b90508373ffffffffffffffffffffffffffffffffffffffff168173ffffffffffffffffffffffffffffffffffffffff16146108d3578382826040517f64283d7b0000000000000000000000000000000000000000000000000000000081526004016108ca93929190612f64565b60405180910390fd5b50505050565b6108e161187d565b600047905060008111610929576040517f08c379a000000000000000000000000000000000000000000000000000000000815260040161092090612fe7565b60405180910390fd5b610931610dd2565b73ffffffffffffffffffffffffffffffffffffffff166108fc829081150290604051600060405180830381858888f19350505050158015610976573d6000803e3d6000fd5b5050565b61099583838360405180602001604052806000815250610f78565b505050565b6109a26123e2565b81600a8054905081106109ea576040517f08c379a00000000000000000000000000000000000000000000000000000000081526004016109e190613053565b60405180910390fd5b600a83815481106109fe576109fd613073565b5b90600052602060002090600502016040518060a0016040529081600082018054610a2790612f0a565b80601f0160208091040260200160405190810160405280929190818152602001828054610a5390612f0a565b8015610aa05780601f10610a7557610100808354040283529160200191610aa0565b820191906000526020600020905b815481529060010190602001808311610a8357829003601f168201915b50505050508152602001600182015481526020016002820154815260200160038201548152602001600482015481525050915050919050565b6000610ae48261129b565b9050919050565b60008073ffffffffffffffffffffffffffffffffffffffff168273ffffffffffffffffffffffffffffffffffffffff1603610b5e5760006040517f89c62b64000000000000000000000000000000000000000000000000000000008152600401610b559190612693565b60405180910390fd5b600360008373ffffffffffffffffffffffffffffffffffffffff1673ffffffffffffffffffffffffffffffffffffffff168152602001908152602001600020549050919050565b610bad61187d565b610bb76000611904565b565b600a6001600a80549050610bcd91906130d1565b1115610c0e576040517f08c379a0000000000000000000000000000000000000000000000000000000008152600401610c0590613151565b60405180910390fd5b66470de4df8200003414610c57576040517f08c379a0000000000000000000000000000000000000000000000000000000008152600401610c4e906131bd565b60405180910390fd5b60088054906101000a900473ffffffffffffffffffffffffffffffffffffffff1673ffffffffffffffffffffffffffffffffffffffff16635d3b1d30600954600860009054906101000a900467ffffffffffffffff166003620f424060016040518663ffffffff1660e01b8152600401610cd59594939291906132f2565b6020604051808303816000875af1158015610cf4573d6000803e3d6000fd5b505050506040513d601f19601f82011682018060405250810190610d18919061335a565b60078190555080600b600060075481526020019081526020016000209081610d409190613529565b5033600c6000600754815260200190815260200160002060006101000a81548173ffffffffffffffffffffffffffffffffffffffff021916908373ffffffffffffffffffffffffffffffffffffffff1602179055506007547fabf2752a6127cbdd0f00db692417576a44c8a095c3e156bce8af96e92be5506082604051610dc791906125cd565b60405180910390a250565b6000600660009054906101000a900473ffffffffffffffffffffffffffffffffffffffff16905090565b600a8181548110610e0c57600080fd5b9060005260206000209060050201600091509050806000018054610e2f90612f0a565b80601f0160208091040260200160405190810160405280929190818152602001828054610e5b90612f0a565b8015610ea85780601f10610e7d57610100808354040283529160200191610ea8565b820191906000526020600020905b815481529060010190602001808311610e8b57829003601f168201915b5050505050908060010154908060020154908060030154908060040154905085565b60075481565b606060018054610edf90612f0a565b80601f0160208091040260200160405190810160405280929190818152602001828054610f0b90612f0a565b8015610f585780601f10610f2d57610100808354040283529160200191610f58565b820191906000526020600020905b815481529060010190602001808311610f3b57829003601f168201915b5050505050905090565b610f74610f6d611360565b83836119ca565b5050565b610f838484846107d7565b610f8f84848484611b39565b50505050565b6060610fa08261129b565b506000610fab611cf0565b90506000815111610fcb5760405180602001604052806000815250610ff6565b80610fd584611d07565b604051602001610fe6929190613637565b6040516020818303038152906040525b915050919050565b6000600560008473ffffffffffffffffffffffffffffffffffffffff1673ffffffffffffffffffffffffffffffffffffffff16815260200190815260200160002060008373ffffffffffffffffffffffffffffffffffffffff1673ffffffffffffffffffffffffffffffffffffffff16815260200190815260200160002060009054906101000a900460ff16905092915050565b61109a61187d565b600073ffffffffffffffffffffffffffffffffffffffff168173ffffffffffffffffffffffffffffffffffffffff160361110c5760006040517f1e4fbdf70000000000000000000000000000000000000000000000000000000081526004016111039190612693565b60405180910390fd5b61111581611904565b50565b6060600a805480602002602001604051908101604052809291908181526020016000905b8282101561122857838290600052602060002090600502016040518060a001604052908160008201805461116f90612f0a565b80601f016020809104026020016040519081016040528092919081815260200182805461119b90612f0a565b80156111e85780601f106111bd576101008083540402835291602001916111e8565b820191906000526020600020905b8154815290600101906020018083116111cb57829003601f168201915b505050505081526020016001820154815260200160028201548152602001600382015481526020016004820154815250508152602001906001019061113c565b50505050905090565b60007f01ffc9a7000000000000000000000000000000000000000000000000000000007bffffffffffffffffffffffffffffffffffffffffffffffffffffffff1916827bffffffffffffffffffffffffffffffffffffffffffffffffffffffff1916149050919050565b6000806112a783611dd5565b9050600073ffffffffffffffffffffffffffffffffffffffff168173ffffffffffffffffffffffffffffffffffffffff160361131a57826040517f7e2732890000000000000000000000000000000000000000000000000000000081526004016113119190612a3e565b60405180910390fd5b80915050919050565b60006004600083815260200190815260200160002060009054906101000a900473ffffffffffffffffffffffffffffffffffffffff169050919050565b600033905090565b6113758383836001611e12565b505050565b6000816000815181106113905761138f613073565b5b602002602001015190506000600a80549050905060006064836113b3919061368a565b905060006064612710856113c7919061368a565b6113d191906136bb565b905060006103e8612710866113e6919061368a565b6113f091906136bb565b90506000612710620186a087611406919061368a565b61141091906136bb565b905060006040518060a00160405280600b60008c8152602001908152602001600020805461143d90612f0a565b80601f016020809104026020016040519081016040528092919081815260200182805461146990612f0a565b80156114b65780601f1061148b576101008083540402835291602001916114b6565b820191906000526020600020905b81548152906001019060200180831161149957829003601f168201915b50505050508152602001868152602001858152602001848152602001838152509050600a81908060018154018082558091505060019003906000526020600020906005020160009091909190915060008201518160000190816115199190613529565b50602082015181600101556040820151816002015560608201518160030155608082015181600401555050611581600c60008b815260200190815260200160002060009054906101000a900473ffffffffffffffffffffffffffffffffffffffff1687611fd7565b600b60008a815260200190815260200160002060006115a09190612411565b600c60008a815260200190815260200160002060006101000a81549073ffffffffffffffffffffffffffffffffffffffff0219169055600c60008a815260200190815260200160002060009054906101000a900473ffffffffffffffffffffffffffffffffffffffff1673ffffffffffffffffffffffffffffffffffffffff16867fe342cb0b27387dca1fcae7df1759d5949e087f71837090eb91986a3095e5bf4f8360405161165091906129e0565b60405180910390a3505050505050505050565b60008061166f84611dd5565b9050600073ffffffffffffffffffffffffffffffffffffffff168373ffffffffffffffffffffffffffffffffffffffff16146116b1576116b0818486611ff5565b5b600073ffffffffffffffffffffffffffffffffffffffff168173ffffffffffffffffffffffffffffffffffffffff1614611742576116f3600085600080611e12565b6001600360008373ffffffffffffffffffffffffffffffffffffffff1673ffffffffffffffffffffffffffffffffffffffff168152602001908152602001600020600082825403925050819055505b600073ffffffffffffffffffffffffffffffffffffffff168573ffffffffffffffffffffffffffffffffffffffff16146117c5576001600360008773ffffffffffffffffffffffffffffffffffffffff1673ffffffffffffffffffffffffffffffffffffffff168152602001908152602001600020600082825401925050819055505b846002600086815260200190815260200160002060006101000a81548173ffffffffffffffffffffffffffffffffffffffff021916908373ffffffffffffffffffffffffffffffffffffffff160217905550838573ffffffffffffffffffffffffffffffffffffffff168273ffffffffffffffffffffffffffffffffffffffff167fddf252ad1be2c89b69c2b068fc378daa952ba7f163c4a11628f55a4df523b3ef60405160405180910390a4809150509392505050565b611885611360565b73ffffffffffffffffffffffffffffffffffffffff166118a3610dd2565b73ffffffffffffffffffffffffffffffffffffffff1614611902576118c6611360565b6040517f118cdaa70000000000000000000000000000000000000000000000000000000081526004016118f99190612693565b60405180910390fd5b565b6000600660009054906101000a900473ffffffffffffffffffffffffffffffffffffffff16905081600660006101000a81548173ffffffffffffffffffffffffffffffffffffffff021916908373ffffffffffffffffffffffffffffffffffffffff1602179055508173ffffffffffffffffffffffffffffffffffffffff168173ffffffffffffffffffffffffffffffffffffffff167f8be0079c531659141344cd1fd0a4f28419497f9722a3daafe3b4186f6b6457e060405160405180910390a35050565b600073ffffffffffffffffffffffffffffffffffffffff168273ffffffffffffffffffffffffffffffffffffffff1603611a3b57816040517f5b08ba18000000000000000000000000000000000000000000000000000000008152600401611a329190612693565b60405180910390fd5b80600560008573ffffffffffffffffffffffffffffffffffffffff1673ffffffffffffffffffffffffffffffffffffffff16815260200190815260200160002060008473ffffffffffffffffffffffffffffffffffffffff1673ffffffffffffffffffffffffffffffffffffffff16815260200190815260200160002060006101000a81548160ff0219169083151502179055508173ffffffffffffffffffffffffffffffffffffffff168373ffffffffffffffffffffffffffffffffffffffff167f17307eab39ab6107e8899845ad3d59bd9653f200f220920489ca2b5937696c3183604051611b2c9190612522565b60405180910390a3505050565b60008373ffffffffffffffffffffffffffffffffffffffff163b1115611cea578273ffffffffffffffffffffffffffffffffffffffff1663150b7a02611b7d611360565b8685856040518563ffffffff1660e01b8152600401611b9f9493929190613741565b6020604051808303816000875af1925050508015611bdb57506040513d601f19601f82011682018060405250810190611bd891906137a2565b60015b611c5f573d8060008114611c0b576040519150601f19603f3d011682016040523d82523d6000602084013e611c10565b606091505b506000815103611c5757836040517f64a0ae92000000000000000000000000000000000000000000000000000000008152600401611c4e9190612693565b60405180910390fd5b805181602001fd5b63150b7a0260e01b7bffffffffffffffffffffffffffffffffffffffffffffffffffffffff1916817bffffffffffffffffffffffffffffffffffffffffffffffffffffffff191614611ce857836040517f64a0ae92000000000000000000000000000000000000000000000000000000008152600401611cdf9190612693565b60405180910390fd5b505b50505050565b606060405180602001604052806000815250905090565b606060006001611d16846120b9565b01905060008167ffffffffffffffff811115611d3557611d3461271f565b5b6040519080825280601f01601f191660200182016040528015611d675781602001600182028036833780820191505090505b509050600082602001820190505b600115611dca578080600190039150507f3031323334353637383961626364656600000000000000000000000000000000600a86061a8153600a8581611dbe57611dbd61365b565b5b04945060008503611d75575b819350505050919050565b60006002600083815260200190815260200160002060009054906101000a900473ffffffffffffffffffffffffffffffffffffffff169050919050565b8080611e4b5750600073ffffffffffffffffffffffffffffffffffffffff168273ffffffffffffffffffffffffffffffffffffffff1614155b15611f7f576000611e5b8461129b565b9050600073ffffffffffffffffffffffffffffffffffffffff168373ffffffffffffffffffffffffffffffffffffffff1614158015611ec657508273ffffffffffffffffffffffffffffffffffffffff168173ffffffffffffffffffffffffffffffffffffffff1614155b8015611ed95750611ed78184610ffe565b155b15611f1b57826040517fa9fbf51f000000000000000000000000000000000000000000000000000000008152600401611f129190612693565b60405180910390fd5b8115611f7d57838573ffffffffffffffffffffffffffffffffffffffff168273ffffffffffffffffffffffffffffffffffffffff167f8c5be1e5ebec7d5bd14f71427d1e84f3dd0314c0f7b2291e5b200ac8c7c3b92560405160405180910390a45b505b836004600085815260200190815260200160002060006101000a81548173ffffffffffffffffffffffffffffffffffffffff021916908373ffffffffffffffffffffffffffffffffffffffff16021790555050505050565b611ff182826040518060200160405280600081525061220c565b5050565b612000838383612228565b6120b457600073ffffffffffffffffffffffffffffffffffffffff168373ffffffffffffffffffffffffffffffffffffffff160361207557806040517f7e27328900000000000000000000000000000000000000000000000000000000815260040161206c9190612a3e565b60405180910390fd5b81816040517f177e802f0000000000000000000000000000000000000000000000000000000081526004016120ab9291906137cf565b60405180910390fd5b505050565b600080600090507a184f03e93ff9f4daa797ed6e38ed64bf6a1f0100000000000000008310612117577a184f03e93ff9f4daa797ed6e38ed64bf6a1f010000000000000000838161210d5761210c61365b565b5b0492506040810190505b6d04ee2d6d415b85acef81000000008310612154576d04ee2d6d415b85acef8100000000838161214a5761214961365b565b5b0492506020810190505b662386f26fc10000831061218357662386f26fc1000083816121795761217861365b565b5b0492506010810190505b6305f5e10083106121ac576305f5e10083816121a2576121a161365b565b5b0492506008810190505b61271083106121d15761271083816121c7576121c661365b565b5b0492506004810190505b606483106121f457606483816121ea576121e961365b565b5b0492506002810190505b600a8310612203576001810190505b80915050919050565b61221683836122e9565b6122236000848484611b39565b505050565b60008073ffffffffffffffffffffffffffffffffffffffff168373ffffffffffffffffffffffffffffffffffffffff16141580156122e057508273ffffffffffffffffffffffffffffffffffffffff168473ffffffffffffffffffffffffffffffffffffffff1614806122a157506122a08484610ffe565b5b806122df57508273ffffffffffffffffffffffffffffffffffffffff166122c783611323565b73ffffffffffffffffffffffffffffffffffffffff16145b5b90509392505050565b600073ffffffffffffffffffffffffffffffffffffffff168273ffffffffffffffffffffffffffffffffffffffff160361235b5760006040517f64a0ae920000000000000000000000000000000000000000000000000000000081526004016123529190612693565b60405180910390fd5b600061236983836000611663565b9050600073ffffffffffffffffffffffffffffffffffffffff168173ffffffffffffffffffffffffffffffffffffffff16146123dd5760006040517f73c6ac6e0000000000000000000000000000000000000000000000000000000081526004016123d49190612693565b60405180910390fd5b505050565b6040518060a0016040528060608152602001600081526020016000815260200160008152602001600081525090565b50805461241d90612f0a565b6000825580601f1061242f575061244e565b601f01602090049060005260206000209081019061244d9190612451565b5b50565b5b8082111561246a576000816000905550600101612452565b5090565b6000604051905090565b600080fd5b600080fd5b60007fffffffff0000000000000000000000000000000000000000000000000000000082169050919050565b6124b781612482565b81146124c257600080fd5b50565b6000813590506124d4816124ae565b92915050565b6000602082840312156124f0576124ef612478565b5b60006124fe848285016124c5565b91505092915050565b60008115159050919050565b61251c81612507565b82525050565b60006020820190506125376000830184612513565b92915050565b600081519050919050565b600082825260208201905092915050565b60005b8381101561257757808201518184015260208101905061255c565b60008484015250505050565b6000601f19601f8301169050919050565b600061259f8261253d565b6125a98185612548565b93506125b9818560208601612559565b6125c281612583565b840191505092915050565b600060208201905081810360008301526125e78184612594565b905092915050565b6000819050919050565b612602816125ef565b811461260d57600080fd5b50565b60008135905061261f816125f9565b92915050565b60006020828403121561263b5761263a612478565b5b600061264984828501612610565b91505092915050565b600073ffffffffffffffffffffffffffffffffffffffff82169050919050565b600061267d82612652565b9050919050565b61268d81612672565b82525050565b60006020820190506126a86000830184612684565b92915050565b6126b781612672565b81146126c257600080fd5b50565b6000813590506126d4816126ae565b92915050565b600080604083850312156126f1576126f0612478565b5b60006126ff858286016126c5565b925050602061271085828601612610565b9150509250929050565b600080fd5b7f4e487b7100000000000000000000000000000000000000000000000000000000600052604160045260246000fd5b61275782612583565b810181811067ffffffffffffffff821117156127765761277561271f565b5b80604052505050565b600061278961246e565b9050612795828261274e565b919050565b600067ffffffffffffffff8211156127b5576127b461271f565b5b602082029050602081019050919050565b600080fd5b60006127de6127d98461279a565b61277f565b90508083825260208201905060208402830185811115612801576128006127c6565b5b835b8181101561282a57806128168882612610565b845260208401935050602081019050612803565b5050509392505050565b600082601f8301126128495761284861271a565b5b81356128598482602086016127cb565b91505092915050565b6000806040838503121561287957612878612478565b5b600061288785828601612610565b925050602083013567ffffffffffffffff8111156128a8576128a761247d565b5b6128b485828601612834565b9150509250929050565b6000806000606084860312156128d7576128d6612478565b5b60006128e5868287016126c5565b93505060206128f6868287016126c5565b925050604061290786828701612610565b9150509250925092565b600082825260208201905092915050565b600061292d8261253d565b6129378185612911565b9350612947818560208601612559565b61295081612583565b840191505092915050565b612964816125ef565b82525050565b600060a08301600083015184820360008601526129878282612922565b915050602083015161299c602086018261295b565b5060408301516129af604086018261295b565b5060608301516129c2606086018261295b565b5060808301516129d5608086018261295b565b508091505092915050565b600060208201905081810360008301526129fa818461296a565b905092915050565b600060208284031215612a1857612a17612478565b5b6000612a26848285016126c5565b91505092915050565b612a38816125ef565b82525050565b6000602082019050612a536000830184612a2f565b92915050565b600080fd5b600067ffffffffffffffff821115612a7957612a7861271f565b5b612a8282612583565b9050602081019050919050565b82818337600083830152505050565b6000612ab1612aac84612a5e565b61277f565b905082815260208101848484011115612acd57612acc612a59565b5b612ad8848285612a8f565b509392505050565b600082601f830112612af557612af461271a565b5b8135612b05848260208601612a9e565b91505092915050565b600060208284031215612b2457612b23612478565b5b600082013567ffffffffffffffff811115612b4257612b4161247d565b5b612b4e84828501612ae0565b91505092915050565b600060a0820190508181036000830152612b718188612594565b9050612b806020830187612a2f565b612b8d6040830186612a2f565b612b9a6060830185612a2f565b612ba76080830184612a2f565b9695505050505050565b612bba81612507565b8114612bc557600080fd5b50565b600081359050612bd781612bb1565b92915050565b60008060408385031215612bf457612bf3612478565b5b6000612c02858286016126c5565b9250506020612c1385828601612bc8565b9150509250929050565b600067ffffffffffffffff821115612c3857612c3761271f565b5b612c4182612583565b9050602081019050919050565b6000612c61612c5c84612c1d565b61277f565b905082815260208101848484011115612c7d57612c7c612a59565b5b612c88848285612a8f565b509392505050565b600082601f830112612ca557612ca461271a565b5b8135612cb5848260208601612c4e565b91505092915050565b60008060008060808587031215612cd857612cd7612478565b5b6000612ce6878288016126c5565b9450506020612cf7878288016126c5565b9350506040612d0887828801612610565b925050606085013567ffffffffffffffff811115612d2957612d2861247d565b5b612d3587828801612c90565b91505092959194509250565b60008060408385031215612d5857612d57612478565b5b6000612d66858286016126c5565b9250506020612d77858286016126c5565b9150509250929050565b600081519050919050565b600082825260208201905092915050565b6000819050602082019050919050565b600060a0830160008301518482036000860152612dca8282612922565b9150506020830151612ddf602086018261295b565b506040830151612df2604086018261295b565b506060830151612e05606086018261295b565b506080830151612e18608086018261295b565b508091505092915050565b6000612e2f8383612dad565b905092915050565b6000602082019050919050565b6000612e4f82612d81565b612e598185612d8c565b935083602082028501612e6b85612d9d565b8060005b85811015612ea75784840389528151612e888582612e23565b9450612e9383612e37565b925060208a01995050600181019050612e6f565b50829750879550505050505092915050565b60006020820190508181036000830152612ed38184612e44565b905092915050565b7f4e487b7100000000000000000000000000000000000000000000000000000000600052602260045260246000fd5b60006002820490506001821680612f2257607f821691505b602082108103612f3557612f34612edb565b5b50919050565b6000604082019050612f506000830185612684565b612f5d6020830184612684565b9392505050565b6000606082019050612f796000830186612684565b612f866020830185612a2f565b612f936040830184612684565b949350505050565b7f436f6e74726163742062616c616e6365206973207a65726f2e00000000000000600082015250565b6000612fd1601983612548565b9150612fdc82612f9b565b602082019050919050565b6000602082019050818103600083015261300081612fc4565b9050919050565b7f4e4654206e6f7420666f756e642e000000000000000000000000000000000000600082015250565b600061303d600e83612548565b915061304882613007565b602082019050919050565b6000602082019050818103600083015261306c81613030565b9050919050565b7f4e487b7100000000000000000000000000000000000000000000000000000000600052603260045260246000fd5b7f4e487b7100000000000000000000000000000000000000000000000000000000600052601160045260246000fd5b60006130dc826125ef565b91506130e7836125ef565b92508282019050808211156130ff576130fe6130a2565b5b92915050565b7f4d6178204e465420726561636865642e00000000000000000000000000000000600082015250565b600061313b601083612548565b915061314682613105565b602082019050919050565b6000602082019050818103600083015261316a8161312e565b9050919050565b7f496e76616c696420616d6f756e742e0000000000000000000000000000000000600082015250565b60006131a7600f83612548565b91506131b282613171565b602082019050919050565b600060208201905081810360008301526131d68161319a565b9050919050565b6000819050919050565b6131f0816131dd565b82525050565b600067ffffffffffffffff82169050919050565b613213816131f6565b82525050565b6000819050919050565b600061ffff82169050919050565b6000819050919050565b600061325661325161324c84613219565b613231565b613223565b9050919050565b6132668161323b565b82525050565b6000819050919050565b600063ffffffff82169050919050565b60006132a161329c6132978461326c565b613231565b613276565b9050919050565b6132b181613286565b82525050565b6000819050919050565b60006132dc6132d76132d2846132b7565b613231565b613276565b9050919050565b6132ec816132c1565b82525050565b600060a08201905061330760008301886131e7565b613314602083018761320a565b613321604083018661325d565b61332e60608301856132a8565b61333b60808301846132e3565b9695505050505050565b600081519050613354816125f9565b92915050565b6000602082840312156133705761336f612478565b5b600061337e84828501613345565b91505092915050565b60008190508160005260206000209050919050565b60006020601f8301049050919050565b600082821b905092915050565b6000600883026133e97fffffffffffffffffffffffffffffffffffffffffffffffffffffffffffffffff826133ac565b6133f386836133ac565b95508019841693508086168417925050509392505050565b600061342661342161341c846125ef565b613231565b6125ef565b9050919050565b6000819050919050565b6134408361340b565b61345461344c8261342d565b8484546133b9565b825550505050565b600090565b61346961345c565b613474818484613437565b505050565b5b818110156134985761348d600082613461565b60018101905061347a565b5050565b601f8211156134dd576134ae81613387565b6134b78461339c565b810160208510156134c6578190505b6134da6134d28561339c565b830182613479565b50505b505050565b600082821c905092915050565b6000613500600019846008026134e2565b1980831691505092915050565b600061351983836134ef565b9150826002028217905092915050565b6135328261253d565b67ffffffffffffffff81111561354b5761354a61271f565b5b6135558254612f0a565b61356082828561349c565b600060209050601f8311600181146135935760008415613581578287015190505b61358b858261350d565b8655506135f3565b601f1984166135a186613387565b60005b828110156135c9578489015182556001820191506020850194506020810190506135a4565b868310156135e657848901516135e2601f8916826134ef565b8355505b6001600288020188555050505b505050505050565b600081905092915050565b60006136118261253d565b61361b81856135fb565b935061362b818560208601612559565b80840191505092915050565b60006136438285613606565b915061364f8284613606565b91508190509392505050565b7f4e487b7100000000000000000000000000000000000000000000000000000000600052601260045260246000fd5b6000613695826125ef565b91506136a0836125ef565b9250826136b0576136af61365b565b5b828206905092915050565b60006136c6826125ef565b91506136d1836125ef565b9250826136e1576136e061365b565b5b828204905092915050565b600081519050919050565b600082825260208201905092915050565b6000613713826136ec565b61371d81856136f7565b935061372d818560208601612559565b61373681612583565b840191505092915050565b60006080820190506137566000830187612684565b6137636020830186612684565b6137706040830185612a2f565b81810360608301526137828184613708565b905095945050505050565b60008151905061379c816124ae565b92915050565b6000602082840312156137b8576137b7612478565b5b60006137c68482850161378d565b91505092915050565b60006040820190506137e46000830185612684565b6137f16020830184612a2f565b939250505056fea2646970667358221220bd2a1ffb367f2264f03d1e1c783e7ff4b91ec400abf29e2c8bc58daa42b3346364736f6c63430008180033",
          "opcodes": "PUSH1 0xA0 PUSH1 0x40 MSTORE CALLVALUE DUP1 ISZERO PUSH3 0x11 JUMPI PUSH1 0x0 DUP1 REVERT JUMPDEST POP PUSH1 0x40 MLOAD PUSH3 0x3FEC CODESIZE SUB DUP1 PUSH3 0x3FEC DUP4 CODECOPY DUP2 DUP2 ADD PUSH1 0x40 MSTORE DUP2 ADD SWAP1 PUSH3 0x37 SWAP2 SWAP1 PUSH3 0x3B0 JUMP JUMPDEST DUP2 CALLER PUSH1 0x40 MLOAD DUP1 PUSH1 0x40 ADD PUSH1 0x40 MSTORE DUP1 PUSH1 0x6 DUP2 MSTORE PUSH1 0x20 ADD PUSH32 0x506F664E46540000000000000000000000000000000000000000000000000000 DUP2 MSTORE POP PUSH1 0x40 MLOAD DUP1 PUSH1 0x40 ADD PUSH1 0x40 MSTORE DUP1 PUSH1 0x3 DUP2 MSTORE PUSH1 0x20 ADD PUSH32 0x504F460000000000000000000000000000000000000000000000000000000000 DUP2 MSTORE POP DUP2 PUSH1 0x0 SWAP1 DUP2 PUSH3 0xB6 SWAP2 SWAP1 PUSH3 0x686 JUMP JUMPDEST POP DUP1 PUSH1 0x1 SWAP1 DUP2 PUSH3 0xC8 SWAP2 SWAP1 PUSH3 0x686 JUMP JUMPDEST POP POP POP PUSH1 0x0 PUSH20 0xFFFFFFFFFFFFFFFFFFFFFFFFFFFFFFFFFFFFFFFF AND DUP2 PUSH20 0xFFFFFFFFFFFFFFFFFFFFFFFFFFFFFFFFFFFFFFFF AND SUB PUSH3 0x140 JUMPI PUSH1 0x0 PUSH1 0x40 MLOAD PUSH32 0x1E4FBDF700000000000000000000000000000000000000000000000000000000 DUP2 MSTORE PUSH1 0x4 ADD PUSH3 0x137 SWAP2 SWAP1 PUSH3 0x77E JUMP JUMPDEST PUSH1 0x40 MLOAD DUP1 SWAP2 SUB SWAP1 REVERT JUMPDEST PUSH3 0x151 DUP2 PUSH3 0x200 PUSH1 0x20 SHL PUSH1 0x20 SHR JUMP JUMPDEST POP DUP1 PUSH20 0xFFFFFFFFFFFFFFFFFFFFFFFFFFFFFFFFFFFFFFFF AND PUSH1 0x80 DUP2 PUSH20 0xFFFFFFFFFFFFFFFFFFFFFFFFFFFFFFFFFFFFFFFF AND DUP2 MSTORE POP POP POP DUP2 PUSH1 0x8 DUP1 PUSH2 0x100 EXP DUP2 SLOAD DUP2 PUSH20 0xFFFFFFFFFFFFFFFFFFFFFFFFFFFFFFFFFFFFFFFF MUL NOT AND SWAP1 DUP4 PUSH20 0xFFFFFFFFFFFFFFFFFFFFFFFFFFFFFFFFFFFFFFFF AND MUL OR SWAP1 SSTORE POP DUP3 PUSH1 0x8 PUSH1 0x0 PUSH2 0x100 EXP DUP2 SLOAD DUP2 PUSH8 0xFFFFFFFFFFFFFFFF MUL NOT AND SWAP1 DUP4 PUSH8 0xFFFFFFFFFFFFFFFF AND MUL OR SWAP1 SSTORE POP DUP1 PUSH1 0x9 DUP2 SWAP1 SSTORE POP POP POP POP PUSH3 0x79B JUMP JUMPDEST PUSH1 0x0 PUSH1 0x6 PUSH1 0x0 SWAP1 SLOAD SWAP1 PUSH2 0x100 EXP SWAP1 DIV PUSH20 0xFFFFFFFFFFFFFFFFFFFFFFFFFFFFFFFFFFFFFFFF AND SWAP1 POP DUP2 PUSH1 0x6 PUSH1 0x0 PUSH2 0x100 EXP DUP2 SLOAD DUP2 PUSH20 0xFFFFFFFFFFFFFFFFFFFFFFFFFFFFFFFFFFFFFFFF MUL NOT AND SWAP1 DUP4 PUSH20 0xFFFFFFFFFFFFFFFFFFFFFFFFFFFFFFFFFFFFFFFF AND MUL OR SWAP1 SSTORE POP DUP2 PUSH20 0xFFFFFFFFFFFFFFFFFFFFFFFFFFFFFFFFFFFFFFFF AND DUP2 PUSH20 0xFFFFFFFFFFFFFFFFFFFFFFFFFFFFFFFFFFFFFFFF AND PUSH32 0x8BE0079C531659141344CD1FD0A4F28419497F9722A3DAAFE3B4186F6B6457E0 PUSH1 0x40 MLOAD PUSH1 0x40 MLOAD DUP1 SWAP2 SUB SWAP1 LOG3 POP POP JUMP JUMPDEST PUSH1 0x0 DUP1 REVERT JUMPDEST PUSH1 0x0 PUSH8 0xFFFFFFFFFFFFFFFF DUP3 AND SWAP1 POP SWAP2 SWAP1 POP JUMP JUMPDEST PUSH3 0x2EA DUP2 PUSH3 0x2CB JUMP JUMPDEST DUP2 EQ PUSH3 0x2F6 JUMPI PUSH1 0x0 DUP1 REVERT JUMPDEST POP JUMP JUMPDEST PUSH1 0x0 DUP2 MLOAD SWAP1 POP PUSH3 0x30A DUP2 PUSH3 0x2DF JUMP JUMPDEST SWAP3 SWAP2 POP POP JUMP JUMPDEST PUSH1 0x0 PUSH20 0xFFFFFFFFFFFFFFFFFFFFFFFFFFFFFFFFFFFFFFFF DUP3 AND SWAP1 POP SWAP2 SWAP1 POP JUMP JUMPDEST PUSH1 0x0 PUSH3 0x33D DUP3 PUSH3 0x310 JUMP JUMPDEST SWAP1 POP SWAP2 SWAP1 POP JUMP JUMPDEST PUSH3 0x34F DUP2 PUSH3 0x330 JUMP JUMPDEST DUP2 EQ PUSH3 0x35B JUMPI PUSH1 0x0 DUP1 REVERT JUMPDEST POP JUMP JUMPDEST PUSH1 0x0 DUP2 MLOAD SWAP1 POP PUSH3 0x36F DUP2 PUSH3 0x344 JUMP JUMPDEST SWAP3 SWAP2 POP POP JUMP JUMPDEST PUSH1 0x0 DUP2 SWAP1 POP SWAP2 SWAP1 POP JUMP JUMPDEST PUSH3 0x38A DUP2 PUSH3 0x375 JUMP JUMPDEST DUP2 EQ PUSH3 0x396 JUMPI PUSH1 0x0 DUP1 REVERT JUMPDEST POP JUMP JUMPDEST PUSH1 0x0 DUP2 MLOAD SWAP1 POP PUSH3 0x3AA DUP2 PUSH3 0x37F JUMP JUMPDEST SWAP3 SWAP2 POP POP JUMP JUMPDEST PUSH1 0x0 DUP1 PUSH1 0x0 PUSH1 0x60 DUP5 DUP7 SUB SLT ISZERO PUSH3 0x3CC JUMPI PUSH3 0x3CB PUSH3 0x2C6 JUMP JUMPDEST JUMPDEST PUSH1 0x0 PUSH3 0x3DC DUP7 DUP3 DUP8 ADD PUSH3 0x2F9 JUMP JUMPDEST SWAP4 POP POP PUSH1 0x20 PUSH3 0x3EF DUP7 DUP3 DUP8 ADD PUSH3 0x35E JUMP JUMPDEST SWAP3 POP POP PUSH1 0x40 PUSH3 0x402 DUP7 DUP3 DUP8 ADD PUSH3 0x399 JUMP JUMPDEST SWAP2 POP POP SWAP3 POP SWAP3 POP SWAP3 JUMP JUMPDEST PUSH1 0x0 DUP2 MLOAD SWAP1 POP SWAP2 SWAP1 POP JUMP JUMPDEST PUSH32 0x4E487B7100000000000000000000000000000000000000000000000000000000 PUSH1 0x0 MSTORE PUSH1 0x41 PUSH1 0x4 MSTORE PUSH1 0x24 PUSH1 0x0 REVERT JUMPDEST PUSH32 0x4E487B7100000000000000000000000000000000000000000000000000000000 PUSH1 0x0 MSTORE PUSH1 0x22 PUSH1 0x4 MSTORE PUSH1 0x24 PUSH1 0x0 REVERT JUMPDEST PUSH1 0x0 PUSH1 0x2 DUP3 DIV SWAP1 POP PUSH1 0x1 DUP3 AND DUP1 PUSH3 0x48E JUMPI PUSH1 0x7F DUP3 AND SWAP2 POP JUMPDEST PUSH1 0x20 DUP3 LT DUP2 SUB PUSH3 0x4A4 JUMPI PUSH3 0x4A3 PUSH3 0x446 JUMP JUMPDEST JUMPDEST POP SWAP2 SWAP1 POP JUMP JUMPDEST PUSH1 0x0 DUP2 SWAP1 POP DUP2 PUSH1 0x0 MSTORE PUSH1 0x20 PUSH1 0x0 KECCAK256 SWAP1 POP SWAP2 SWAP1 POP JUMP JUMPDEST PUSH1 0x0 PUSH1 0x20 PUSH1 0x1F DUP4 ADD DIV SWAP1 POP SWAP2 SWAP1 POP JUMP JUMPDEST PUSH1 0x0 DUP3 DUP3 SHL SWAP1 POP SWAP3 SWAP2 POP POP JUMP JUMPDEST PUSH1 0x0 PUSH1 0x8 DUP4 MUL PUSH3 0x50E PUSH32 0xFFFFFFFFFFFFFFFFFFFFFFFFFFFFFFFFFFFFFFFFFFFFFFFFFFFFFFFFFFFFFFFF DUP3 PUSH3 0x4CF JUMP JUMPDEST PUSH3 0x51A DUP7 DUP4 PUSH3 0x4CF JUMP JUMPDEST SWAP6 POP DUP1 NOT DUP5 AND SWAP4 POP DUP1 DUP7 AND DUP5 OR SWAP3 POP POP POP SWAP4 SWAP3 POP POP POP JUMP JUMPDEST PUSH1 0x0 DUP2 SWAP1 POP SWAP2 SWAP1 POP JUMP JUMPDEST PUSH1 0x0 DUP2 SWAP1 POP SWAP2 SWAP1 POP JUMP JUMPDEST PUSH1 0x0 PUSH3 0x567 PUSH3 0x561 PUSH3 0x55B DUP5 PUSH3 0x532 JUMP JUMPDEST PUSH3 0x53C JUMP JUMPDEST PUSH3 0x532 JUMP JUMPDEST SWAP1 POP SWAP2 SWAP1 POP JUMP JUMPDEST PUSH1 0x0 DUP2 SWAP1 POP SWAP2 SWAP1 POP JUMP JUMPDEST PUSH3 0x583 DUP4 PUSH3 0x546 JUMP JUMPDEST PUSH3 0x59B PUSH3 0x592 DUP3 PUSH3 0x56E JUMP JUMPDEST DUP5 DUP5 SLOAD PUSH3 0x4DC JUMP JUMPDEST DUP3 SSTORE POP POP POP POP JUMP JUMPDEST PUSH1 0x0 SWAP1 JUMP JUMPDEST PUSH3 0x5B2 PUSH3 0x5A3 JUMP JUMPDEST PUSH3 0x5BF DUP2 DUP5 DUP5 PUSH3 0x578 JUMP JUMPDEST POP POP POP JUMP JUMPDEST JUMPDEST DUP2 DUP2 LT ISZERO PUSH3 0x5E7 JUMPI PUSH3 0x5DB PUSH1 0x0 DUP3 PUSH3 0x5A8 JUMP JUMPDEST PUSH1 0x1 DUP2 ADD SWAP1 POP PUSH3 0x5C5 JUMP JUMPDEST POP POP JUMP JUMPDEST PUSH1 0x1F DUP3 GT ISZERO PUSH3 0x636 JUMPI PUSH3 0x600 DUP2 PUSH3 0x4AA JUMP JUMPDEST PUSH3 0x60B DUP5 PUSH3 0x4BF JUMP JUMPDEST DUP2 ADD PUSH1 0x20 DUP6 LT ISZERO PUSH3 0x61B JUMPI DUP2 SWAP1 POP JUMPDEST PUSH3 0x633 PUSH3 0x62A DUP6 PUSH3 0x4BF JUMP JUMPDEST DUP4 ADD DUP3 PUSH3 0x5C4 JUMP JUMPDEST POP POP JUMPDEST POP POP POP JUMP JUMPDEST PUSH1 0x0 DUP3 DUP3 SHR SWAP1 POP SWAP3 SWAP2 POP POP JUMP JUMPDEST PUSH1 0x0 PUSH3 0x65B PUSH1 0x0 NOT DUP5 PUSH1 0x8 MUL PUSH3 0x63B JUMP JUMPDEST NOT DUP1 DUP4 AND SWAP2 POP POP SWAP3 SWAP2 POP POP JUMP JUMPDEST PUSH1 0x0 PUSH3 0x676 DUP4 DUP4 PUSH3 0x648 JUMP JUMPDEST SWAP2 POP DUP3 PUSH1 0x2 MUL DUP3 OR SWAP1 POP SWAP3 SWAP2 POP POP JUMP JUMPDEST PUSH3 0x691 DUP3 PUSH3 0x40C JUMP JUMPDEST PUSH8 0xFFFFFFFFFFFFFFFF DUP2 GT ISZERO PUSH3 0x6AD JUMPI PUSH3 0x6AC PUSH3 0x417 JUMP JUMPDEST JUMPDEST PUSH3 0x6B9 DUP3 SLOAD PUSH3 0x475 JUMP JUMPDEST PUSH3 0x6C6 DUP3 DUP3 DUP6 PUSH3 0x5EB JUMP JUMPDEST PUSH1 0x0 PUSH1 0x20 SWAP1 POP PUSH1 0x1F DUP4 GT PUSH1 0x1 DUP2 EQ PUSH3 0x6FE JUMPI PUSH1 0x0 DUP5 ISZERO PUSH3 0x6E9 JUMPI DUP3 DUP8 ADD MLOAD SWAP1 POP JUMPDEST PUSH3 0x6F5 DUP6 DUP3 PUSH3 0x668 JUMP JUMPDEST DUP7 SSTORE POP PUSH3 0x765 JUMP JUMPDEST PUSH1 0x1F NOT DUP5 AND PUSH3 0x70E DUP7 PUSH3 0x4AA JUMP JUMPDEST PUSH1 0x0 JUMPDEST DUP3 DUP2 LT ISZERO PUSH3 0x738 JUMPI DUP5 DUP10 ADD MLOAD DUP3 SSTORE PUSH1 0x1 DUP3 ADD SWAP2 POP PUSH1 0x20 DUP6 ADD SWAP5 POP PUSH1 0x20 DUP2 ADD SWAP1 POP PUSH3 0x711 JUMP JUMPDEST DUP7 DUP4 LT ISZERO PUSH3 0x758 JUMPI DUP5 DUP10 ADD MLOAD PUSH3 0x754 PUSH1 0x1F DUP10 AND DUP3 PUSH3 0x648 JUMP JUMPDEST DUP4 SSTORE POP JUMPDEST PUSH1 0x1 PUSH1 0x2 DUP9 MUL ADD DUP9 SSTORE POP POP POP JUMPDEST POP POP POP POP POP POP JUMP JUMPDEST PUSH3 0x778 DUP2 PUSH3 0x330 JUMP JUMPDEST DUP3 MSTORE POP POP JUMP JUMPDEST PUSH1 0x0 PUSH1 0x20 DUP3 ADD SWAP1 POP PUSH3 0x795 PUSH1 0x0 DUP4 ADD DUP5 PUSH3 0x76D JUMP JUMPDEST SWAP3 SWAP2 POP POP JUMP JUMPDEST PUSH1 0x80 MLOAD PUSH2 0x382E PUSH3 0x7BE PUSH1 0x0 CODECOPY PUSH1 0x0 DUP2 DUP2 PUSH2 0x719 ADD MSTORE PUSH2 0x76D ADD MSTORE PUSH2 0x382E PUSH1 0x0 RETURN INVALID PUSH1 0x80 PUSH1 0x40 MSTORE PUSH1 0x4 CALLDATASIZE LT PUSH2 0x140 JUMPI PUSH1 0x0 CALLDATALOAD PUSH1 0xE0 SHR DUP1 PUSH4 0x715018A6 GT PUSH2 0xB6 JUMPI DUP1 PUSH4 0xA22CB465 GT PUSH2 0x6F JUMPI DUP1 PUSH4 0xA22CB465 EQ PUSH2 0x451 JUMPI DUP1 PUSH4 0xB88D4FDE EQ PUSH2 0x47A JUMPI DUP1 PUSH4 0xC87B56DD EQ PUSH2 0x4A3 JUMPI DUP1 PUSH4 0xE985E9C5 EQ PUSH2 0x4E0 JUMPI DUP1 PUSH4 0xF2FDE38B EQ PUSH2 0x51D JUMPI DUP1 PUSH4 0xF3B1633D EQ PUSH2 0x546 JUMPI PUSH2 0x140 JUMP JUMPDEST DUP1 PUSH4 0x715018A6 EQ PUSH2 0x35C JUMPI DUP1 PUSH4 0x76D85ACA EQ PUSH2 0x373 JUMPI DUP1 PUSH4 0x8DA5CB5B EQ PUSH2 0x38F JUMPI DUP1 PUSH4 0x8DD2361C EQ PUSH2 0x3BA JUMPI DUP1 PUSH4 0x9179E19C EQ PUSH2 0x3FB JUMPI DUP1 PUSH4 0x95D89B41 EQ PUSH2 0x426 JUMPI PUSH2 0x140 JUMP JUMPDEST DUP1 PUSH4 0x23B872DD GT PUSH2 0x108 JUMPI DUP1 PUSH4 0x23B872DD EQ PUSH2 0x23C JUMPI DUP1 PUSH4 0x3CCFD60B EQ PUSH2 0x265 JUMPI DUP1 PUSH4 0x42842E0E EQ PUSH2 0x27C JUMPI DUP1 PUSH4 0x576F7EA7 EQ PUSH2 0x2A5 JUMPI DUP1 PUSH4 0x6352211E EQ PUSH2 0x2E2 JUMPI DUP1 PUSH4 0x70A08231 EQ PUSH2 0x31F JUMPI PUSH2 0x140 JUMP JUMPDEST DUP1 PUSH4 0x1FFC9A7 EQ PUSH2 0x145 JUMPI DUP1 PUSH4 0x6FDDE03 EQ PUSH2 0x182 JUMPI DUP1 PUSH4 0x81812FC EQ PUSH2 0x1AD JUMPI DUP1 PUSH4 0x95EA7B3 EQ PUSH2 0x1EA JUMPI DUP1 PUSH4 0x1FE543E3 EQ PUSH2 0x213 JUMPI JUMPDEST PUSH1 0x0 DUP1 REVERT JUMPDEST CALLVALUE DUP1 ISZERO PUSH2 0x151 JUMPI PUSH1 0x0 DUP1 REVERT JUMPDEST POP PUSH2 0x16C PUSH1 0x4 DUP1 CALLDATASIZE SUB DUP2 ADD SWAP1 PUSH2 0x167 SWAP2 SWAP1 PUSH2 0x24DA JUMP JUMPDEST PUSH2 0x571 JUMP JUMPDEST PUSH1 0x40 MLOAD PUSH2 0x179 SWAP2 SWAP1 PUSH2 0x2522 JUMP JUMPDEST PUSH1 0x40 MLOAD DUP1 SWAP2 SUB SWAP1 RETURN JUMPDEST CALLVALUE DUP1 ISZERO PUSH2 0x18E JUMPI PUSH1 0x0 DUP1 REVERT JUMPDEST POP PUSH2 0x197 PUSH2 0x653 JUMP JUMPDEST PUSH1 0x40 MLOAD PUSH2 0x1A4 SWAP2 SWAP1 PUSH2 0x25CD JUMP JUMPDEST PUSH1 0x40 MLOAD DUP1 SWAP2 SUB SWAP1 RETURN JUMPDEST CALLVALUE DUP1 ISZERO PUSH2 0x1B9 JUMPI PUSH1 0x0 DUP1 REVERT JUMPDEST POP PUSH2 0x1D4 PUSH1 0x4 DUP1 CALLDATASIZE SUB DUP2 ADD SWAP1 PUSH2 0x1CF SWAP2 SWAP1 PUSH2 0x2625 JUMP JUMPDEST PUSH2 0x6E5 JUMP JUMPDEST PUSH1 0x40 MLOAD PUSH2 0x1E1 SWAP2 SWAP1 PUSH2 0x2693 JUMP JUMPDEST PUSH1 0x40 MLOAD DUP1 SWAP2 SUB SWAP1 RETURN JUMPDEST CALLVALUE DUP1 ISZERO PUSH2 0x1F6 JUMPI PUSH1 0x0 DUP1 REVERT JUMPDEST POP PUSH2 0x211 PUSH1 0x4 DUP1 CALLDATASIZE SUB DUP2 ADD SWAP1 PUSH2 0x20C SWAP2 SWAP1 PUSH2 0x26DA JUMP JUMPDEST PUSH2 0x701 JUMP JUMPDEST STOP JUMPDEST CALLVALUE DUP1 ISZERO PUSH2 0x21F JUMPI PUSH1 0x0 DUP1 REVERT JUMPDEST POP PUSH2 0x23A PUSH1 0x4 DUP1 CALLDATASIZE SUB DUP2 ADD SWAP1 PUSH2 0x235 SWAP2 SWAP1 PUSH2 0x2862 JUMP JUMPDEST PUSH2 0x717 JUMP JUMPDEST STOP JUMPDEST CALLVALUE DUP1 ISZERO PUSH2 0x248 JUMPI PUSH1 0x0 DUP1 REVERT JUMPDEST POP PUSH2 0x263 PUSH1 0x4 DUP1 CALLDATASIZE SUB DUP2 ADD SWAP1 PUSH2 0x25E SWAP2 SWAP1 PUSH2 0x28BE JUMP JUMPDEST PUSH2 0x7D7 JUMP JUMPDEST STOP JUMPDEST CALLVALUE DUP1 ISZERO PUSH2 0x271 JUMPI PUSH1 0x0 DUP1 REVERT JUMPDEST POP PUSH2 0x27A PUSH2 0x8D9 JUMP JUMPDEST STOP JUMPDEST CALLVALUE DUP1 ISZERO PUSH2 0x288 JUMPI PUSH1 0x0 DUP1 REVERT JUMPDEST POP PUSH2 0x2A3 PUSH1 0x4 DUP1 CALLDATASIZE SUB DUP2 ADD SWAP1 PUSH2 0x29E SWAP2 SWAP1 PUSH2 0x28BE JUMP JUMPDEST PUSH2 0x97A JUMP JUMPDEST STOP JUMPDEST CALLVALUE DUP1 ISZERO PUSH2 0x2B1 JUMPI PUSH1 0x0 DUP1 REVERT JUMPDEST POP PUSH2 0x2CC PUSH1 0x4 DUP1 CALLDATASIZE SUB DUP2 ADD SWAP1 PUSH2 0x2C7 SWAP2 SWAP1 PUSH2 0x2625 JUMP JUMPDEST PUSH2 0x99A JUMP JUMPDEST PUSH1 0x40 MLOAD PUSH2 0x2D9 SWAP2 SWAP1 PUSH2 0x29E0 JUMP JUMPDEST PUSH1 0x40 MLOAD DUP1 SWAP2 SUB SWAP1 RETURN JUMPDEST CALLVALUE DUP1 ISZERO PUSH2 0x2EE JUMPI PUSH1 0x0 DUP1 REVERT JUMPDEST POP PUSH2 0x309 PUSH1 0x4 DUP1 CALLDATASIZE SUB DUP2 ADD SWAP1 PUSH2 0x304 SWAP2 SWAP1 PUSH2 0x2625 JUMP JUMPDEST PUSH2 0xAD9 JUMP JUMPDEST PUSH1 0x40 MLOAD PUSH2 0x316 SWAP2 SWAP1 PUSH2 0x2693 JUMP JUMPDEST PUSH1 0x40 MLOAD DUP1 SWAP2 SUB SWAP1 RETURN JUMPDEST CALLVALUE DUP1 ISZERO PUSH2 0x32B JUMPI PUSH1 0x0 DUP1 REVERT JUMPDEST POP PUSH2 0x346 PUSH1 0x4 DUP1 CALLDATASIZE SUB DUP2 ADD SWAP1 PUSH2 0x341 SWAP2 SWAP1 PUSH2 0x2A02 JUMP JUMPDEST PUSH2 0xAEB JUMP JUMPDEST PUSH1 0x40 MLOAD PUSH2 0x353 SWAP2 SWAP1 PUSH2 0x2A3E JUMP JUMPDEST PUSH1 0x40 MLOAD DUP1 SWAP2 SUB SWAP1 RETURN JUMPDEST CALLVALUE DUP1 ISZERO PUSH2 0x368 JUMPI PUSH1 0x0 DUP1 REVERT JUMPDEST POP PUSH2 0x371 PUSH2 0xBA5 JUMP JUMPDEST STOP JUMPDEST PUSH2 0x38D PUSH1 0x4 DUP1 CALLDATASIZE SUB DUP2 ADD SWAP1 PUSH2 0x388 SWAP2 SWAP1 PUSH2 0x2B0E JUMP JUMPDEST PUSH2 0xBB9 JUMP JUMPDEST STOP JUMPDEST CALLVALUE DUP1 ISZERO PUSH2 0x39B JUMPI PUSH1 0x0 DUP1 REVERT JUMPDEST POP PUSH2 0x3A4 PUSH2 0xDD2 JUMP JUMPDEST PUSH1 0x40 MLOAD PUSH2 0x3B1 SWAP2 SWAP1 PUSH2 0x2693 JUMP JUMPDEST PUSH1 0x40 MLOAD DUP1 SWAP2 SUB SWAP1 RETURN JUMPDEST CALLVALUE DUP1 ISZERO PUSH2 0x3C6 JUMPI PUSH1 0x0 DUP1 REVERT JUMPDEST POP PUSH2 0x3E1 PUSH1 0x4 DUP1 CALLDATASIZE SUB DUP2 ADD SWAP1 PUSH2 0x3DC SWAP2 SWAP1 PUSH2 0x2625 JUMP JUMPDEST PUSH2 0xDFC JUMP JUMPDEST PUSH1 0x40 MLOAD PUSH2 0x3F2 SWAP6 SWAP5 SWAP4 SWAP3 SWAP2 SWAP1 PUSH2 0x2B57 JUMP JUMPDEST PUSH1 0x40 MLOAD DUP1 SWAP2 SUB SWAP1 RETURN JUMPDEST CALLVALUE DUP1 ISZERO PUSH2 0x407 JUMPI PUSH1 0x0 DUP1 REVERT JUMPDEST POP PUSH2 0x410 PUSH2 0xECA JUMP JUMPDEST PUSH1 0x40 MLOAD PUSH2 0x41D SWAP2 SWAP1 PUSH2 0x2A3E JUMP JUMPDEST PUSH1 0x40 MLOAD DUP1 SWAP2 SUB SWAP1 RETURN JUMPDEST CALLVALUE DUP1 ISZERO PUSH2 0x432 JUMPI PUSH1 0x0 DUP1 REVERT JUMPDEST POP PUSH2 0x43B PUSH2 0xED0 JUMP JUMPDEST PUSH1 0x40 MLOAD PUSH2 0x448 SWAP2 SWAP1 PUSH2 0x25CD JUMP JUMPDEST PUSH1 0x40 MLOAD DUP1 SWAP2 SUB SWAP1 RETURN JUMPDEST CALLVALUE DUP1 ISZERO PUSH2 0x45D JUMPI PUSH1 0x0 DUP1 REVERT JUMPDEST POP PUSH2 0x478 PUSH1 0x4 DUP1 CALLDATASIZE SUB DUP2 ADD SWAP1 PUSH2 0x473 SWAP2 SWAP1 PUSH2 0x2BDD JUMP JUMPDEST PUSH2 0xF62 JUMP JUMPDEST STOP JUMPDEST CALLVALUE DUP1 ISZERO PUSH2 0x486 JUMPI PUSH1 0x0 DUP1 REVERT JUMPDEST POP PUSH2 0x4A1 PUSH1 0x4 DUP1 CALLDATASIZE SUB DUP2 ADD SWAP1 PUSH2 0x49C SWAP2 SWAP1 PUSH2 0x2CBE JUMP JUMPDEST PUSH2 0xF78 JUMP JUMPDEST STOP JUMPDEST CALLVALUE DUP1 ISZERO PUSH2 0x4AF JUMPI PUSH1 0x0 DUP1 REVERT JUMPDEST POP PUSH2 0x4CA PUSH1 0x4 DUP1 CALLDATASIZE SUB DUP2 ADD SWAP1 PUSH2 0x4C5 SWAP2 SWAP1 PUSH2 0x2625 JUMP JUMPDEST PUSH2 0xF95 JUMP JUMPDEST PUSH1 0x40 MLOAD PUSH2 0x4D7 SWAP2 SWAP1 PUSH2 0x25CD JUMP JUMPDEST PUSH1 0x40 MLOAD DUP1 SWAP2 SUB SWAP1 RETURN JUMPDEST CALLVALUE DUP1 ISZERO PUSH2 0x4EC JUMPI PUSH1 0x0 DUP1 REVERT JUMPDEST POP PUSH2 0x507 PUSH1 0x4 DUP1 CALLDATASIZE SUB DUP2 ADD SWAP1 PUSH2 0x502 SWAP2 SWAP1 PUSH2 0x2D41 JUMP JUMPDEST PUSH2 0xFFE JUMP JUMPDEST PUSH1 0x40 MLOAD PUSH2 0x514 SWAP2 SWAP1 PUSH2 0x2522 JUMP JUMPDEST PUSH1 0x40 MLOAD DUP1 SWAP2 SUB SWAP1 RETURN JUMPDEST CALLVALUE DUP1 ISZERO PUSH2 0x529 JUMPI PUSH1 0x0 DUP1 REVERT JUMPDEST POP PUSH2 0x544 PUSH1 0x4 DUP1 CALLDATASIZE SUB DUP2 ADD SWAP1 PUSH2 0x53F SWAP2 SWAP1 PUSH2 0x2A02 JUMP JUMPDEST PUSH2 0x1092 JUMP JUMPDEST STOP JUMPDEST CALLVALUE DUP1 ISZERO PUSH2 0x552 JUMPI PUSH1 0x0 DUP1 REVERT JUMPDEST POP PUSH2 0x55B PUSH2 0x1118 JUMP JUMPDEST PUSH1 0x40 MLOAD PUSH2 0x568 SWAP2 SWAP1 PUSH2 0x2EB9 JUMP JUMPDEST PUSH1 0x40 MLOAD DUP1 SWAP2 SUB SWAP1 RETURN JUMPDEST PUSH1 0x0 PUSH32 0x80AC58CD00000000000000000000000000000000000000000000000000000000 PUSH28 0xFFFFFFFFFFFFFFFFFFFFFFFFFFFFFFFFFFFFFFFFFFFFFFFFFFFFFFFF NOT AND DUP3 PUSH28 0xFFFFFFFFFFFFFFFFFFFFFFFFFFFFFFFFFFFFFFFFFFFFFFFFFFFFFFFF NOT AND EQ DUP1 PUSH2 0x63C JUMPI POP PUSH32 0x5B5E139F00000000000000000000000000000000000000000000000000000000 PUSH28 0xFFFFFFFFFFFFFFFFFFFFFFFFFFFFFFFFFFFFFFFFFFFFFFFFFFFFFFFF NOT AND DUP3 PUSH28 0xFFFFFFFFFFFFFFFFFFFFFFFFFFFFFFFFFFFFFFFFFFFFFFFFFFFFFFFF NOT AND EQ JUMPDEST DUP1 PUSH2 0x64C JUMPI POP PUSH2 0x64B DUP3 PUSH2 0x1231 JUMP JUMPDEST JUMPDEST SWAP1 POP SWAP2 SWAP1 POP JUMP JUMPDEST PUSH1 0x60 PUSH1 0x0 DUP1 SLOAD PUSH2 0x662 SWAP1 PUSH2 0x2F0A JUMP JUMPDEST DUP1 PUSH1 0x1F ADD PUSH1 0x20 DUP1 SWAP2 DIV MUL PUSH1 0x20 ADD PUSH1 0x40 MLOAD SWAP1 DUP2 ADD PUSH1 0x40 MSTORE DUP1 SWAP3 SWAP2 SWAP1 DUP2 DUP2 MSTORE PUSH1 0x20 ADD DUP3 DUP1 SLOAD PUSH2 0x68E SWAP1 PUSH2 0x2F0A JUMP JUMPDEST DUP1 ISZERO PUSH2 0x6DB JUMPI DUP1 PUSH1 0x1F LT PUSH2 0x6B0 JUMPI PUSH2 0x100 DUP1 DUP4 SLOAD DIV MUL DUP4 MSTORE SWAP2 PUSH1 0x20 ADD SWAP2 PUSH2 0x6DB JUMP JUMPDEST DUP3 ADD SWAP2 SWAP1 PUSH1 0x0 MSTORE PUSH1 0x20 PUSH1 0x0 KECCAK256 SWAP1 JUMPDEST DUP2 SLOAD DUP2 MSTORE SWAP1 PUSH1 0x1 ADD SWAP1 PUSH1 0x20 ADD DUP1 DUP4 GT PUSH2 0x6BE JUMPI DUP3 SWAP1 SUB PUSH1 0x1F AND DUP3 ADD SWAP2 JUMPDEST POP POP POP POP POP SWAP1 POP SWAP1 JUMP JUMPDEST PUSH1 0x0 PUSH2 0x6F0 DUP3 PUSH2 0x129B JUMP JUMPDEST POP PUSH2 0x6FA DUP3 PUSH2 0x1323 JUMP JUMPDEST SWAP1 POP SWAP2 SWAP1 POP JUMP JUMPDEST PUSH2 0x713 DUP3 DUP3 PUSH2 0x70E PUSH2 0x1360 JUMP JUMPDEST PUSH2 0x1368 JUMP JUMPDEST POP POP JUMP JUMPDEST PUSH32 0x0 PUSH20 0xFFFFFFFFFFFFFFFFFFFFFFFFFFFFFFFFFFFFFFFF AND CALLER PUSH20 0xFFFFFFFFFFFFFFFFFFFFFFFFFFFFFFFFFFFFFFFF AND EQ PUSH2 0x7C9 JUMPI CALLER PUSH32 0x0 PUSH1 0x40 MLOAD PUSH32 0x1CF993F400000000000000000000000000000000000000000000000000000000 DUP2 MSTORE PUSH1 0x4 ADD PUSH2 0x7C0 SWAP3 SWAP2 SWAP1 PUSH2 0x2F3B JUMP JUMPDEST PUSH1 0x40 MLOAD DUP1 SWAP2 SUB SWAP1 REVERT JUMPDEST PUSH2 0x7D3 DUP3 DUP3 PUSH2 0x137A JUMP JUMPDEST POP POP JUMP JUMPDEST PUSH1 0x0 PUSH20 0xFFFFFFFFFFFFFFFFFFFFFFFFFFFFFFFFFFFFFFFF AND DUP3 PUSH20 0xFFFFFFFFFFFFFFFFFFFFFFFFFFFFFFFFFFFFFFFF AND SUB PUSH2 0x849 JUMPI PUSH1 0x0 PUSH1 0x40 MLOAD PUSH32 0x64A0AE9200000000000000000000000000000000000000000000000000000000 DUP2 MSTORE PUSH1 0x4 ADD PUSH2 0x840 SWAP2 SWAP1 PUSH2 0x2693 JUMP JUMPDEST PUSH1 0x40 MLOAD DUP1 SWAP2 SUB SWAP1 REVERT JUMPDEST PUSH1 0x0 PUSH2 0x85D DUP4 DUP4 PUSH2 0x858 PUSH2 0x1360 JUMP JUMPDEST PUSH2 0x1663 JUMP JUMPDEST SWAP1 POP DUP4 PUSH20 0xFFFFFFFFFFFFFFFFFFFFFFFFFFFFFFFFFFFFFFFF AND DUP2 PUSH20 0xFFFFFFFFFFFFFFFFFFFFFFFFFFFFFFFFFFFFFFFF AND EQ PUSH2 0x8D3 JUMPI DUP4 DUP3 DUP3 PUSH1 0x40 MLOAD PUSH32 0x64283D7B00000000000000000000000000000000000000000000000000000000 DUP2 MSTORE PUSH1 0x4 ADD PUSH2 0x8CA SWAP4 SWAP3 SWAP2 SWAP1 PUSH2 0x2F64 JUMP JUMPDEST PUSH1 0x40 MLOAD DUP1 SWAP2 SUB SWAP1 REVERT JUMPDEST POP POP POP POP JUMP JUMPDEST PUSH2 0x8E1 PUSH2 0x187D JUMP JUMPDEST PUSH1 0x0 SELFBALANCE SWAP1 POP PUSH1 0x0 DUP2 GT PUSH2 0x929 JUMPI PUSH1 0x40 MLOAD PUSH32 0x8C379A000000000000000000000000000000000000000000000000000000000 DUP2 MSTORE PUSH1 0x4 ADD PUSH2 0x920 SWAP1 PUSH2 0x2FE7 JUMP JUMPDEST PUSH1 0x40 MLOAD DUP1 SWAP2 SUB SWAP1 REVERT JUMPDEST PUSH2 0x931 PUSH2 0xDD2 JUMP JUMPDEST PUSH20 0xFFFFFFFFFFFFFFFFFFFFFFFFFFFFFFFFFFFFFFFF AND PUSH2 0x8FC DUP3 SWAP1 DUP2 ISZERO MUL SWAP1 PUSH1 0x40 MLOAD PUSH1 0x0 PUSH1 0x40 MLOAD DUP1 DUP4 SUB DUP2 DUP6 DUP9 DUP9 CALL SWAP4 POP POP POP POP ISZERO DUP1 ISZERO PUSH2 0x976 JUMPI RETURNDATASIZE PUSH1 0x0 DUP1 RETURNDATACOPY RETURNDATASIZE PUSH1 0x0 REVERT JUMPDEST POP POP JUMP JUMPDEST PUSH2 0x995 DUP4 DUP4 DUP4 PUSH1 0x40 MLOAD DUP1 PUSH1 0x20 ADD PUSH1 0x40 MSTORE DUP1 PUSH1 0x0 DUP2 MSTORE POP PUSH2 0xF78 JUMP JUMPDEST POP POP POP JUMP JUMPDEST PUSH2 0x9A2 PUSH2 0x23E2 JUMP JUMPDEST DUP2 PUSH1 0xA DUP1 SLOAD SWAP1 POP DUP2 LT PUSH2 0x9EA JUMPI PUSH1 0x40 MLOAD PUSH32 0x8C379A000000000000000000000000000000000000000000000000000000000 DUP2 MSTORE PUSH1 0x4 ADD PUSH2 0x9E1 SWAP1 PUSH2 0x3053 JUMP JUMPDEST PUSH1 0x40 MLOAD DUP1 SWAP2 SUB SWAP1 REVERT JUMPDEST PUSH1 0xA DUP4 DUP2 SLOAD DUP2 LT PUSH2 0x9FE JUMPI PUSH2 0x9FD PUSH2 0x3073 JUMP JUMPDEST JUMPDEST SWAP1 PUSH1 0x0 MSTORE PUSH1 0x20 PUSH1 0x0 KECCAK256 SWAP1 PUSH1 0x5 MUL ADD PUSH1 0x40 MLOAD DUP1 PUSH1 0xA0 ADD PUSH1 0x40 MSTORE SWAP1 DUP2 PUSH1 0x0 DUP3 ADD DUP1 SLOAD PUSH2 0xA27 SWAP1 PUSH2 0x2F0A JUMP JUMPDEST DUP1 PUSH1 0x1F ADD PUSH1 0x20 DUP1 SWAP2 DIV MUL PUSH1 0x20 ADD PUSH1 0x40 MLOAD SWAP1 DUP2 ADD PUSH1 0x40 MSTORE DUP1 SWAP3 SWAP2 SWAP1 DUP2 DUP2 MSTORE PUSH1 0x20 ADD DUP3 DUP1 SLOAD PUSH2 0xA53 SWAP1 PUSH2 0x2F0A JUMP JUMPDEST DUP1 ISZERO PUSH2 0xAA0 JUMPI DUP1 PUSH1 0x1F LT PUSH2 0xA75 JUMPI PUSH2 0x100 DUP1 DUP4 SLOAD DIV MUL DUP4 MSTORE SWAP2 PUSH1 0x20 ADD SWAP2 PUSH2 0xAA0 JUMP JUMPDEST DUP3 ADD SWAP2 SWAP1 PUSH1 0x0 MSTORE PUSH1 0x20 PUSH1 0x0 KECCAK256 SWAP1 JUMPDEST DUP2 SLOAD DUP2 MSTORE SWAP1 PUSH1 0x1 ADD SWAP1 PUSH1 0x20 ADD DUP1 DUP4 GT PUSH2 0xA83 JUMPI DUP3 SWAP1 SUB PUSH1 0x1F AND DUP3 ADD SWAP2 JUMPDEST POP POP POP POP POP DUP2 MSTORE PUSH1 0x20 ADD PUSH1 0x1 DUP3 ADD SLOAD DUP2 MSTORE PUSH1 0x20 ADD PUSH1 0x2 DUP3 ADD SLOAD DUP2 MSTORE PUSH1 0x20 ADD PUSH1 0x3 DUP3 ADD SLOAD DUP2 MSTORE PUSH1 0x20 ADD PUSH1 0x4 DUP3 ADD SLOAD DUP2 MSTORE POP POP SWAP2 POP POP SWAP2 SWAP1 POP JUMP JUMPDEST PUSH1 0x0 PUSH2 0xAE4 DUP3 PUSH2 0x129B JUMP JUMPDEST SWAP1 POP SWAP2 SWAP1 POP JUMP JUMPDEST PUSH1 0x0 DUP1 PUSH20 0xFFFFFFFFFFFFFFFFFFFFFFFFFFFFFFFFFFFFFFFF AND DUP3 PUSH20 0xFFFFFFFFFFFFFFFFFFFFFFFFFFFFFFFFFFFFFFFF AND SUB PUSH2 0xB5E JUMPI PUSH1 0x0 PUSH1 0x40 MLOAD PUSH32 0x89C62B6400000000000000000000000000000000000000000000000000000000 DUP2 MSTORE PUSH1 0x4 ADD PUSH2 0xB55 SWAP2 SWAP1 PUSH2 0x2693 JUMP JUMPDEST PUSH1 0x40 MLOAD DUP1 SWAP2 SUB SWAP1 REVERT JUMPDEST PUSH1 0x3 PUSH1 0x0 DUP4 PUSH20 0xFFFFFFFFFFFFFFFFFFFFFFFFFFFFFFFFFFFFFFFF AND PUSH20 0xFFFFFFFFFFFFFFFFFFFFFFFFFFFFFFFFFFFFFFFF AND DUP2 MSTORE PUSH1 0x20 ADD SWAP1 DUP2 MSTORE PUSH1 0x20 ADD PUSH1 0x0 KECCAK256 SLOAD SWAP1 POP SWAP2 SWAP1 POP JUMP JUMPDEST PUSH2 0xBAD PUSH2 0x187D JUMP JUMPDEST PUSH2 0xBB7 PUSH1 0x0 PUSH2 0x1904 JUMP JUMPDEST JUMP JUMPDEST PUSH1 0xA PUSH1 0x1 PUSH1 0xA DUP1 SLOAD SWAP1 POP PUSH2 0xBCD SWAP2 SWAP1 PUSH2 0x30D1 JUMP JUMPDEST GT ISZERO PUSH2 0xC0E JUMPI PUSH1 0x40 MLOAD PUSH32 0x8C379A000000000000000000000000000000000000000000000000000000000 DUP2 MSTORE PUSH1 0x4 ADD PUSH2 0xC05 SWAP1 PUSH2 0x3151 JUMP JUMPDEST PUSH1 0x40 MLOAD DUP1 SWAP2 SUB SWAP1 REVERT JUMPDEST PUSH7 0x470DE4DF820000 CALLVALUE EQ PUSH2 0xC57 JUMPI PUSH1 0x40 MLOAD PUSH32 0x8C379A000000000000000000000000000000000000000000000000000000000 DUP2 MSTORE PUSH1 0x4 ADD PUSH2 0xC4E SWAP1 PUSH2 0x31BD JUMP JUMPDEST PUSH1 0x40 MLOAD DUP1 SWAP2 SUB SWAP1 REVERT JUMPDEST PUSH1 0x8 DUP1 SLOAD SWAP1 PUSH2 0x100 EXP SWAP1 DIV PUSH20 0xFFFFFFFFFFFFFFFFFFFFFFFFFFFFFFFFFFFFFFFF AND PUSH20 0xFFFFFFFFFFFFFFFFFFFFFFFFFFFFFFFFFFFFFFFF AND PUSH4 0x5D3B1D30 PUSH1 0x9 SLOAD PUSH1 0x8 PUSH1 0x0 SWAP1 SLOAD SWAP1 PUSH2 0x100 EXP SWAP1 DIV PUSH8 0xFFFFFFFFFFFFFFFF AND PUSH1 0x3 PUSH3 0xF4240 PUSH1 0x1 PUSH1 0x40 MLOAD DUP7 PUSH4 0xFFFFFFFF AND PUSH1 0xE0 SHL DUP2 MSTORE PUSH1 0x4 ADD PUSH2 0xCD5 SWAP6 SWAP5 SWAP4 SWAP3 SWAP2 SWAP1 PUSH2 0x32F2 JUMP JUMPDEST PUSH1 0x20 PUSH1 0x40 MLOAD DUP1 DUP4 SUB DUP2 PUSH1 0x0 DUP8 GAS CALL ISZERO DUP1 ISZERO PUSH2 0xCF4 JUMPI RETURNDATASIZE PUSH1 0x0 DUP1 RETURNDATACOPY RETURNDATASIZE PUSH1 0x0 REVERT JUMPDEST POP POP POP POP PUSH1 0x40 MLOAD RETURNDATASIZE PUSH1 0x1F NOT PUSH1 0x1F DUP3 ADD AND DUP3 ADD DUP1 PUSH1 0x40 MSTORE POP DUP2 ADD SWAP1 PUSH2 0xD18 SWAP2 SWAP1 PUSH2 0x335A JUMP JUMPDEST PUSH1 0x7 DUP2 SWAP1 SSTORE POP DUP1 PUSH1 0xB PUSH1 0x0 PUSH1 0x7 SLOAD DUP2 MSTORE PUSH1 0x20 ADD SWAP1 DUP2 MSTORE PUSH1 0x20 ADD PUSH1 0x0 KECCAK256 SWAP1 DUP2 PUSH2 0xD40 SWAP2 SWAP1 PUSH2 0x3529 JUMP JUMPDEST POP CALLER PUSH1 0xC PUSH1 0x0 PUSH1 0x7 SLOAD DUP2 MSTORE PUSH1 0x20 ADD SWAP1 DUP2 MSTORE PUSH1 0x20 ADD PUSH1 0x0 KECCAK256 PUSH1 0x0 PUSH2 0x100 EXP DUP2 SLOAD DUP2 PUSH20 0xFFFFFFFFFFFFFFFFFFFFFFFFFFFFFFFFFFFFFFFF MUL NOT AND SWAP1 DUP4 PUSH20 0xFFFFFFFFFFFFFFFFFFFFFFFFFFFFFFFFFFFFFFFF AND MUL OR SWAP1 SSTORE POP PUSH1 0x7 SLOAD PUSH32 0xABF2752A6127CBDD0F00DB692417576A44C8A095C3E156BCE8AF96E92BE55060 DUP3 PUSH1 0x40 MLOAD PUSH2 0xDC7 SWAP2 SWAP1 PUSH2 0x25CD JUMP JUMPDEST PUSH1 0x40 MLOAD DUP1 SWAP2 SUB SWAP1 LOG2 POP JUMP JUMPDEST PUSH1 0x0 PUSH1 0x6 PUSH1 0x0 SWAP1 SLOAD SWAP1 PUSH2 0x100 EXP SWAP1 DIV PUSH20 0xFFFFFFFFFFFFFFFFFFFFFFFFFFFFFFFFFFFFFFFF AND SWAP1 POP SWAP1 JUMP JUMPDEST PUSH1 0xA DUP2 DUP2 SLOAD DUP2 LT PUSH2 0xE0C JUMPI PUSH1 0x0 DUP1 REVERT JUMPDEST SWAP1 PUSH1 0x0 MSTORE PUSH1 0x20 PUSH1 0x0 KECCAK256 SWAP1 PUSH1 0x5 MUL ADD PUSH1 0x0 SWAP2 POP SWAP1 POP DUP1 PUSH1 0x0 ADD DUP1 SLOAD PUSH2 0xE2F SWAP1 PUSH2 0x2F0A JUMP JUMPDEST DUP1 PUSH1 0x1F ADD PUSH1 0x20 DUP1 SWAP2 DIV MUL PUSH1 0x20 ADD PUSH1 0x40 MLOAD SWAP1 DUP2 ADD PUSH1 0x40 MSTORE DUP1 SWAP3 SWAP2 SWAP1 DUP2 DUP2 MSTORE PUSH1 0x20 ADD DUP3 DUP1 SLOAD PUSH2 0xE5B SWAP1 PUSH2 0x2F0A JUMP JUMPDEST DUP1 ISZERO PUSH2 0xEA8 JUMPI DUP1 PUSH1 0x1F LT PUSH2 0xE7D JUMPI PUSH2 0x100 DUP1 DUP4 SLOAD DIV MUL DUP4 MSTORE SWAP2 PUSH1 0x20 ADD SWAP2 PUSH2 0xEA8 JUMP JUMPDEST DUP3 ADD SWAP2 SWAP1 PUSH1 0x0 MSTORE PUSH1 0x20 PUSH1 0x0 KECCAK256 SWAP1 JUMPDEST DUP2 SLOAD DUP2 MSTORE SWAP1 PUSH1 0x1 ADD SWAP1 PUSH1 0x20 ADD DUP1 DUP4 GT PUSH2 0xE8B JUMPI DUP3 SWAP1 SUB PUSH1 0x1F AND DUP3 ADD SWAP2 JUMPDEST POP POP POP POP POP SWAP1 DUP1 PUSH1 0x1 ADD SLOAD SWAP1 DUP1 PUSH1 0x2 ADD SLOAD SWAP1 DUP1 PUSH1 0x3 ADD SLOAD SWAP1 DUP1 PUSH1 0x4 ADD SLOAD SWAP1 POP DUP6 JUMP JUMPDEST PUSH1 0x7 SLOAD DUP2 JUMP JUMPDEST PUSH1 0x60 PUSH1 0x1 DUP1 SLOAD PUSH2 0xEDF SWAP1 PUSH2 0x2F0A JUMP JUMPDEST DUP1 PUSH1 0x1F ADD PUSH1 0x20 DUP1 SWAP2 DIV MUL PUSH1 0x20 ADD PUSH1 0x40 MLOAD SWAP1 DUP2 ADD PUSH1 0x40 MSTORE DUP1 SWAP3 SWAP2 SWAP1 DUP2 DUP2 MSTORE PUSH1 0x20 ADD DUP3 DUP1 SLOAD PUSH2 0xF0B SWAP1 PUSH2 0x2F0A JUMP JUMPDEST DUP1 ISZERO PUSH2 0xF58 JUMPI DUP1 PUSH1 0x1F LT PUSH2 0xF2D JUMPI PUSH2 0x100 DUP1 DUP4 SLOAD DIV MUL DUP4 MSTORE SWAP2 PUSH1 0x20 ADD SWAP2 PUSH2 0xF58 JUMP JUMPDEST DUP3 ADD SWAP2 SWAP1 PUSH1 0x0 MSTORE PUSH1 0x20 PUSH1 0x0 KECCAK256 SWAP1 JUMPDEST DUP2 SLOAD DUP2 MSTORE SWAP1 PUSH1 0x1 ADD SWAP1 PUSH1 0x20 ADD DUP1 DUP4 GT PUSH2 0xF3B JUMPI DUP3 SWAP1 SUB PUSH1 0x1F AND DUP3 ADD SWAP2 JUMPDEST POP POP POP POP POP SWAP1 POP SWAP1 JUMP JUMPDEST PUSH2 0xF74 PUSH2 0xF6D PUSH2 0x1360 JUMP JUMPDEST DUP4 DUP4 PUSH2 0x19CA JUMP JUMPDEST POP POP JUMP JUMPDEST PUSH2 0xF83 DUP5 DUP5 DUP5 PUSH2 0x7D7 JUMP JUMPDEST PUSH2 0xF8F DUP5 DUP5 DUP5 DUP5 PUSH2 0x1B39 JUMP JUMPDEST POP POP POP POP JUMP JUMPDEST PUSH1 0x60 PUSH2 0xFA0 DUP3 PUSH2 0x129B JUMP JUMPDEST POP PUSH1 0x0 PUSH2 0xFAB PUSH2 0x1CF0 JUMP JUMPDEST SWAP1 POP PUSH1 0x0 DUP2 MLOAD GT PUSH2 0xFCB JUMPI PUSH1 0x40 MLOAD DUP1 PUSH1 0x20 ADD PUSH1 0x40 MSTORE DUP1 PUSH1 0x0 DUP2 MSTORE POP PUSH2 0xFF6 JUMP JUMPDEST DUP1 PUSH2 0xFD5 DUP5 PUSH2 0x1D07 JUMP JUMPDEST PUSH1 0x40 MLOAD PUSH1 0x20 ADD PUSH2 0xFE6 SWAP3 SWAP2 SWAP1 PUSH2 0x3637 JUMP JUMPDEST PUSH1 0x40 MLOAD PUSH1 0x20 DUP2 DUP4 SUB SUB DUP2 MSTORE SWAP1 PUSH1 0x40 MSTORE JUMPDEST SWAP2 POP POP SWAP2 SWAP1 POP JUMP JUMPDEST PUSH1 0x0 PUSH1 0x5 PUSH1 0x0 DUP5 PUSH20 0xFFFFFFFFFFFFFFFFFFFFFFFFFFFFFFFFFFFFFFFF AND PUSH20 0xFFFFFFFFFFFFFFFFFFFFFFFFFFFFFFFFFFFFFFFF AND DUP2 MSTORE PUSH1 0x20 ADD SWAP1 DUP2 MSTORE PUSH1 0x20 ADD PUSH1 0x0 KECCAK256 PUSH1 0x0 DUP4 PUSH20 0xFFFFFFFFFFFFFFFFFFFFFFFFFFFFFFFFFFFFFFFF AND PUSH20 0xFFFFFFFFFFFFFFFFFFFFFFFFFFFFFFFFFFFFFFFF AND DUP2 MSTORE PUSH1 0x20 ADD SWAP1 DUP2 MSTORE PUSH1 0x20 ADD PUSH1 0x0 KECCAK256 PUSH1 0x0 SWAP1 SLOAD SWAP1 PUSH2 0x100 EXP SWAP1 DIV PUSH1 0xFF AND SWAP1 POP SWAP3 SWAP2 POP POP JUMP JUMPDEST PUSH2 0x109A PUSH2 0x187D JUMP JUMPDEST PUSH1 0x0 PUSH20 0xFFFFFFFFFFFFFFFFFFFFFFFFFFFFFFFFFFFFFFFF AND DUP2 PUSH20 0xFFFFFFFFFFFFFFFFFFFFFFFFFFFFFFFFFFFFFFFF AND SUB PUSH2 0x110C JUMPI PUSH1 0x0 PUSH1 0x40 MLOAD PUSH32 0x1E4FBDF700000000000000000000000000000000000000000000000000000000 DUP2 MSTORE PUSH1 0x4 ADD PUSH2 0x1103 SWAP2 SWAP1 PUSH2 0x2693 JUMP JUMPDEST PUSH1 0x40 MLOAD DUP1 SWAP2 SUB SWAP1 REVERT JUMPDEST PUSH2 0x1115 DUP2 PUSH2 0x1904 JUMP JUMPDEST POP JUMP JUMPDEST PUSH1 0x60 PUSH1 0xA DUP1 SLOAD DUP1 PUSH1 0x20 MUL PUSH1 0x20 ADD PUSH1 0x40 MLOAD SWAP1 DUP2 ADD PUSH1 0x40 MSTORE DUP1 SWAP3 SWAP2 SWAP1 DUP2 DUP2 MSTORE PUSH1 0x20 ADD PUSH1 0x0 SWAP1 JUMPDEST DUP3 DUP3 LT ISZERO PUSH2 0x1228 JUMPI DUP4 DUP3 SWAP1 PUSH1 0x0 MSTORE PUSH1 0x20 PUSH1 0x0 KECCAK256 SWAP1 PUSH1 0x5 MUL ADD PUSH1 0x40 MLOAD DUP1 PUSH1 0xA0 ADD PUSH1 0x40 MSTORE SWAP1 DUP2 PUSH1 0x0 DUP3 ADD DUP1 SLOAD PUSH2 0x116F SWAP1 PUSH2 0x2F0A JUMP JUMPDEST DUP1 PUSH1 0x1F ADD PUSH1 0x20 DUP1 SWAP2 DIV MUL PUSH1 0x20 ADD PUSH1 0x40 MLOAD SWAP1 DUP2 ADD PUSH1 0x40 MSTORE DUP1 SWAP3 SWAP2 SWAP1 DUP2 DUP2 MSTORE PUSH1 0x20 ADD DUP3 DUP1 SLOAD PUSH2 0x119B SWAP1 PUSH2 0x2F0A JUMP JUMPDEST DUP1 ISZERO PUSH2 0x11E8 JUMPI DUP1 PUSH1 0x1F LT PUSH2 0x11BD JUMPI PUSH2 0x100 DUP1 DUP4 SLOAD DIV MUL DUP4 MSTORE SWAP2 PUSH1 0x20 ADD SWAP2 PUSH2 0x11E8 JUMP JUMPDEST DUP3 ADD SWAP2 SWAP1 PUSH1 0x0 MSTORE PUSH1 0x20 PUSH1 0x0 KECCAK256 SWAP1 JUMPDEST DUP2 SLOAD DUP2 MSTORE SWAP1 PUSH1 0x1 ADD SWAP1 PUSH1 0x20 ADD DUP1 DUP4 GT PUSH2 0x11CB JUMPI DUP3 SWAP1 SUB PUSH1 0x1F AND DUP3 ADD SWAP2 JUMPDEST POP POP POP POP POP DUP2 MSTORE PUSH1 0x20 ADD PUSH1 0x1 DUP3 ADD SLOAD DUP2 MSTORE PUSH1 0x20 ADD PUSH1 0x2 DUP3 ADD SLOAD DUP2 MSTORE PUSH1 0x20 ADD PUSH1 0x3 DUP3 ADD SLOAD DUP2 MSTORE PUSH1 0x20 ADD PUSH1 0x4 DUP3 ADD SLOAD DUP2 MSTORE POP POP DUP2 MSTORE PUSH1 0x20 ADD SWAP1 PUSH1 0x1 ADD SWAP1 PUSH2 0x113C JUMP JUMPDEST POP POP POP POP SWAP1 POP SWAP1 JUMP JUMPDEST PUSH1 0x0 PUSH32 0x1FFC9A700000000000000000000000000000000000000000000000000000000 PUSH28 0xFFFFFFFFFFFFFFFFFFFFFFFFFFFFFFFFFFFFFFFFFFFFFFFFFFFFFFFF NOT AND DUP3 PUSH28 0xFFFFFFFFFFFFFFFFFFFFFFFFFFFFFFFFFFFFFFFFFFFFFFFFFFFFFFFF NOT AND EQ SWAP1 POP SWAP2 SWAP1 POP JUMP JUMPDEST PUSH1 0x0 DUP1 PUSH2 0x12A7 DUP4 PUSH2 0x1DD5 JUMP JUMPDEST SWAP1 POP PUSH1 0x0 PUSH20 0xFFFFFFFFFFFFFFFFFFFFFFFFFFFFFFFFFFFFFFFF AND DUP2 PUSH20 0xFFFFFFFFFFFFFFFFFFFFFFFFFFFFFFFFFFFFFFFF AND SUB PUSH2 0x131A JUMPI DUP3 PUSH1 0x40 MLOAD PUSH32 0x7E27328900000000000000000000000000000000000000000000000000000000 DUP2 MSTORE PUSH1 0x4 ADD PUSH2 0x1311 SWAP2 SWAP1 PUSH2 0x2A3E JUMP JUMPDEST PUSH1 0x40 MLOAD DUP1 SWAP2 SUB SWAP1 REVERT JUMPDEST DUP1 SWAP2 POP POP SWAP2 SWAP1 POP JUMP JUMPDEST PUSH1 0x0 PUSH1 0x4 PUSH1 0x0 DUP4 DUP2 MSTORE PUSH1 0x20 ADD SWAP1 DUP2 MSTORE PUSH1 0x20 ADD PUSH1 0x0 KECCAK256 PUSH1 0x0 SWAP1 SLOAD SWAP1 PUSH2 0x100 EXP SWAP1 DIV PUSH20 0xFFFFFFFFFFFFFFFFFFFFFFFFFFFFFFFFFFFFFFFF AND SWAP1 POP SWAP2 SWAP1 POP JUMP JUMPDEST PUSH1 0x0 CALLER SWAP1 POP SWAP1 JUMP JUMPDEST PUSH2 0x1375 DUP4 DUP4 DUP4 PUSH1 0x1 PUSH2 0x1E12 JUMP JUMPDEST POP POP POP JUMP JUMPDEST PUSH1 0x0 DUP2 PUSH1 0x0 DUP2 MLOAD DUP2 LT PUSH2 0x1390 JUMPI PUSH2 0x138F PUSH2 0x3073 JUMP JUMPDEST JUMPDEST PUSH1 0x20 MUL PUSH1 0x20 ADD ADD MLOAD SWAP1 POP PUSH1 0x0 PUSH1 0xA DUP1 SLOAD SWAP1 POP SWAP1 POP PUSH1 0x0 PUSH1 0x64 DUP4 PUSH2 0x13B3 SWAP2 SWAP1 PUSH2 0x368A JUMP JUMPDEST SWAP1 POP PUSH1 0x0 PUSH1 0x64 PUSH2 0x2710 DUP6 PUSH2 0x13C7 SWAP2 SWAP1 PUSH2 0x368A JUMP JUMPDEST PUSH2 0x13D1 SWAP2 SWAP1 PUSH2 0x36BB JUMP JUMPDEST SWAP1 POP PUSH1 0x0 PUSH2 0x3E8 PUSH2 0x2710 DUP7 PUSH2 0x13E6 SWAP2 SWAP1 PUSH2 0x368A JUMP JUMPDEST PUSH2 0x13F0 SWAP2 SWAP1 PUSH2 0x36BB JUMP JUMPDEST SWAP1 POP PUSH1 0x0 PUSH2 0x2710 PUSH3 0x186A0 DUP8 PUSH2 0x1406 SWAP2 SWAP1 PUSH2 0x368A JUMP JUMPDEST PUSH2 0x1410 SWAP2 SWAP1 PUSH2 0x36BB JUMP JUMPDEST SWAP1 POP PUSH1 0x0 PUSH1 0x40 MLOAD DUP1 PUSH1 0xA0 ADD PUSH1 0x40 MSTORE DUP1 PUSH1 0xB PUSH1 0x0 DUP13 DUP2 MSTORE PUSH1 0x20 ADD SWAP1 DUP2 MSTORE PUSH1 0x20 ADD PUSH1 0x0 KECCAK256 DUP1 SLOAD PUSH2 0x143D SWAP1 PUSH2 0x2F0A JUMP JUMPDEST DUP1 PUSH1 0x1F ADD PUSH1 0x20 DUP1 SWAP2 DIV MUL PUSH1 0x20 ADD PUSH1 0x40 MLOAD SWAP1 DUP2 ADD PUSH1 0x40 MSTORE DUP1 SWAP3 SWAP2 SWAP1 DUP2 DUP2 MSTORE PUSH1 0x20 ADD DUP3 DUP1 SLOAD PUSH2 0x1469 SWAP1 PUSH2 0x2F0A JUMP JUMPDEST DUP1 ISZERO PUSH2 0x14B6 JUMPI DUP1 PUSH1 0x1F LT PUSH2 0x148B JUMPI PUSH2 0x100 DUP1 DUP4 SLOAD DIV MUL DUP4 MSTORE SWAP2 PUSH1 0x20 ADD SWAP2 PUSH2 0x14B6 JUMP JUMPDEST DUP3 ADD SWAP2 SWAP1 PUSH1 0x0 MSTORE PUSH1 0x20 PUSH1 0x0 KECCAK256 SWAP1 JUMPDEST DUP2 SLOAD DUP2 MSTORE SWAP1 PUSH1 0x1 ADD SWAP1 PUSH1 0x20 ADD DUP1 DUP4 GT PUSH2 0x1499 JUMPI DUP3 SWAP1 SUB PUSH1 0x1F AND DUP3 ADD SWAP2 JUMPDEST POP POP POP POP POP DUP2 MSTORE PUSH1 0x20 ADD DUP7 DUP2 MSTORE PUSH1 0x20 ADD DUP6 DUP2 MSTORE PUSH1 0x20 ADD DUP5 DUP2 MSTORE PUSH1 0x20 ADD DUP4 DUP2 MSTORE POP SWAP1 POP PUSH1 0xA DUP2 SWAP1 DUP1 PUSH1 0x1 DUP2 SLOAD ADD DUP1 DUP3 SSTORE DUP1 SWAP2 POP POP PUSH1 0x1 SWAP1 SUB SWAP1 PUSH1 0x0 MSTORE PUSH1 0x20 PUSH1 0x0 KECCAK256 SWAP1 PUSH1 0x5 MUL ADD PUSH1 0x0 SWAP1 SWAP2 SWAP1 SWAP2 SWAP1 SWAP2 POP PUSH1 0x0 DUP3 ADD MLOAD DUP2 PUSH1 0x0 ADD SWAP1 DUP2 PUSH2 0x1519 SWAP2 SWAP1 PUSH2 0x3529 JUMP JUMPDEST POP PUSH1 0x20 DUP3 ADD MLOAD DUP2 PUSH1 0x1 ADD SSTORE PUSH1 0x40 DUP3 ADD MLOAD DUP2 PUSH1 0x2 ADD SSTORE PUSH1 0x60 DUP3 ADD MLOAD DUP2 PUSH1 0x3 ADD SSTORE PUSH1 0x80 DUP3 ADD MLOAD DUP2 PUSH1 0x4 ADD SSTORE POP POP PUSH2 0x1581 PUSH1 0xC PUSH1 0x0 DUP12 DUP2 MSTORE PUSH1 0x20 ADD SWAP1 DUP2 MSTORE PUSH1 0x20 ADD PUSH1 0x0 KECCAK256 PUSH1 0x0 SWAP1 SLOAD SWAP1 PUSH2 0x100 EXP SWAP1 DIV PUSH20 0xFFFFFFFFFFFFFFFFFFFFFFFFFFFFFFFFFFFFFFFF AND DUP8 PUSH2 0x1FD7 JUMP JUMPDEST PUSH1 0xB PUSH1 0x0 DUP11 DUP2 MSTORE PUSH1 0x20 ADD SWAP1 DUP2 MSTORE PUSH1 0x20 ADD PUSH1 0x0 KECCAK256 PUSH1 0x0 PUSH2 0x15A0 SWAP2 SWAP1 PUSH2 0x2411 JUMP JUMPDEST PUSH1 0xC PUSH1 0x0 DUP11 DUP2 MSTORE PUSH1 0x20 ADD SWAP1 DUP2 MSTORE PUSH1 0x20 ADD PUSH1 0x0 KECCAK256 PUSH1 0x0 PUSH2 0x100 EXP DUP2 SLOAD SWAP1 PUSH20 0xFFFFFFFFFFFFFFFFFFFFFFFFFFFFFFFFFFFFFFFF MUL NOT AND SWAP1 SSTORE PUSH1 0xC PUSH1 0x0 DUP11 DUP2 MSTORE PUSH1 0x20 ADD SWAP1 DUP2 MSTORE PUSH1 0x20 ADD PUSH1 0x0 KECCAK256 PUSH1 0x0 SWAP1 SLOAD SWAP1 PUSH2 0x100 EXP SWAP1 DIV PUSH20 0xFFFFFFFFFFFFFFFFFFFFFFFFFFFFFFFFFFFFFFFF AND PUSH20 0xFFFFFFFFFFFFFFFFFFFFFFFFFFFFFFFFFFFFFFFF AND DUP7 PUSH32 0xE342CB0B27387DCA1FCAE7DF1759D5949E087F71837090EB91986A3095E5BF4F DUP4 PUSH1 0x40 MLOAD PUSH2 0x1650 SWAP2 SWAP1 PUSH2 0x29E0 JUMP JUMPDEST PUSH1 0x40 MLOAD DUP1 SWAP2 SUB SWAP1 LOG3 POP POP POP POP POP POP POP POP POP JUMP JUMPDEST PUSH1 0x0 DUP1 PUSH2 0x166F DUP5 PUSH2 0x1DD5 JUMP JUMPDEST SWAP1 POP PUSH1 0x0 PUSH20 0xFFFFFFFFFFFFFFFFFFFFFFFFFFFFFFFFFFFFFFFF AND DUP4 PUSH20 0xFFFFFFFFFFFFFFFFFFFFFFFFFFFFFFFFFFFFFFFF AND EQ PUSH2 0x16B1 JUMPI PUSH2 0x16B0 DUP2 DUP5 DUP7 PUSH2 0x1FF5 JUMP JUMPDEST JUMPDEST PUSH1 0x0 PUSH20 0xFFFFFFFFFFFFFFFFFFFFFFFFFFFFFFFFFFFFFFFF AND DUP2 PUSH20 0xFFFFFFFFFFFFFFFFFFFFFFFFFFFFFFFFFFFFFFFF AND EQ PUSH2 0x1742 JUMPI PUSH2 0x16F3 PUSH1 0x0 DUP6 PUSH1 0x0 DUP1 PUSH2 0x1E12 JUMP JUMPDEST PUSH1 0x1 PUSH1 0x3 PUSH1 0x0 DUP4 PUSH20 0xFFFFFFFFFFFFFFFFFFFFFFFFFFFFFFFFFFFFFFFF AND PUSH20 0xFFFFFFFFFFFFFFFFFFFFFFFFFFFFFFFFFFFFFFFF AND DUP2 MSTORE PUSH1 0x20 ADD SWAP1 DUP2 MSTORE PUSH1 0x20 ADD PUSH1 0x0 KECCAK256 PUSH1 0x0 DUP3 DUP3 SLOAD SUB SWAP3 POP POP DUP2 SWAP1 SSTORE POP JUMPDEST PUSH1 0x0 PUSH20 0xFFFFFFFFFFFFFFFFFFFFFFFFFFFFFFFFFFFFFFFF AND DUP6 PUSH20 0xFFFFFFFFFFFFFFFFFFFFFFFFFFFFFFFFFFFFFFFF AND EQ PUSH2 0x17C5 JUMPI PUSH1 0x1 PUSH1 0x3 PUSH1 0x0 DUP8 PUSH20 0xFFFFFFFFFFFFFFFFFFFFFFFFFFFFFFFFFFFFFFFF AND PUSH20 0xFFFFFFFFFFFFFFFFFFFFFFFFFFFFFFFFFFFFFFFF AND DUP2 MSTORE PUSH1 0x20 ADD SWAP1 DUP2 MSTORE PUSH1 0x20 ADD PUSH1 0x0 KECCAK256 PUSH1 0x0 DUP3 DUP3 SLOAD ADD SWAP3 POP POP DUP2 SWAP1 SSTORE POP JUMPDEST DUP5 PUSH1 0x2 PUSH1 0x0 DUP7 DUP2 MSTORE PUSH1 0x20 ADD SWAP1 DUP2 MSTORE PUSH1 0x20 ADD PUSH1 0x0 KECCAK256 PUSH1 0x0 PUSH2 0x100 EXP DUP2 SLOAD DUP2 PUSH20 0xFFFFFFFFFFFFFFFFFFFFFFFFFFFFFFFFFFFFFFFF MUL NOT AND SWAP1 DUP4 PUSH20 0xFFFFFFFFFFFFFFFFFFFFFFFFFFFFFFFFFFFFFFFF AND MUL OR SWAP1 SSTORE POP DUP4 DUP6 PUSH20 0xFFFFFFFFFFFFFFFFFFFFFFFFFFFFFFFFFFFFFFFF AND DUP3 PUSH20 0xFFFFFFFFFFFFFFFFFFFFFFFFFFFFFFFFFFFFFFFF AND PUSH32 0xDDF252AD1BE2C89B69C2B068FC378DAA952BA7F163C4A11628F55A4DF523B3EF PUSH1 0x40 MLOAD PUSH1 0x40 MLOAD DUP1 SWAP2 SUB SWAP1 LOG4 DUP1 SWAP2 POP POP SWAP4 SWAP3 POP POP POP JUMP JUMPDEST PUSH2 0x1885 PUSH2 0x1360 JUMP JUMPDEST PUSH20 0xFFFFFFFFFFFFFFFFFFFFFFFFFFFFFFFFFFFFFFFF AND PUSH2 0x18A3 PUSH2 0xDD2 JUMP JUMPDEST PUSH20 0xFFFFFFFFFFFFFFFFFFFFFFFFFFFFFFFFFFFFFFFF AND EQ PUSH2 0x1902 JUMPI PUSH2 0x18C6 PUSH2 0x1360 JUMP JUMPDEST PUSH1 0x40 MLOAD PUSH32 0x118CDAA700000000000000000000000000000000000000000000000000000000 DUP2 MSTORE PUSH1 0x4 ADD PUSH2 0x18F9 SWAP2 SWAP1 PUSH2 0x2693 JUMP JUMPDEST PUSH1 0x40 MLOAD DUP1 SWAP2 SUB SWAP1 REVERT JUMPDEST JUMP JUMPDEST PUSH1 0x0 PUSH1 0x6 PUSH1 0x0 SWAP1 SLOAD SWAP1 PUSH2 0x100 EXP SWAP1 DIV PUSH20 0xFFFFFFFFFFFFFFFFFFFFFFFFFFFFFFFFFFFFFFFF AND SWAP1 POP DUP2 PUSH1 0x6 PUSH1 0x0 PUSH2 0x100 EXP DUP2 SLOAD DUP2 PUSH20 0xFFFFFFFFFFFFFFFFFFFFFFFFFFFFFFFFFFFFFFFF MUL NOT AND SWAP1 DUP4 PUSH20 0xFFFFFFFFFFFFFFFFFFFFFFFFFFFFFFFFFFFFFFFF AND MUL OR SWAP1 SSTORE POP DUP2 PUSH20 0xFFFFFFFFFFFFFFFFFFFFFFFFFFFFFFFFFFFFFFFF AND DUP2 PUSH20 0xFFFFFFFFFFFFFFFFFFFFFFFFFFFFFFFFFFFFFFFF AND PUSH32 0x8BE0079C531659141344CD1FD0A4F28419497F9722A3DAAFE3B4186F6B6457E0 PUSH1 0x40 MLOAD PUSH1 0x40 MLOAD DUP1 SWAP2 SUB SWAP1 LOG3 POP POP JUMP JUMPDEST PUSH1 0x0 PUSH20 0xFFFFFFFFFFFFFFFFFFFFFFFFFFFFFFFFFFFFFFFF AND DUP3 PUSH20 0xFFFFFFFFFFFFFFFFFFFFFFFFFFFFFFFFFFFFFFFF AND SUB PUSH2 0x1A3B JUMPI DUP2 PUSH1 0x40 MLOAD PUSH32 0x5B08BA1800000000000000000000000000000000000000000000000000000000 DUP2 MSTORE PUSH1 0x4 ADD PUSH2 0x1A32 SWAP2 SWAP1 PUSH2 0x2693 JUMP JUMPDEST PUSH1 0x40 MLOAD DUP1 SWAP2 SUB SWAP1 REVERT JUMPDEST DUP1 PUSH1 0x5 PUSH1 0x0 DUP6 PUSH20 0xFFFFFFFFFFFFFFFFFFFFFFFFFFFFFFFFFFFFFFFF AND PUSH20 0xFFFFFFFFFFFFFFFFFFFFFFFFFFFFFFFFFFFFFFFF AND DUP2 MSTORE PUSH1 0x20 ADD SWAP1 DUP2 MSTORE PUSH1 0x20 ADD PUSH1 0x0 KECCAK256 PUSH1 0x0 DUP5 PUSH20 0xFFFFFFFFFFFFFFFFFFFFFFFFFFFFFFFFFFFFFFFF AND PUSH20 0xFFFFFFFFFFFFFFFFFFFFFFFFFFFFFFFFFFFFFFFF AND DUP2 MSTORE PUSH1 0x20 ADD SWAP1 DUP2 MSTORE PUSH1 0x20 ADD PUSH1 0x0 KECCAK256 PUSH1 0x0 PUSH2 0x100 EXP DUP2 SLOAD DUP2 PUSH1 0xFF MUL NOT AND SWAP1 DUP4 ISZERO ISZERO MUL OR SWAP1 SSTORE POP DUP2 PUSH20 0xFFFFFFFFFFFFFFFFFFFFFFFFFFFFFFFFFFFFFFFF AND DUP4 PUSH20 0xFFFFFFFFFFFFFFFFFFFFFFFFFFFFFFFFFFFFFFFF AND PUSH32 0x17307EAB39AB6107E8899845AD3D59BD9653F200F220920489CA2B5937696C31 DUP4 PUSH1 0x40 MLOAD PUSH2 0x1B2C SWAP2 SWAP1 PUSH2 0x2522 JUMP JUMPDEST PUSH1 0x40 MLOAD DUP1 SWAP2 SUB SWAP1 LOG3 POP POP POP JUMP JUMPDEST PUSH1 0x0 DUP4 PUSH20 0xFFFFFFFFFFFFFFFFFFFFFFFFFFFFFFFFFFFFFFFF AND EXTCODESIZE GT ISZERO PUSH2 0x1CEA JUMPI DUP3 PUSH20 0xFFFFFFFFFFFFFFFFFFFFFFFFFFFFFFFFFFFFFFFF AND PUSH4 0x150B7A02 PUSH2 0x1B7D PUSH2 0x1360 JUMP JUMPDEST DUP7 DUP6 DUP6 PUSH1 0x40 MLOAD DUP6 PUSH4 0xFFFFFFFF AND PUSH1 0xE0 SHL DUP2 MSTORE PUSH1 0x4 ADD PUSH2 0x1B9F SWAP5 SWAP4 SWAP3 SWAP2 SWAP1 PUSH2 0x3741 JUMP JUMPDEST PUSH1 0x20 PUSH1 0x40 MLOAD DUP1 DUP4 SUB DUP2 PUSH1 0x0 DUP8 GAS CALL SWAP3 POP POP POP DUP1 ISZERO PUSH2 0x1BDB JUMPI POP PUSH1 0x40 MLOAD RETURNDATASIZE PUSH1 0x1F NOT PUSH1 0x1F DUP3 ADD AND DUP3 ADD DUP1 PUSH1 0x40 MSTORE POP DUP2 ADD SWAP1 PUSH2 0x1BD8 SWAP2 SWAP1 PUSH2 0x37A2 JUMP JUMPDEST PUSH1 0x1 JUMPDEST PUSH2 0x1C5F JUMPI RETURNDATASIZE DUP1 PUSH1 0x0 DUP2 EQ PUSH2 0x1C0B JUMPI PUSH1 0x40 MLOAD SWAP2 POP PUSH1 0x1F NOT PUSH1 0x3F RETURNDATASIZE ADD AND DUP3 ADD PUSH1 0x40 MSTORE RETURNDATASIZE DUP3 MSTORE RETURNDATASIZE PUSH1 0x0 PUSH1 0x20 DUP5 ADD RETURNDATACOPY PUSH2 0x1C10 JUMP JUMPDEST PUSH1 0x60 SWAP2 POP JUMPDEST POP PUSH1 0x0 DUP2 MLOAD SUB PUSH2 0x1C57 JUMPI DUP4 PUSH1 0x40 MLOAD PUSH32 0x64A0AE9200000000000000000000000000000000000000000000000000000000 DUP2 MSTORE PUSH1 0x4 ADD PUSH2 0x1C4E SWAP2 SWAP1 PUSH2 0x2693 JUMP JUMPDEST PUSH1 0x40 MLOAD DUP1 SWAP2 SUB SWAP1 REVERT JUMPDEST DUP1 MLOAD DUP2 PUSH1 0x20 ADD REVERT JUMPDEST PUSH4 0x150B7A02 PUSH1 0xE0 SHL PUSH28 0xFFFFFFFFFFFFFFFFFFFFFFFFFFFFFFFFFFFFFFFFFFFFFFFFFFFFFFFF NOT AND DUP2 PUSH28 0xFFFFFFFFFFFFFFFFFFFFFFFFFFFFFFFFFFFFFFFFFFFFFFFFFFFFFFFF NOT AND EQ PUSH2 0x1CE8 JUMPI DUP4 PUSH1 0x40 MLOAD PUSH32 0x64A0AE9200000000000000000000000000000000000000000000000000000000 DUP2 MSTORE PUSH1 0x4 ADD PUSH2 0x1CDF SWAP2 SWAP1 PUSH2 0x2693 JUMP JUMPDEST PUSH1 0x40 MLOAD DUP1 SWAP2 SUB SWAP1 REVERT JUMPDEST POP JUMPDEST POP POP POP POP JUMP JUMPDEST PUSH1 0x60 PUSH1 0x40 MLOAD DUP1 PUSH1 0x20 ADD PUSH1 0x40 MSTORE DUP1 PUSH1 0x0 DUP2 MSTORE POP SWAP1 POP SWAP1 JUMP JUMPDEST PUSH1 0x60 PUSH1 0x0 PUSH1 0x1 PUSH2 0x1D16 DUP5 PUSH2 0x20B9 JUMP JUMPDEST ADD SWAP1 POP PUSH1 0x0 DUP2 PUSH8 0xFFFFFFFFFFFFFFFF DUP2 GT ISZERO PUSH2 0x1D35 JUMPI PUSH2 0x1D34 PUSH2 0x271F JUMP JUMPDEST JUMPDEST PUSH1 0x40 MLOAD SWAP1 DUP1 DUP3 MSTORE DUP1 PUSH1 0x1F ADD PUSH1 0x1F NOT AND PUSH1 0x20 ADD DUP3 ADD PUSH1 0x40 MSTORE DUP1 ISZERO PUSH2 0x1D67 JUMPI DUP2 PUSH1 0x20 ADD PUSH1 0x1 DUP3 MUL DUP1 CALLDATASIZE DUP4 CALLDATACOPY DUP1 DUP3 ADD SWAP2 POP POP SWAP1 POP JUMPDEST POP SWAP1 POP PUSH1 0x0 DUP3 PUSH1 0x20 ADD DUP3 ADD SWAP1 POP JUMPDEST PUSH1 0x1 ISZERO PUSH2 0x1DCA JUMPI DUP1 DUP1 PUSH1 0x1 SWAP1 SUB SWAP2 POP POP PUSH32 0x3031323334353637383961626364656600000000000000000000000000000000 PUSH1 0xA DUP7 MOD BYTE DUP2 MSTORE8 PUSH1 0xA DUP6 DUP2 PUSH2 0x1DBE JUMPI PUSH2 0x1DBD PUSH2 0x365B JUMP JUMPDEST JUMPDEST DIV SWAP5 POP PUSH1 0x0 DUP6 SUB PUSH2 0x1D75 JUMPI JUMPDEST DUP2 SWAP4 POP POP POP POP SWAP2 SWAP1 POP JUMP JUMPDEST PUSH1 0x0 PUSH1 0x2 PUSH1 0x0 DUP4 DUP2 MSTORE PUSH1 0x20 ADD SWAP1 DUP2 MSTORE PUSH1 0x20 ADD PUSH1 0x0 KECCAK256 PUSH1 0x0 SWAP1 SLOAD SWAP1 PUSH2 0x100 EXP SWAP1 DIV PUSH20 0xFFFFFFFFFFFFFFFFFFFFFFFFFFFFFFFFFFFFFFFF AND SWAP1 POP SWAP2 SWAP1 POP JUMP JUMPDEST DUP1 DUP1 PUSH2 0x1E4B JUMPI POP PUSH1 0x0 PUSH20 0xFFFFFFFFFFFFFFFFFFFFFFFFFFFFFFFFFFFFFFFF AND DUP3 PUSH20 0xFFFFFFFFFFFFFFFFFFFFFFFFFFFFFFFFFFFFFFFF AND EQ ISZERO JUMPDEST ISZERO PUSH2 0x1F7F JUMPI PUSH1 0x0 PUSH2 0x1E5B DUP5 PUSH2 0x129B JUMP JUMPDEST SWAP1 POP PUSH1 0x0 PUSH20 0xFFFFFFFFFFFFFFFFFFFFFFFFFFFFFFFFFFFFFFFF AND DUP4 PUSH20 0xFFFFFFFFFFFFFFFFFFFFFFFFFFFFFFFFFFFFFFFF AND EQ ISZERO DUP1 ISZERO PUSH2 0x1EC6 JUMPI POP DUP3 PUSH20 0xFFFFFFFFFFFFFFFFFFFFFFFFFFFFFFFFFFFFFFFF AND DUP2 PUSH20 0xFFFFFFFFFFFFFFFFFFFFFFFFFFFFFFFFFFFFFFFF AND EQ ISZERO JUMPDEST DUP1 ISZERO PUSH2 0x1ED9 JUMPI POP PUSH2 0x1ED7 DUP2 DUP5 PUSH2 0xFFE JUMP JUMPDEST ISZERO JUMPDEST ISZERO PUSH2 0x1F1B JUMPI DUP3 PUSH1 0x40 MLOAD PUSH32 0xA9FBF51F00000000000000000000000000000000000000000000000000000000 DUP2 MSTORE PUSH1 0x4 ADD PUSH2 0x1F12 SWAP2 SWAP1 PUSH2 0x2693 JUMP JUMPDEST PUSH1 0x40 MLOAD DUP1 SWAP2 SUB SWAP1 REVERT JUMPDEST DUP2 ISZERO PUSH2 0x1F7D JUMPI DUP4 DUP6 PUSH20 0xFFFFFFFFFFFFFFFFFFFFFFFFFFFFFFFFFFFFFFFF AND DUP3 PUSH20 0xFFFFFFFFFFFFFFFFFFFFFFFFFFFFFFFFFFFFFFFF AND PUSH32 0x8C5BE1E5EBEC7D5BD14F71427D1E84F3DD0314C0F7B2291E5B200AC8C7C3B925 PUSH1 0x40 MLOAD PUSH1 0x40 MLOAD DUP1 SWAP2 SUB SWAP1 LOG4 JUMPDEST POP JUMPDEST DUP4 PUSH1 0x4 PUSH1 0x0 DUP6 DUP2 MSTORE PUSH1 0x20 ADD SWAP1 DUP2 MSTORE PUSH1 0x20 ADD PUSH1 0x0 KECCAK256 PUSH1 0x0 PUSH2 0x100 EXP DUP2 SLOAD DUP2 PUSH20 0xFFFFFFFFFFFFFFFFFFFFFFFFFFFFFFFFFFFFFFFF MUL NOT AND SWAP1 DUP4 PUSH20 0xFFFFFFFFFFFFFFFFFFFFFFFFFFFFFFFFFFFFFFFF AND MUL OR SWAP1 SSTORE POP POP POP POP POP JUMP JUMPDEST PUSH2 0x1FF1 DUP3 DUP3 PUSH1 0x40 MLOAD DUP1 PUSH1 0x20 ADD PUSH1 0x40 MSTORE DUP1 PUSH1 0x0 DUP2 MSTORE POP PUSH2 0x220C JUMP JUMPDEST POP POP JUMP JUMPDEST PUSH2 0x2000 DUP4 DUP4 DUP4 PUSH2 0x2228 JUMP JUMPDEST PUSH2 0x20B4 JUMPI PUSH1 0x0 PUSH20 0xFFFFFFFFFFFFFFFFFFFFFFFFFFFFFFFFFFFFFFFF AND DUP4 PUSH20 0xFFFFFFFFFFFFFFFFFFFFFFFFFFFFFFFFFFFFFFFF AND SUB PUSH2 0x2075 JUMPI DUP1 PUSH1 0x40 MLOAD PUSH32 0x7E27328900000000000000000000000000000000000000000000000000000000 DUP2 MSTORE PUSH1 0x4 ADD PUSH2 0x206C SWAP2 SWAP1 PUSH2 0x2A3E JUMP JUMPDEST PUSH1 0x40 MLOAD DUP1 SWAP2 SUB SWAP1 REVERT JUMPDEST DUP2 DUP2 PUSH1 0x40 MLOAD PUSH32 0x177E802F00000000000000000000000000000000000000000000000000000000 DUP2 MSTORE PUSH1 0x4 ADD PUSH2 0x20AB SWAP3 SWAP2 SWAP1 PUSH2 0x37CF JUMP JUMPDEST PUSH1 0x40 MLOAD DUP1 SWAP2 SUB SWAP1 REVERT JUMPDEST POP POP POP JUMP JUMPDEST PUSH1 0x0 DUP1 PUSH1 0x0 SWAP1 POP PUSH27 0x184F03E93FF9F4DAA797ED6E38ED64BF6A1F010000000000000000 DUP4 LT PUSH2 0x2117 JUMPI PUSH27 0x184F03E93FF9F4DAA797ED6E38ED64BF6A1F010000000000000000 DUP4 DUP2 PUSH2 0x210D JUMPI PUSH2 0x210C PUSH2 0x365B JUMP JUMPDEST JUMPDEST DIV SWAP3 POP PUSH1 0x40 DUP2 ADD SWAP1 POP JUMPDEST PUSH14 0x4EE2D6D415B85ACEF8100000000 DUP4 LT PUSH2 0x2154 JUMPI PUSH14 0x4EE2D6D415B85ACEF8100000000 DUP4 DUP2 PUSH2 0x214A JUMPI PUSH2 0x2149 PUSH2 0x365B JUMP JUMPDEST JUMPDEST DIV SWAP3 POP PUSH1 0x20 DUP2 ADD SWAP1 POP JUMPDEST PUSH7 0x2386F26FC10000 DUP4 LT PUSH2 0x2183 JUMPI PUSH7 0x2386F26FC10000 DUP4 DUP2 PUSH2 0x2179 JUMPI PUSH2 0x2178 PUSH2 0x365B JUMP JUMPDEST JUMPDEST DIV SWAP3 POP PUSH1 0x10 DUP2 ADD SWAP1 POP JUMPDEST PUSH4 0x5F5E100 DUP4 LT PUSH2 0x21AC JUMPI PUSH4 0x5F5E100 DUP4 DUP2 PUSH2 0x21A2 JUMPI PUSH2 0x21A1 PUSH2 0x365B JUMP JUMPDEST JUMPDEST DIV SWAP3 POP PUSH1 0x8 DUP2 ADD SWAP1 POP JUMPDEST PUSH2 0x2710 DUP4 LT PUSH2 0x21D1 JUMPI PUSH2 0x2710 DUP4 DUP2 PUSH2 0x21C7 JUMPI PUSH2 0x21C6 PUSH2 0x365B JUMP JUMPDEST JUMPDEST DIV SWAP3 POP PUSH1 0x4 DUP2 ADD SWAP1 POP JUMPDEST PUSH1 0x64 DUP4 LT PUSH2 0x21F4 JUMPI PUSH1 0x64 DUP4 DUP2 PUSH2 0x21EA JUMPI PUSH2 0x21E9 PUSH2 0x365B JUMP JUMPDEST JUMPDEST DIV SWAP3 POP PUSH1 0x2 DUP2 ADD SWAP1 POP JUMPDEST PUSH1 0xA DUP4 LT PUSH2 0x2203 JUMPI PUSH1 0x1 DUP2 ADD SWAP1 POP JUMPDEST DUP1 SWAP2 POP POP SWAP2 SWAP1 POP JUMP JUMPDEST PUSH2 0x2216 DUP4 DUP4 PUSH2 0x22E9 JUMP JUMPDEST PUSH2 0x2223 PUSH1 0x0 DUP5 DUP5 DUP5 PUSH2 0x1B39 JUMP JUMPDEST POP POP POP JUMP JUMPDEST PUSH1 0x0 DUP1 PUSH20 0xFFFFFFFFFFFFFFFFFFFFFFFFFFFFFFFFFFFFFFFF AND DUP4 PUSH20 0xFFFFFFFFFFFFFFFFFFFFFFFFFFFFFFFFFFFFFFFF AND EQ ISZERO DUP1 ISZERO PUSH2 0x22E0 JUMPI POP DUP3 PUSH20 0xFFFFFFFFFFFFFFFFFFFFFFFFFFFFFFFFFFFFFFFF AND DUP5 PUSH20 0xFFFFFFFFFFFFFFFFFFFFFFFFFFFFFFFFFFFFFFFF AND EQ DUP1 PUSH2 0x22A1 JUMPI POP PUSH2 0x22A0 DUP5 DUP5 PUSH2 0xFFE JUMP JUMPDEST JUMPDEST DUP1 PUSH2 0x22DF JUMPI POP DUP3 PUSH20 0xFFFFFFFFFFFFFFFFFFFFFFFFFFFFFFFFFFFFFFFF AND PUSH2 0x22C7 DUP4 PUSH2 0x1323 JUMP JUMPDEST PUSH20 0xFFFFFFFFFFFFFFFFFFFFFFFFFFFFFFFFFFFFFFFF AND EQ JUMPDEST JUMPDEST SWAP1 POP SWAP4 SWAP3 POP POP POP JUMP JUMPDEST PUSH1 0x0 PUSH20 0xFFFFFFFFFFFFFFFFFFFFFFFFFFFFFFFFFFFFFFFF AND DUP3 PUSH20 0xFFFFFFFFFFFFFFFFFFFFFFFFFFFFFFFFFFFFFFFF AND SUB PUSH2 0x235B JUMPI PUSH1 0x0 PUSH1 0x40 MLOAD PUSH32 0x64A0AE9200000000000000000000000000000000000000000000000000000000 DUP2 MSTORE PUSH1 0x4 ADD PUSH2 0x2352 SWAP2 SWAP1 PUSH2 0x2693 JUMP JUMPDEST PUSH1 0x40 MLOAD DUP1 SWAP2 SUB SWAP1 REVERT JUMPDEST PUSH1 0x0 PUSH2 0x2369 DUP4 DUP4 PUSH1 0x0 PUSH2 0x1663 JUMP JUMPDEST SWAP1 POP PUSH1 0x0 PUSH20 0xFFFFFFFFFFFFFFFFFFFFFFFFFFFFFFFFFFFFFFFF AND DUP2 PUSH20 0xFFFFFFFFFFFFFFFFFFFFFFFFFFFFFFFFFFFFFFFF AND EQ PUSH2 0x23DD JUMPI PUSH1 0x0 PUSH1 0x40 MLOAD PUSH32 0x73C6AC6E00000000000000000000000000000000000000000000000000000000 DUP2 MSTORE PUSH1 0x4 ADD PUSH2 0x23D4 SWAP2 SWAP1 PUSH2 0x2693 JUMP JUMPDEST PUSH1 0x40 MLOAD DUP1 SWAP2 SUB SWAP1 REVERT JUMPDEST POP POP POP JUMP JUMPDEST PUSH1 0x40 MLOAD DUP1 PUSH1 0xA0 ADD PUSH1 0x40 MSTORE DUP1 PUSH1 0x60 DUP2 MSTORE PUSH1 0x20 ADD PUSH1 0x0 DUP2 MSTORE PUSH1 0x20 ADD PUSH1 0x0 DUP2 MSTORE PUSH1 0x20 ADD PUSH1 0x0 DUP2 MSTORE PUSH1 0x20 ADD PUSH1 0x0 DUP2 MSTORE POP SWAP1 JUMP JUMPDEST POP DUP1 SLOAD PUSH2 0x241D SWAP1 PUSH2 0x2F0A JUMP JUMPDEST PUSH1 0x0 DUP3 SSTORE DUP1 PUSH1 0x1F LT PUSH2 0x242F JUMPI POP PUSH2 0x244E JUMP JUMPDEST PUSH1 0x1F ADD PUSH1 0x20 SWAP1 DIV SWAP1 PUSH1 0x0 MSTORE PUSH1 0x20 PUSH1 0x0 KECCAK256 SWAP1 DUP2 ADD SWAP1 PUSH2 0x244D SWAP2 SWAP1 PUSH2 0x2451 JUMP JUMPDEST JUMPDEST POP JUMP JUMPDEST JUMPDEST DUP1 DUP3 GT ISZERO PUSH2 0x246A JUMPI PUSH1 0x0 DUP2 PUSH1 0x0 SWAP1 SSTORE POP PUSH1 0x1 ADD PUSH2 0x2452 JUMP JUMPDEST POP SWAP1 JUMP JUMPDEST PUSH1 0x0 PUSH1 0x40 MLOAD SWAP1 POP SWAP1 JUMP JUMPDEST PUSH1 0x0 DUP1 REVERT JUMPDEST PUSH1 0x0 DUP1 REVERT JUMPDEST PUSH1 0x0 PUSH32 0xFFFFFFFF00000000000000000000000000000000000000000000000000000000 DUP3 AND SWAP1 POP SWAP2 SWAP1 POP JUMP JUMPDEST PUSH2 0x24B7 DUP2 PUSH2 0x2482 JUMP JUMPDEST DUP2 EQ PUSH2 0x24C2 JUMPI PUSH1 0x0 DUP1 REVERT JUMPDEST POP JUMP JUMPDEST PUSH1 0x0 DUP2 CALLDATALOAD SWAP1 POP PUSH2 0x24D4 DUP2 PUSH2 0x24AE JUMP JUMPDEST SWAP3 SWAP2 POP POP JUMP JUMPDEST PUSH1 0x0 PUSH1 0x20 DUP3 DUP5 SUB SLT ISZERO PUSH2 0x24F0 JUMPI PUSH2 0x24EF PUSH2 0x2478 JUMP JUMPDEST JUMPDEST PUSH1 0x0 PUSH2 0x24FE DUP5 DUP3 DUP6 ADD PUSH2 0x24C5 JUMP JUMPDEST SWAP2 POP POP SWAP3 SWAP2 POP POP JUMP JUMPDEST PUSH1 0x0 DUP2 ISZERO ISZERO SWAP1 POP SWAP2 SWAP1 POP JUMP JUMPDEST PUSH2 0x251C DUP2 PUSH2 0x2507 JUMP JUMPDEST DUP3 MSTORE POP POP JUMP JUMPDEST PUSH1 0x0 PUSH1 0x20 DUP3 ADD SWAP1 POP PUSH2 0x2537 PUSH1 0x0 DUP4 ADD DUP5 PUSH2 0x2513 JUMP JUMPDEST SWAP3 SWAP2 POP POP JUMP JUMPDEST PUSH1 0x0 DUP2 MLOAD SWAP1 POP SWAP2 SWAP1 POP JUMP JUMPDEST PUSH1 0x0 DUP3 DUP3 MSTORE PUSH1 0x20 DUP3 ADD SWAP1 POP SWAP3 SWAP2 POP POP JUMP JUMPDEST PUSH1 0x0 JUMPDEST DUP4 DUP2 LT ISZERO PUSH2 0x2577 JUMPI DUP1 DUP3 ADD MLOAD DUP2 DUP5 ADD MSTORE PUSH1 0x20 DUP2 ADD SWAP1 POP PUSH2 0x255C JUMP JUMPDEST PUSH1 0x0 DUP5 DUP5 ADD MSTORE POP POP POP POP JUMP JUMPDEST PUSH1 0x0 PUSH1 0x1F NOT PUSH1 0x1F DUP4 ADD AND SWAP1 POP SWAP2 SWAP1 POP JUMP JUMPDEST PUSH1 0x0 PUSH2 0x259F DUP3 PUSH2 0x253D JUMP JUMPDEST PUSH2 0x25A9 DUP2 DUP6 PUSH2 0x2548 JUMP JUMPDEST SWAP4 POP PUSH2 0x25B9 DUP2 DUP6 PUSH1 0x20 DUP7 ADD PUSH2 0x2559 JUMP JUMPDEST PUSH2 0x25C2 DUP2 PUSH2 0x2583 JUMP JUMPDEST DUP5 ADD SWAP2 POP POP SWAP3 SWAP2 POP POP JUMP JUMPDEST PUSH1 0x0 PUSH1 0x20 DUP3 ADD SWAP1 POP DUP2 DUP2 SUB PUSH1 0x0 DUP4 ADD MSTORE PUSH2 0x25E7 DUP2 DUP5 PUSH2 0x2594 JUMP JUMPDEST SWAP1 POP SWAP3 SWAP2 POP POP JUMP JUMPDEST PUSH1 0x0 DUP2 SWAP1 POP SWAP2 SWAP1 POP JUMP JUMPDEST PUSH2 0x2602 DUP2 PUSH2 0x25EF JUMP JUMPDEST DUP2 EQ PUSH2 0x260D JUMPI PUSH1 0x0 DUP1 REVERT JUMPDEST POP JUMP JUMPDEST PUSH1 0x0 DUP2 CALLDATALOAD SWAP1 POP PUSH2 0x261F DUP2 PUSH2 0x25F9 JUMP JUMPDEST SWAP3 SWAP2 POP POP JUMP JUMPDEST PUSH1 0x0 PUSH1 0x20 DUP3 DUP5 SUB SLT ISZERO PUSH2 0x263B JUMPI PUSH2 0x263A PUSH2 0x2478 JUMP JUMPDEST JUMPDEST PUSH1 0x0 PUSH2 0x2649 DUP5 DUP3 DUP6 ADD PUSH2 0x2610 JUMP JUMPDEST SWAP2 POP POP SWAP3 SWAP2 POP POP JUMP JUMPDEST PUSH1 0x0 PUSH20 0xFFFFFFFFFFFFFFFFFFFFFFFFFFFFFFFFFFFFFFFF DUP3 AND SWAP1 POP SWAP2 SWAP1 POP JUMP JUMPDEST PUSH1 0x0 PUSH2 0x267D DUP3 PUSH2 0x2652 JUMP JUMPDEST SWAP1 POP SWAP2 SWAP1 POP JUMP JUMPDEST PUSH2 0x268D DUP2 PUSH2 0x2672 JUMP JUMPDEST DUP3 MSTORE POP POP JUMP JUMPDEST PUSH1 0x0 PUSH1 0x20 DUP3 ADD SWAP1 POP PUSH2 0x26A8 PUSH1 0x0 DUP4 ADD DUP5 PUSH2 0x2684 JUMP JUMPDEST SWAP3 SWAP2 POP POP JUMP JUMPDEST PUSH2 0x26B7 DUP2 PUSH2 0x2672 JUMP JUMPDEST DUP2 EQ PUSH2 0x26C2 JUMPI PUSH1 0x0 DUP1 REVERT JUMPDEST POP JUMP JUMPDEST PUSH1 0x0 DUP2 CALLDATALOAD SWAP1 POP PUSH2 0x26D4 DUP2 PUSH2 0x26AE JUMP JUMPDEST SWAP3 SWAP2 POP POP JUMP JUMPDEST PUSH1 0x0 DUP1 PUSH1 0x40 DUP4 DUP6 SUB SLT ISZERO PUSH2 0x26F1 JUMPI PUSH2 0x26F0 PUSH2 0x2478 JUMP JUMPDEST JUMPDEST PUSH1 0x0 PUSH2 0x26FF DUP6 DUP3 DUP7 ADD PUSH2 0x26C5 JUMP JUMPDEST SWAP3 POP POP PUSH1 0x20 PUSH2 0x2710 DUP6 DUP3 DUP7 ADD PUSH2 0x2610 JUMP JUMPDEST SWAP2 POP POP SWAP3 POP SWAP3 SWAP1 POP JUMP JUMPDEST PUSH1 0x0 DUP1 REVERT JUMPDEST PUSH32 0x4E487B7100000000000000000000000000000000000000000000000000000000 PUSH1 0x0 MSTORE PUSH1 0x41 PUSH1 0x4 MSTORE PUSH1 0x24 PUSH1 0x0 REVERT JUMPDEST PUSH2 0x2757 DUP3 PUSH2 0x2583 JUMP JUMPDEST DUP2 ADD DUP2 DUP2 LT PUSH8 0xFFFFFFFFFFFFFFFF DUP3 GT OR ISZERO PUSH2 0x2776 JUMPI PUSH2 0x2775 PUSH2 0x271F JUMP JUMPDEST JUMPDEST DUP1 PUSH1 0x40 MSTORE POP POP POP JUMP JUMPDEST PUSH1 0x0 PUSH2 0x2789 PUSH2 0x246E JUMP JUMPDEST SWAP1 POP PUSH2 0x2795 DUP3 DUP3 PUSH2 0x274E JUMP JUMPDEST SWAP2 SWAP1 POP JUMP JUMPDEST PUSH1 0x0 PUSH8 0xFFFFFFFFFFFFFFFF DUP3 GT ISZERO PUSH2 0x27B5 JUMPI PUSH2 0x27B4 PUSH2 0x271F JUMP JUMPDEST JUMPDEST PUSH1 0x20 DUP3 MUL SWAP1 POP PUSH1 0x20 DUP2 ADD SWAP1 POP SWAP2 SWAP1 POP JUMP JUMPDEST PUSH1 0x0 DUP1 REVERT JUMPDEST PUSH1 0x0 PUSH2 0x27DE PUSH2 0x27D9 DUP5 PUSH2 0x279A JUMP JUMPDEST PUSH2 0x277F JUMP JUMPDEST SWAP1 POP DUP1 DUP4 DUP3 MSTORE PUSH1 0x20 DUP3 ADD SWAP1 POP PUSH1 0x20 DUP5 MUL DUP4 ADD DUP6 DUP2 GT ISZERO PUSH2 0x2801 JUMPI PUSH2 0x2800 PUSH2 0x27C6 JUMP JUMPDEST JUMPDEST DUP4 JUMPDEST DUP2 DUP2 LT ISZERO PUSH2 0x282A JUMPI DUP1 PUSH2 0x2816 DUP9 DUP3 PUSH2 0x2610 JUMP JUMPDEST DUP5 MSTORE PUSH1 0x20 DUP5 ADD SWAP4 POP POP PUSH1 0x20 DUP2 ADD SWAP1 POP PUSH2 0x2803 JUMP JUMPDEST POP POP POP SWAP4 SWAP3 POP POP POP JUMP JUMPDEST PUSH1 0x0 DUP3 PUSH1 0x1F DUP4 ADD SLT PUSH2 0x2849 JUMPI PUSH2 0x2848 PUSH2 0x271A JUMP JUMPDEST JUMPDEST DUP2 CALLDATALOAD PUSH2 0x2859 DUP5 DUP3 PUSH1 0x20 DUP7 ADD PUSH2 0x27CB JUMP JUMPDEST SWAP2 POP POP SWAP3 SWAP2 POP POP JUMP JUMPDEST PUSH1 0x0 DUP1 PUSH1 0x40 DUP4 DUP6 SUB SLT ISZERO PUSH2 0x2879 JUMPI PUSH2 0x2878 PUSH2 0x2478 JUMP JUMPDEST JUMPDEST PUSH1 0x0 PUSH2 0x2887 DUP6 DUP3 DUP7 ADD PUSH2 0x2610 JUMP JUMPDEST SWAP3 POP POP PUSH1 0x20 DUP4 ADD CALLDATALOAD PUSH8 0xFFFFFFFFFFFFFFFF DUP2 GT ISZERO PUSH2 0x28A8 JUMPI PUSH2 0x28A7 PUSH2 0x247D JUMP JUMPDEST JUMPDEST PUSH2 0x28B4 DUP6 DUP3 DUP7 ADD PUSH2 0x2834 JUMP JUMPDEST SWAP2 POP POP SWAP3 POP SWAP3 SWAP1 POP JUMP JUMPDEST PUSH1 0x0 DUP1 PUSH1 0x0 PUSH1 0x60 DUP5 DUP7 SUB SLT ISZERO PUSH2 0x28D7 JUMPI PUSH2 0x28D6 PUSH2 0x2478 JUMP JUMPDEST JUMPDEST PUSH1 0x0 PUSH2 0x28E5 DUP7 DUP3 DUP8 ADD PUSH2 0x26C5 JUMP JUMPDEST SWAP4 POP POP PUSH1 0x20 PUSH2 0x28F6 DUP7 DUP3 DUP8 ADD PUSH2 0x26C5 JUMP JUMPDEST SWAP3 POP POP PUSH1 0x40 PUSH2 0x2907 DUP7 DUP3 DUP8 ADD PUSH2 0x2610 JUMP JUMPDEST SWAP2 POP POP SWAP3 POP SWAP3 POP SWAP3 JUMP JUMPDEST PUSH1 0x0 DUP3 DUP3 MSTORE PUSH1 0x20 DUP3 ADD SWAP1 POP SWAP3 SWAP2 POP POP JUMP JUMPDEST PUSH1 0x0 PUSH2 0x292D DUP3 PUSH2 0x253D JUMP JUMPDEST PUSH2 0x2937 DUP2 DUP6 PUSH2 0x2911 JUMP JUMPDEST SWAP4 POP PUSH2 0x2947 DUP2 DUP6 PUSH1 0x20 DUP7 ADD PUSH2 0x2559 JUMP JUMPDEST PUSH2 0x2950 DUP2 PUSH2 0x2583 JUMP JUMPDEST DUP5 ADD SWAP2 POP POP SWAP3 SWAP2 POP POP JUMP JUMPDEST PUSH2 0x2964 DUP2 PUSH2 0x25EF JUMP JUMPDEST DUP3 MSTORE POP POP JUMP JUMPDEST PUSH1 0x0 PUSH1 0xA0 DUP4 ADD PUSH1 0x0 DUP4 ADD MLOAD DUP5 DUP3 SUB PUSH1 0x0 DUP7 ADD MSTORE PUSH2 0x2987 DUP3 DUP3 PUSH2 0x2922 JUMP JUMPDEST SWAP2 POP POP PUSH1 0x20 DUP4 ADD MLOAD PUSH2 0x299C PUSH1 0x20 DUP7 ADD DUP3 PUSH2 0x295B JUMP JUMPDEST POP PUSH1 0x40 DUP4 ADD MLOAD PUSH2 0x29AF PUSH1 0x40 DUP7 ADD DUP3 PUSH2 0x295B JUMP JUMPDEST POP PUSH1 0x60 DUP4 ADD MLOAD PUSH2 0x29C2 PUSH1 0x60 DUP7 ADD DUP3 PUSH2 0x295B JUMP JUMPDEST POP PUSH1 0x80 DUP4 ADD MLOAD PUSH2 0x29D5 PUSH1 0x80 DUP7 ADD DUP3 PUSH2 0x295B JUMP JUMPDEST POP DUP1 SWAP2 POP POP SWAP3 SWAP2 POP POP JUMP JUMPDEST PUSH1 0x0 PUSH1 0x20 DUP3 ADD SWAP1 POP DUP2 DUP2 SUB PUSH1 0x0 DUP4 ADD MSTORE PUSH2 0x29FA DUP2 DUP5 PUSH2 0x296A JUMP JUMPDEST SWAP1 POP SWAP3 SWAP2 POP POP JUMP JUMPDEST PUSH1 0x0 PUSH1 0x20 DUP3 DUP5 SUB SLT ISZERO PUSH2 0x2A18 JUMPI PUSH2 0x2A17 PUSH2 0x2478 JUMP JUMPDEST JUMPDEST PUSH1 0x0 PUSH2 0x2A26 DUP5 DUP3 DUP6 ADD PUSH2 0x26C5 JUMP JUMPDEST SWAP2 POP POP SWAP3 SWAP2 POP POP JUMP JUMPDEST PUSH2 0x2A38 DUP2 PUSH2 0x25EF JUMP JUMPDEST DUP3 MSTORE POP POP JUMP JUMPDEST PUSH1 0x0 PUSH1 0x20 DUP3 ADD SWAP1 POP PUSH2 0x2A53 PUSH1 0x0 DUP4 ADD DUP5 PUSH2 0x2A2F JUMP JUMPDEST SWAP3 SWAP2 POP POP JUMP JUMPDEST PUSH1 0x0 DUP1 REVERT JUMPDEST PUSH1 0x0 PUSH8 0xFFFFFFFFFFFFFFFF DUP3 GT ISZERO PUSH2 0x2A79 JUMPI PUSH2 0x2A78 PUSH2 0x271F JUMP JUMPDEST JUMPDEST PUSH2 0x2A82 DUP3 PUSH2 0x2583 JUMP JUMPDEST SWAP1 POP PUSH1 0x20 DUP2 ADD SWAP1 POP SWAP2 SWAP1 POP JUMP JUMPDEST DUP3 DUP2 DUP4 CALLDATACOPY PUSH1 0x0 DUP4 DUP4 ADD MSTORE POP POP POP JUMP JUMPDEST PUSH1 0x0 PUSH2 0x2AB1 PUSH2 0x2AAC DUP5 PUSH2 0x2A5E JUMP JUMPDEST PUSH2 0x277F JUMP JUMPDEST SWAP1 POP DUP3 DUP2 MSTORE PUSH1 0x20 DUP2 ADD DUP5 DUP5 DUP5 ADD GT ISZERO PUSH2 0x2ACD JUMPI PUSH2 0x2ACC PUSH2 0x2A59 JUMP JUMPDEST JUMPDEST PUSH2 0x2AD8 DUP5 DUP3 DUP6 PUSH2 0x2A8F JUMP JUMPDEST POP SWAP4 SWAP3 POP POP POP JUMP JUMPDEST PUSH1 0x0 DUP3 PUSH1 0x1F DUP4 ADD SLT PUSH2 0x2AF5 JUMPI PUSH2 0x2AF4 PUSH2 0x271A JUMP JUMPDEST JUMPDEST DUP2 CALLDATALOAD PUSH2 0x2B05 DUP5 DUP3 PUSH1 0x20 DUP7 ADD PUSH2 0x2A9E JUMP JUMPDEST SWAP2 POP POP SWAP3 SWAP2 POP POP JUMP JUMPDEST PUSH1 0x0 PUSH1 0x20 DUP3 DUP5 SUB SLT ISZERO PUSH2 0x2B24 JUMPI PUSH2 0x2B23 PUSH2 0x2478 JUMP JUMPDEST JUMPDEST PUSH1 0x0 DUP3 ADD CALLDATALOAD PUSH8 0xFFFFFFFFFFFFFFFF DUP2 GT ISZERO PUSH2 0x2B42 JUMPI PUSH2 0x2B41 PUSH2 0x247D JUMP JUMPDEST JUMPDEST PUSH2 0x2B4E DUP5 DUP3 DUP6 ADD PUSH2 0x2AE0 JUMP JUMPDEST SWAP2 POP POP SWAP3 SWAP2 POP POP JUMP JUMPDEST PUSH1 0x0 PUSH1 0xA0 DUP3 ADD SWAP1 POP DUP2 DUP2 SUB PUSH1 0x0 DUP4 ADD MSTORE PUSH2 0x2B71 DUP2 DUP9 PUSH2 0x2594 JUMP JUMPDEST SWAP1 POP PUSH2 0x2B80 PUSH1 0x20 DUP4 ADD DUP8 PUSH2 0x2A2F JUMP JUMPDEST PUSH2 0x2B8D PUSH1 0x40 DUP4 ADD DUP7 PUSH2 0x2A2F JUMP JUMPDEST PUSH2 0x2B9A PUSH1 0x60 DUP4 ADD DUP6 PUSH2 0x2A2F JUMP JUMPDEST PUSH2 0x2BA7 PUSH1 0x80 DUP4 ADD DUP5 PUSH2 0x2A2F JUMP JUMPDEST SWAP7 SWAP6 POP POP POP POP POP POP JUMP JUMPDEST PUSH2 0x2BBA DUP2 PUSH2 0x2507 JUMP JUMPDEST DUP2 EQ PUSH2 0x2BC5 JUMPI PUSH1 0x0 DUP1 REVERT JUMPDEST POP JUMP JUMPDEST PUSH1 0x0 DUP2 CALLDATALOAD SWAP1 POP PUSH2 0x2BD7 DUP2 PUSH2 0x2BB1 JUMP JUMPDEST SWAP3 SWAP2 POP POP JUMP JUMPDEST PUSH1 0x0 DUP1 PUSH1 0x40 DUP4 DUP6 SUB SLT ISZERO PUSH2 0x2BF4 JUMPI PUSH2 0x2BF3 PUSH2 0x2478 JUMP JUMPDEST JUMPDEST PUSH1 0x0 PUSH2 0x2C02 DUP6 DUP3 DUP7 ADD PUSH2 0x26C5 JUMP JUMPDEST SWAP3 POP POP PUSH1 0x20 PUSH2 0x2C13 DUP6 DUP3 DUP7 ADD PUSH2 0x2BC8 JUMP JUMPDEST SWAP2 POP POP SWAP3 POP SWAP3 SWAP1 POP JUMP JUMPDEST PUSH1 0x0 PUSH8 0xFFFFFFFFFFFFFFFF DUP3 GT ISZERO PUSH2 0x2C38 JUMPI PUSH2 0x2C37 PUSH2 0x271F JUMP JUMPDEST JUMPDEST PUSH2 0x2C41 DUP3 PUSH2 0x2583 JUMP JUMPDEST SWAP1 POP PUSH1 0x20 DUP2 ADD SWAP1 POP SWAP2 SWAP1 POP JUMP JUMPDEST PUSH1 0x0 PUSH2 0x2C61 PUSH2 0x2C5C DUP5 PUSH2 0x2C1D JUMP JUMPDEST PUSH2 0x277F JUMP JUMPDEST SWAP1 POP DUP3 DUP2 MSTORE PUSH1 0x20 DUP2 ADD DUP5 DUP5 DUP5 ADD GT ISZERO PUSH2 0x2C7D JUMPI PUSH2 0x2C7C PUSH2 0x2A59 JUMP JUMPDEST JUMPDEST PUSH2 0x2C88 DUP5 DUP3 DUP6 PUSH2 0x2A8F JUMP JUMPDEST POP SWAP4 SWAP3 POP POP POP JUMP JUMPDEST PUSH1 0x0 DUP3 PUSH1 0x1F DUP4 ADD SLT PUSH2 0x2CA5 JUMPI PUSH2 0x2CA4 PUSH2 0x271A JUMP JUMPDEST JUMPDEST DUP2 CALLDATALOAD PUSH2 0x2CB5 DUP5 DUP3 PUSH1 0x20 DUP7 ADD PUSH2 0x2C4E JUMP JUMPDEST SWAP2 POP POP SWAP3 SWAP2 POP POP JUMP JUMPDEST PUSH1 0x0 DUP1 PUSH1 0x0 DUP1 PUSH1 0x80 DUP6 DUP8 SUB SLT ISZERO PUSH2 0x2CD8 JUMPI PUSH2 0x2CD7 PUSH2 0x2478 JUMP JUMPDEST JUMPDEST PUSH1 0x0 PUSH2 0x2CE6 DUP8 DUP3 DUP9 ADD PUSH2 0x26C5 JUMP JUMPDEST SWAP5 POP POP PUSH1 0x20 PUSH2 0x2CF7 DUP8 DUP3 DUP9 ADD PUSH2 0x26C5 JUMP JUMPDEST SWAP4 POP POP PUSH1 0x40 PUSH2 0x2D08 DUP8 DUP3 DUP9 ADD PUSH2 0x2610 JUMP JUMPDEST SWAP3 POP POP PUSH1 0x60 DUP6 ADD CALLDATALOAD PUSH8 0xFFFFFFFFFFFFFFFF DUP2 GT ISZERO PUSH2 0x2D29 JUMPI PUSH2 0x2D28 PUSH2 0x247D JUMP JUMPDEST JUMPDEST PUSH2 0x2D35 DUP8 DUP3 DUP9 ADD PUSH2 0x2C90 JUMP JUMPDEST SWAP2 POP POP SWAP3 SWAP6 SWAP2 SWAP5 POP SWAP3 POP JUMP JUMPDEST PUSH1 0x0 DUP1 PUSH1 0x40 DUP4 DUP6 SUB SLT ISZERO PUSH2 0x2D58 JUMPI PUSH2 0x2D57 PUSH2 0x2478 JUMP JUMPDEST JUMPDEST PUSH1 0x0 PUSH2 0x2D66 DUP6 DUP3 DUP7 ADD PUSH2 0x26C5 JUMP JUMPDEST SWAP3 POP POP PUSH1 0x20 PUSH2 0x2D77 DUP6 DUP3 DUP7 ADD PUSH2 0x26C5 JUMP JUMPDEST SWAP2 POP POP SWAP3 POP SWAP3 SWAP1 POP JUMP JUMPDEST PUSH1 0x0 DUP2 MLOAD SWAP1 POP SWAP2 SWAP1 POP JUMP JUMPDEST PUSH1 0x0 DUP3 DUP3 MSTORE PUSH1 0x20 DUP3 ADD SWAP1 POP SWAP3 SWAP2 POP POP JUMP JUMPDEST PUSH1 0x0 DUP2 SWAP1 POP PUSH1 0x20 DUP3 ADD SWAP1 POP SWAP2 SWAP1 POP JUMP JUMPDEST PUSH1 0x0 PUSH1 0xA0 DUP4 ADD PUSH1 0x0 DUP4 ADD MLOAD DUP5 DUP3 SUB PUSH1 0x0 DUP7 ADD MSTORE PUSH2 0x2DCA DUP3 DUP3 PUSH2 0x2922 JUMP JUMPDEST SWAP2 POP POP PUSH1 0x20 DUP4 ADD MLOAD PUSH2 0x2DDF PUSH1 0x20 DUP7 ADD DUP3 PUSH2 0x295B JUMP JUMPDEST POP PUSH1 0x40 DUP4 ADD MLOAD PUSH2 0x2DF2 PUSH1 0x40 DUP7 ADD DUP3 PUSH2 0x295B JUMP JUMPDEST POP PUSH1 0x60 DUP4 ADD MLOAD PUSH2 0x2E05 PUSH1 0x60 DUP7 ADD DUP3 PUSH2 0x295B JUMP JUMPDEST POP PUSH1 0x80 DUP4 ADD MLOAD PUSH2 0x2E18 PUSH1 0x80 DUP7 ADD DUP3 PUSH2 0x295B JUMP JUMPDEST POP DUP1 SWAP2 POP POP SWAP3 SWAP2 POP POP JUMP JUMPDEST PUSH1 0x0 PUSH2 0x2E2F DUP4 DUP4 PUSH2 0x2DAD JUMP JUMPDEST SWAP1 POP SWAP3 SWAP2 POP POP JUMP JUMPDEST PUSH1 0x0 PUSH1 0x20 DUP3 ADD SWAP1 POP SWAP2 SWAP1 POP JUMP JUMPDEST PUSH1 0x0 PUSH2 0x2E4F DUP3 PUSH2 0x2D81 JUMP JUMPDEST PUSH2 0x2E59 DUP2 DUP6 PUSH2 0x2D8C JUMP JUMPDEST SWAP4 POP DUP4 PUSH1 0x20 DUP3 MUL DUP6 ADD PUSH2 0x2E6B DUP6 PUSH2 0x2D9D JUMP JUMPDEST DUP1 PUSH1 0x0 JUMPDEST DUP6 DUP2 LT ISZERO PUSH2 0x2EA7 JUMPI DUP5 DUP5 SUB DUP10 MSTORE DUP2 MLOAD PUSH2 0x2E88 DUP6 DUP3 PUSH2 0x2E23 JUMP JUMPDEST SWAP5 POP PUSH2 0x2E93 DUP4 PUSH2 0x2E37 JUMP JUMPDEST SWAP3 POP PUSH1 0x20 DUP11 ADD SWAP10 POP POP PUSH1 0x1 DUP2 ADD SWAP1 POP PUSH2 0x2E6F JUMP JUMPDEST POP DUP3 SWAP8 POP DUP8 SWAP6 POP POP POP POP POP POP SWAP3 SWAP2 POP POP JUMP JUMPDEST PUSH1 0x0 PUSH1 0x20 DUP3 ADD SWAP1 POP DUP2 DUP2 SUB PUSH1 0x0 DUP4 ADD MSTORE PUSH2 0x2ED3 DUP2 DUP5 PUSH2 0x2E44 JUMP JUMPDEST SWAP1 POP SWAP3 SWAP2 POP POP JUMP JUMPDEST PUSH32 0x4E487B7100000000000000000000000000000000000000000000000000000000 PUSH1 0x0 MSTORE PUSH1 0x22 PUSH1 0x4 MSTORE PUSH1 0x24 PUSH1 0x0 REVERT JUMPDEST PUSH1 0x0 PUSH1 0x2 DUP3 DIV SWAP1 POP PUSH1 0x1 DUP3 AND DUP1 PUSH2 0x2F22 JUMPI PUSH1 0x7F DUP3 AND SWAP2 POP JUMPDEST PUSH1 0x20 DUP3 LT DUP2 SUB PUSH2 0x2F35 JUMPI PUSH2 0x2F34 PUSH2 0x2EDB JUMP JUMPDEST JUMPDEST POP SWAP2 SWAP1 POP JUMP JUMPDEST PUSH1 0x0 PUSH1 0x40 DUP3 ADD SWAP1 POP PUSH2 0x2F50 PUSH1 0x0 DUP4 ADD DUP6 PUSH2 0x2684 JUMP JUMPDEST PUSH2 0x2F5D PUSH1 0x20 DUP4 ADD DUP5 PUSH2 0x2684 JUMP JUMPDEST SWAP4 SWAP3 POP POP POP JUMP JUMPDEST PUSH1 0x0 PUSH1 0x60 DUP3 ADD SWAP1 POP PUSH2 0x2F79 PUSH1 0x0 DUP4 ADD DUP7 PUSH2 0x2684 JUMP JUMPDEST PUSH2 0x2F86 PUSH1 0x20 DUP4 ADD DUP6 PUSH2 0x2A2F JUMP JUMPDEST PUSH2 0x2F93 PUSH1 0x40 DUP4 ADD DUP5 PUSH2 0x2684 JUMP JUMPDEST SWAP5 SWAP4 POP POP POP POP JUMP JUMPDEST PUSH32 0x436F6E74726163742062616C616E6365206973207A65726F2E00000000000000 PUSH1 0x0 DUP3 ADD MSTORE POP JUMP JUMPDEST PUSH1 0x0 PUSH2 0x2FD1 PUSH1 0x19 DUP4 PUSH2 0x2548 JUMP JUMPDEST SWAP2 POP PUSH2 0x2FDC DUP3 PUSH2 0x2F9B JUMP JUMPDEST PUSH1 0x20 DUP3 ADD SWAP1 POP SWAP2 SWAP1 POP JUMP JUMPDEST PUSH1 0x0 PUSH1 0x20 DUP3 ADD SWAP1 POP DUP2 DUP2 SUB PUSH1 0x0 DUP4 ADD MSTORE PUSH2 0x3000 DUP2 PUSH2 0x2FC4 JUMP JUMPDEST SWAP1 POP SWAP2 SWAP1 POP JUMP JUMPDEST PUSH32 0x4E4654206E6F7420666F756E642E000000000000000000000000000000000000 PUSH1 0x0 DUP3 ADD MSTORE POP JUMP JUMPDEST PUSH1 0x0 PUSH2 0x303D PUSH1 0xE DUP4 PUSH2 0x2548 JUMP JUMPDEST SWAP2 POP PUSH2 0x3048 DUP3 PUSH2 0x3007 JUMP JUMPDEST PUSH1 0x20 DUP3 ADD SWAP1 POP SWAP2 SWAP1 POP JUMP JUMPDEST PUSH1 0x0 PUSH1 0x20 DUP3 ADD SWAP1 POP DUP2 DUP2 SUB PUSH1 0x0 DUP4 ADD MSTORE PUSH2 0x306C DUP2 PUSH2 0x3030 JUMP JUMPDEST SWAP1 POP SWAP2 SWAP1 POP JUMP JUMPDEST PUSH32 0x4E487B7100000000000000000000000000000000000000000000000000000000 PUSH1 0x0 MSTORE PUSH1 0x32 PUSH1 0x4 MSTORE PUSH1 0x24 PUSH1 0x0 REVERT JUMPDEST PUSH32 0x4E487B7100000000000000000000000000000000000000000000000000000000 PUSH1 0x0 MSTORE PUSH1 0x11 PUSH1 0x4 MSTORE PUSH1 0x24 PUSH1 0x0 REVERT JUMPDEST PUSH1 0x0 PUSH2 0x30DC DUP3 PUSH2 0x25EF JUMP JUMPDEST SWAP2 POP PUSH2 0x30E7 DUP4 PUSH2 0x25EF JUMP JUMPDEST SWAP3 POP DUP3 DUP3 ADD SWAP1 POP DUP1 DUP3 GT ISZERO PUSH2 0x30FF JUMPI PUSH2 0x30FE PUSH2 0x30A2 JUMP JUMPDEST JUMPDEST SWAP3 SWAP2 POP POP JUMP JUMPDEST PUSH32 0x4D6178204E465420726561636865642E00000000000000000000000000000000 PUSH1 0x0 DUP3 ADD MSTORE POP JUMP JUMPDEST PUSH1 0x0 PUSH2 0x313B PUSH1 0x10 DUP4 PUSH2 0x2548 JUMP JUMPDEST SWAP2 POP PUSH2 0x3146 DUP3 PUSH2 0x3105 JUMP JUMPDEST PUSH1 0x20 DUP3 ADD SWAP1 POP SWAP2 SWAP1 POP JUMP JUMPDEST PUSH1 0x0 PUSH1 0x20 DUP3 ADD SWAP1 POP DUP2 DUP2 SUB PUSH1 0x0 DUP4 ADD MSTORE PUSH2 0x316A DUP2 PUSH2 0x312E JUMP JUMPDEST SWAP1 POP SWAP2 SWAP1 POP JUMP JUMPDEST PUSH32 0x496E76616C696420616D6F756E742E0000000000000000000000000000000000 PUSH1 0x0 DUP3 ADD MSTORE POP JUMP JUMPDEST PUSH1 0x0 PUSH2 0x31A7 PUSH1 0xF DUP4 PUSH2 0x2548 JUMP JUMPDEST SWAP2 POP PUSH2 0x31B2 DUP3 PUSH2 0x3171 JUMP JUMPDEST PUSH1 0x20 DUP3 ADD SWAP1 POP SWAP2 SWAP1 POP JUMP JUMPDEST PUSH1 0x0 PUSH1 0x20 DUP3 ADD SWAP1 POP DUP2 DUP2 SUB PUSH1 0x0 DUP4 ADD MSTORE PUSH2 0x31D6 DUP2 PUSH2 0x319A JUMP JUMPDEST SWAP1 POP SWAP2 SWAP1 POP JUMP JUMPDEST PUSH1 0x0 DUP2 SWAP1 POP SWAP2 SWAP1 POP JUMP JUMPDEST PUSH2 0x31F0 DUP2 PUSH2 0x31DD JUMP JUMPDEST DUP3 MSTORE POP POP JUMP JUMPDEST PUSH1 0x0 PUSH8 0xFFFFFFFFFFFFFFFF DUP3 AND SWAP1 POP SWAP2 SWAP1 POP JUMP JUMPDEST PUSH2 0x3213 DUP2 PUSH2 0x31F6 JUMP JUMPDEST DUP3 MSTORE POP POP JUMP JUMPDEST PUSH1 0x0 DUP2 SWAP1 POP SWAP2 SWAP1 POP JUMP JUMPDEST PUSH1 0x0 PUSH2 0xFFFF DUP3 AND SWAP1 POP SWAP2 SWAP1 POP JUMP JUMPDEST PUSH1 0x0 DUP2 SWAP1 POP SWAP2 SWAP1 POP JUMP JUMPDEST PUSH1 0x0 PUSH2 0x3256 PUSH2 0x3251 PUSH2 0x324C DUP5 PUSH2 0x3219 JUMP JUMPDEST PUSH2 0x3231 JUMP JUMPDEST PUSH2 0x3223 JUMP JUMPDEST SWAP1 POP SWAP2 SWAP1 POP JUMP JUMPDEST PUSH2 0x3266 DUP2 PUSH2 0x323B JUMP JUMPDEST DUP3 MSTORE POP POP JUMP JUMPDEST PUSH1 0x0 DUP2 SWAP1 POP SWAP2 SWAP1 POP JUMP JUMPDEST PUSH1 0x0 PUSH4 0xFFFFFFFF DUP3 AND SWAP1 POP SWAP2 SWAP1 POP JUMP JUMPDEST PUSH1 0x0 PUSH2 0x32A1 PUSH2 0x329C PUSH2 0x3297 DUP5 PUSH2 0x326C JUMP JUMPDEST PUSH2 0x3231 JUMP JUMPDEST PUSH2 0x3276 JUMP JUMPDEST SWAP1 POP SWAP2 SWAP1 POP JUMP JUMPDEST PUSH2 0x32B1 DUP2 PUSH2 0x3286 JUMP JUMPDEST DUP3 MSTORE POP POP JUMP JUMPDEST PUSH1 0x0 DUP2 SWAP1 POP SWAP2 SWAP1 POP JUMP JUMPDEST PUSH1 0x0 PUSH2 0x32DC PUSH2 0x32D7 PUSH2 0x32D2 DUP5 PUSH2 0x32B7 JUMP JUMPDEST PUSH2 0x3231 JUMP JUMPDEST PUSH2 0x3276 JUMP JUMPDEST SWAP1 POP SWAP2 SWAP1 POP JUMP JUMPDEST PUSH2 0x32EC DUP2 PUSH2 0x32C1 JUMP JUMPDEST DUP3 MSTORE POP POP JUMP JUMPDEST PUSH1 0x0 PUSH1 0xA0 DUP3 ADD SWAP1 POP PUSH2 0x3307 PUSH1 0x0 DUP4 ADD DUP9 PUSH2 0x31E7 JUMP JUMPDEST PUSH2 0x3314 PUSH1 0x20 DUP4 ADD DUP8 PUSH2 0x320A JUMP JUMPDEST PUSH2 0x3321 PUSH1 0x40 DUP4 ADD DUP7 PUSH2 0x325D JUMP JUMPDEST PUSH2 0x332E PUSH1 0x60 DUP4 ADD DUP6 PUSH2 0x32A8 JUMP JUMPDEST PUSH2 0x333B PUSH1 0x80 DUP4 ADD DUP5 PUSH2 0x32E3 JUMP JUMPDEST SWAP7 SWAP6 POP POP POP POP POP POP JUMP JUMPDEST PUSH1 0x0 DUP2 MLOAD SWAP1 POP PUSH2 0x3354 DUP2 PUSH2 0x25F9 JUMP JUMPDEST SWAP3 SWAP2 POP POP JUMP JUMPDEST PUSH1 0x0 PUSH1 0x20 DUP3 DUP5 SUB SLT ISZERO PUSH2 0x3370 JUMPI PUSH2 0x336F PUSH2 0x2478 JUMP JUMPDEST JUMPDEST PUSH1 0x0 PUSH2 0x337E DUP5 DUP3 DUP6 ADD PUSH2 0x3345 JUMP JUMPDEST SWAP2 POP POP SWAP3 SWAP2 POP POP JUMP JUMPDEST PUSH1 0x0 DUP2 SWAP1 POP DUP2 PUSH1 0x0 MSTORE PUSH1 0x20 PUSH1 0x0 KECCAK256 SWAP1 POP SWAP2 SWAP1 POP JUMP JUMPDEST PUSH1 0x0 PUSH1 0x20 PUSH1 0x1F DUP4 ADD DIV SWAP1 POP SWAP2 SWAP1 POP JUMP JUMPDEST PUSH1 0x0 DUP3 DUP3 SHL SWAP1 POP SWAP3 SWAP2 POP POP JUMP JUMPDEST PUSH1 0x0 PUSH1 0x8 DUP4 MUL PUSH2 0x33E9 PUSH32 0xFFFFFFFFFFFFFFFFFFFFFFFFFFFFFFFFFFFFFFFFFFFFFFFFFFFFFFFFFFFFFFFF DUP3 PUSH2 0x33AC JUMP JUMPDEST PUSH2 0x33F3 DUP7 DUP4 PUSH2 0x33AC JUMP JUMPDEST SWAP6 POP DUP1 NOT DUP5 AND SWAP4 POP DUP1 DUP7 AND DUP5 OR SWAP3 POP POP POP SWAP4 SWAP3 POP POP POP JUMP JUMPDEST PUSH1 0x0 PUSH2 0x3426 PUSH2 0x3421 PUSH2 0x341C DUP5 PUSH2 0x25EF JUMP JUMPDEST PUSH2 0x3231 JUMP JUMPDEST PUSH2 0x25EF JUMP JUMPDEST SWAP1 POP SWAP2 SWAP1 POP JUMP JUMPDEST PUSH1 0x0 DUP2 SWAP1 POP SWAP2 SWAP1 POP JUMP JUMPDEST PUSH2 0x3440 DUP4 PUSH2 0x340B JUMP JUMPDEST PUSH2 0x3454 PUSH2 0x344C DUP3 PUSH2 0x342D JUMP JUMPDEST DUP5 DUP5 SLOAD PUSH2 0x33B9 JUMP JUMPDEST DUP3 SSTORE POP POP POP POP JUMP JUMPDEST PUSH1 0x0 SWAP1 JUMP JUMPDEST PUSH2 0x3469 PUSH2 0x345C JUMP JUMPDEST PUSH2 0x3474 DUP2 DUP5 DUP5 PUSH2 0x3437 JUMP JUMPDEST POP POP POP JUMP JUMPDEST JUMPDEST DUP2 DUP2 LT ISZERO PUSH2 0x3498 JUMPI PUSH2 0x348D PUSH1 0x0 DUP3 PUSH2 0x3461 JUMP JUMPDEST PUSH1 0x1 DUP2 ADD SWAP1 POP PUSH2 0x347A JUMP JUMPDEST POP POP JUMP JUMPDEST PUSH1 0x1F DUP3 GT ISZERO PUSH2 0x34DD JUMPI PUSH2 0x34AE DUP2 PUSH2 0x3387 JUMP JUMPDEST PUSH2 0x34B7 DUP5 PUSH2 0x339C JUMP JUMPDEST DUP2 ADD PUSH1 0x20 DUP6 LT ISZERO PUSH2 0x34C6 JUMPI DUP2 SWAP1 POP JUMPDEST PUSH2 0x34DA PUSH2 0x34D2 DUP6 PUSH2 0x339C JUMP JUMPDEST DUP4 ADD DUP3 PUSH2 0x3479 JUMP JUMPDEST POP POP JUMPDEST POP POP POP JUMP JUMPDEST PUSH1 0x0 DUP3 DUP3 SHR SWAP1 POP SWAP3 SWAP2 POP POP JUMP JUMPDEST PUSH1 0x0 PUSH2 0x3500 PUSH1 0x0 NOT DUP5 PUSH1 0x8 MUL PUSH2 0x34E2 JUMP JUMPDEST NOT DUP1 DUP4 AND SWAP2 POP POP SWAP3 SWAP2 POP POP JUMP JUMPDEST PUSH1 0x0 PUSH2 0x3519 DUP4 DUP4 PUSH2 0x34EF JUMP JUMPDEST SWAP2 POP DUP3 PUSH1 0x2 MUL DUP3 OR SWAP1 POP SWAP3 SWAP2 POP POP JUMP JUMPDEST PUSH2 0x3532 DUP3 PUSH2 0x253D JUMP JUMPDEST PUSH8 0xFFFFFFFFFFFFFFFF DUP2 GT ISZERO PUSH2 0x354B JUMPI PUSH2 0x354A PUSH2 0x271F JUMP JUMPDEST JUMPDEST PUSH2 0x3555 DUP3 SLOAD PUSH2 0x2F0A JUMP JUMPDEST PUSH2 0x3560 DUP3 DUP3 DUP6 PUSH2 0x349C JUMP JUMPDEST PUSH1 0x0 PUSH1 0x20 SWAP1 POP PUSH1 0x1F DUP4 GT PUSH1 0x1 DUP2 EQ PUSH2 0x3593 JUMPI PUSH1 0x0 DUP5 ISZERO PUSH2 0x3581 JUMPI DUP3 DUP8 ADD MLOAD SWAP1 POP JUMPDEST PUSH2 0x358B DUP6 DUP3 PUSH2 0x350D JUMP JUMPDEST DUP7 SSTORE POP PUSH2 0x35F3 JUMP JUMPDEST PUSH1 0x1F NOT DUP5 AND PUSH2 0x35A1 DUP7 PUSH2 0x3387 JUMP JUMPDEST PUSH1 0x0 JUMPDEST DUP3 DUP2 LT ISZERO PUSH2 0x35C9 JUMPI DUP5 DUP10 ADD MLOAD DUP3 SSTORE PUSH1 0x1 DUP3 ADD SWAP2 POP PUSH1 0x20 DUP6 ADD SWAP5 POP PUSH1 0x20 DUP2 ADD SWAP1 POP PUSH2 0x35A4 JUMP JUMPDEST DUP7 DUP4 LT ISZERO PUSH2 0x35E6 JUMPI DUP5 DUP10 ADD MLOAD PUSH2 0x35E2 PUSH1 0x1F DUP10 AND DUP3 PUSH2 0x34EF JUMP JUMPDEST DUP4 SSTORE POP JUMPDEST PUSH1 0x1 PUSH1 0x2 DUP9 MUL ADD DUP9 SSTORE POP POP POP JUMPDEST POP POP POP POP POP POP JUMP JUMPDEST PUSH1 0x0 DUP2 SWAP1 POP SWAP3 SWAP2 POP POP JUMP JUMPDEST PUSH1 0x0 PUSH2 0x3611 DUP3 PUSH2 0x253D JUMP JUMPDEST PUSH2 0x361B DUP2 DUP6 PUSH2 0x35FB JUMP JUMPDEST SWAP4 POP PUSH2 0x362B DUP2 DUP6 PUSH1 0x20 DUP7 ADD PUSH2 0x2559 JUMP JUMPDEST DUP1 DUP5 ADD SWAP2 POP POP SWAP3 SWAP2 POP POP JUMP JUMPDEST PUSH1 0x0 PUSH2 0x3643 DUP3 DUP6 PUSH2 0x3606 JUMP JUMPDEST SWAP2 POP PUSH2 0x364F DUP3 DUP5 PUSH2 0x3606 JUMP JUMPDEST SWAP2 POP DUP2 SWAP1 POP SWAP4 SWAP3 POP POP POP JUMP JUMPDEST PUSH32 0x4E487B7100000000000000000000000000000000000000000000000000000000 PUSH1 0x0 MSTORE PUSH1 0x12 PUSH1 0x4 MSTORE PUSH1 0x24 PUSH1 0x0 REVERT JUMPDEST PUSH1 0x0 PUSH2 0x3695 DUP3 PUSH2 0x25EF JUMP JUMPDEST SWAP2 POP PUSH2 0x36A0 DUP4 PUSH2 0x25EF JUMP JUMPDEST SWAP3 POP DUP3 PUSH2 0x36B0 JUMPI PUSH2 0x36AF PUSH2 0x365B JUMP JUMPDEST JUMPDEST DUP3 DUP3 MOD SWAP1 POP SWAP3 SWAP2 POP POP JUMP JUMPDEST PUSH1 0x0 PUSH2 0x36C6 DUP3 PUSH2 0x25EF JUMP JUMPDEST SWAP2 POP PUSH2 0x36D1 DUP4 PUSH2 0x25EF JUMP JUMPDEST SWAP3 POP DUP3 PUSH2 0x36E1 JUMPI PUSH2 0x36E0 PUSH2 0x365B JUMP JUMPDEST JUMPDEST DUP3 DUP3 DIV SWAP1 POP SWAP3 SWAP2 POP POP JUMP JUMPDEST PUSH1 0x0 DUP2 MLOAD SWAP1 POP SWAP2 SWAP1 POP JUMP JUMPDEST PUSH1 0x0 DUP3 DUP3 MSTORE PUSH1 0x20 DUP3 ADD SWAP1 POP SWAP3 SWAP2 POP POP JUMP JUMPDEST PUSH1 0x0 PUSH2 0x3713 DUP3 PUSH2 0x36EC JUMP JUMPDEST PUSH2 0x371D DUP2 DUP6 PUSH2 0x36F7 JUMP JUMPDEST SWAP4 POP PUSH2 0x372D DUP2 DUP6 PUSH1 0x20 DUP7 ADD PUSH2 0x2559 JUMP JUMPDEST PUSH2 0x3736 DUP2 PUSH2 0x2583 JUMP JUMPDEST DUP5 ADD SWAP2 POP POP SWAP3 SWAP2 POP POP JUMP JUMPDEST PUSH1 0x0 PUSH1 0x80 DUP3 ADD SWAP1 POP PUSH2 0x3756 PUSH1 0x0 DUP4 ADD DUP8 PUSH2 0x2684 JUMP JUMPDEST PUSH2 0x3763 PUSH1 0x20 DUP4 ADD DUP7 PUSH2 0x2684 JUMP JUMPDEST PUSH2 0x3770 PUSH1 0x40 DUP4 ADD DUP6 PUSH2 0x2A2F JUMP JUMPDEST DUP2 DUP2 SUB PUSH1 0x60 DUP4 ADD MSTORE PUSH2 0x3782 DUP2 DUP5 PUSH2 0x3708 JUMP JUMPDEST SWAP1 POP SWAP6 SWAP5 POP POP POP POP POP JUMP JUMPDEST PUSH1 0x0 DUP2 MLOAD SWAP1 POP PUSH2 0x379C DUP2 PUSH2 0x24AE JUMP JUMPDEST SWAP3 SWAP2 POP POP JUMP JUMPDEST PUSH1 0x0 PUSH1 0x20 DUP3 DUP5 SUB SLT ISZERO PUSH2 0x37B8 JUMPI PUSH2 0x37B7 PUSH2 0x2478 JUMP JUMPDEST JUMPDEST PUSH1 0x0 PUSH2 0x37C6 DUP5 DUP3 DUP6 ADD PUSH2 0x378D JUMP JUMPDEST SWAP2 POP POP SWAP3 SWAP2 POP POP JUMP JUMPDEST PUSH1 0x0 PUSH1 0x40 DUP3 ADD SWAP1 POP PUSH2 0x37E4 PUSH1 0x0 DUP4 ADD DUP6 PUSH2 0x2684 JUMP JUMPDEST PUSH2 0x37F1 PUSH1 0x20 DUP4 ADD DUP5 PUSH2 0x2A2F JUMP JUMPDEST SWAP4 SWAP3 POP POP POP JUMP INVALID LOG2 PUSH5 0x6970667358 0x22 SLT KECCAK256 0xBD 0x2A 0x1F 0xFB CALLDATASIZE PUSH32 0x2264F03D1E1C783E7FF4B91EC400ABF29E2C8BC58DAA42B3346364736F6C6343 STOP ADDMOD XOR STOP CALLER "
        },
        "methodIdentifiers": {
          "CreateNFT(string)": "76d85aca",
          "approve(address,uint256)": "095ea7b3",
          "balanceOf(address)": "70a08231",
          "getAllNFT()": "f3b1633d",
          "getApproved(uint256)": "081812fc",
          "getNFT(uint256)": "576f7ea7",
          "isApprovedForAll(address,address)": "e985e9c5",
          "name()": "06fdde03",
          "owner()": "8da5cb5b",
          "ownerOf(uint256)": "6352211e",
          "plants(uint256)": "8dd2361c",
          "rawFulfillRandomWords(uint256,uint256[])": "1fe543e3",
          "renounceOwnership()": "715018a6",
          "requestIdTemp()": "9179e19c",
          "safeTransferFrom(address,address,uint256)": "42842e0e",
          "safeTransferFrom(address,address,uint256,bytes)": "b88d4fde",
          "setApprovalForAll(address,bool)": "a22cb465",
          "supportsInterface(bytes4)": "01ffc9a7",
          "symbol()": "95d89b41",
          "tokenURI(uint256)": "c87b56dd",
          "transferFrom(address,address,uint256)": "23b872dd",
          "transferOwnership(address)": "f2fde38b",
          "withdraw()": "3ccfd60b"
        }
      }
    }
  }
}