{
  "_format": "hh-sol-artifact-1",
  "contractName": "PofNFT",
  "sourceName": "contracts/PofNFT.sol",
  "abi": [
    {
      "inputs": [
        {
          "internalType": "uint64",
          "name": "_subscriptionId",
          "type": "uint64"
        },
        {
          "internalType": "address",
          "name": "vrfCoordinator",
          "type": "address"
        },
        {
          "internalType": "bytes32",
          "name": "_keyHash",
          "type": "bytes32"
        }
      ],
      "stateMutability": "nonpayable",
      "type": "constructor"
    },
    {
      "inputs": [
        {
          "internalType": "address",
          "name": "sender",
          "type": "address"
        },
        {
          "internalType": "uint256",
          "name": "tokenId",
          "type": "uint256"
        },
        {
          "internalType": "address",
          "name": "owner",
          "type": "address"
        }
      ],
      "name": "ERC721IncorrectOwner",
      "type": "error"
    },
    {
      "inputs": [
        {
          "internalType": "address",
          "name": "operator",
          "type": "address"
        },
        {
          "internalType": "uint256",
          "name": "tokenId",
          "type": "uint256"
        }
      ],
      "name": "ERC721InsufficientApproval",
      "type": "error"
    },
    {
      "inputs": [
        {
          "internalType": "address",
          "name": "approver",
          "type": "address"
        }
      ],
      "name": "ERC721InvalidApprover",
      "type": "error"
    },
    {
      "inputs": [
        {
          "internalType": "address",
          "name": "operator",
          "type": "address"
        }
      ],
      "name": "ERC721InvalidOperator",
      "type": "error"
    },
    {
      "inputs": [
        {
          "internalType": "address",
          "name": "owner",
          "type": "address"
        }
      ],
      "name": "ERC721InvalidOwner",
      "type": "error"
    },
    {
      "inputs": [
        {
          "internalType": "address",
          "name": "receiver",
          "type": "address"
        }
      ],
      "name": "ERC721InvalidReceiver",
      "type": "error"
    },
    {
      "inputs": [
        {
          "internalType": "address",
          "name": "sender",
          "type": "address"
        }
      ],
      "name": "ERC721InvalidSender",
      "type": "error"
    },
    {
      "inputs": [
        {
          "internalType": "uint256",
          "name": "tokenId",
          "type": "uint256"
        }
      ],
      "name": "ERC721NonexistentToken",
      "type": "error"
    },
    {
      "inputs": [
        {
          "internalType": "address",
          "name": "have",
          "type": "address"
        },
        {
          "internalType": "address",
          "name": "want",
          "type": "address"
        }
      ],
      "name": "OnlyCoordinatorCanFulfill",
      "type": "error"
    },
    {
      "inputs": [
        {
          "internalType": "address",
          "name": "owner",
          "type": "address"
        }
      ],
      "name": "OwnableInvalidOwner",
      "type": "error"
    },
    {
      "inputs": [
        {
          "internalType": "address",
          "name": "account",
          "type": "address"
        }
      ],
      "name": "OwnableUnauthorizedAccount",
      "type": "error"
    },
    {
      "anonymous": false,
      "inputs": [
        {
          "indexed": true,
          "internalType": "address",
          "name": "owner",
          "type": "address"
        },
        {
          "indexed": true,
          "internalType": "address",
          "name": "approved",
          "type": "address"
        },
        {
          "indexed": true,
          "internalType": "uint256",
          "name": "tokenId",
          "type": "uint256"
        }
      ],
      "name": "Approval",
      "type": "event"
    },
    {
      "anonymous": false,
      "inputs": [
        {
          "indexed": true,
          "internalType": "address",
          "name": "owner",
          "type": "address"
        },
        {
          "indexed": true,
          "internalType": "address",
          "name": "operator",
          "type": "address"
        },
        {
          "indexed": false,
          "internalType": "bool",
          "name": "approved",
          "type": "bool"
        }
      ],
      "name": "ApprovalForAll",
      "type": "event"
    },
    {
      "anonymous": false,
      "inputs": [
        {
          "indexed": true,
          "internalType": "uint256",
          "name": "tokenId",
          "type": "uint256"
        },
        {
          "indexed": true,
          "internalType": "address",
          "name": "owner",
          "type": "address"
        },
        {
          "components": [
            {
              "internalType": "string",
              "name": "name",
              "type": "string"
            },
            {
              "internalType": "uint256",
              "name": "nutrient",
              "type": "uint256"
            },
            {
              "internalType": "uint256",
              "name": "freshness",
              "type": "uint256"
            },
            {
              "internalType": "uint256",
              "name": "ecoFriendliness",
              "type": "uint256"
            },
            {
              "internalType": "uint256",
              "name": "taste",
              "type": "uint256"
            }
          ],
          "indexed": false,
          "internalType": "struct PofNFT.Plant",
          "name": "plant",
          "type": "tuple"
        }
      ],
      "name": "NFTCreated",
      "type": "event"
    },
    {
      "anonymous": false,
      "inputs": [
        {
          "indexed": true,
          "internalType": "address",
          "name": "previousOwner",
          "type": "address"
        },
        {
          "indexed": true,
          "internalType": "address",
          "name": "newOwner",
          "type": "address"
        }
      ],
      "name": "OwnershipTransferred",
      "type": "event"
    },
    {
      "anonymous": false,
      "inputs": [
        {
          "indexed": true,
          "internalType": "uint256",
          "name": "requestId",
          "type": "uint256"
        },
        {
          "indexed": false,
          "internalType": "string",
          "name": "name",
          "type": "string"
        }
      ],
      "name": "RequestIdCreated",
      "type": "event"
    },
    {
      "anonymous": false,
      "inputs": [
        {
          "indexed": true,
          "internalType": "address",
          "name": "from",
          "type": "address"
        },
        {
          "indexed": true,
          "internalType": "address",
          "name": "to",
          "type": "address"
        },
        {
          "indexed": true,
          "internalType": "uint256",
          "name": "tokenId",
          "type": "uint256"
        }
      ],
      "name": "Transfer",
      "type": "event"
    },
    {
      "inputs": [
        {
          "internalType": "string",
          "name": "name",
          "type": "string"
        }
      ],
      "name": "CreateNFT",
      "outputs": [],
      "stateMutability": "payable",
      "type": "function"
    },
    {
      "inputs": [
        {
          "internalType": "address",
          "name": "to",
          "type": "address"
        },
        {
          "internalType": "uint256",
          "name": "tokenId",
          "type": "uint256"
        }
      ],
      "name": "approve",
      "outputs": [],
      "stateMutability": "nonpayable",
      "type": "function"
    },
    {
      "inputs": [
        {
          "internalType": "address",
          "name": "owner",
          "type": "address"
        }
      ],
      "name": "balanceOf",
      "outputs": [
        {
          "internalType": "uint256",
          "name": "",
          "type": "uint256"
        }
      ],
      "stateMutability": "view",
      "type": "function"
    },
    {
      "inputs": [],
      "name": "getAllNFT",
      "outputs": [
        {
          "components": [
            {
              "internalType": "string",
              "name": "name",
              "type": "string"
            },
            {
              "internalType": "uint256",
              "name": "nutrient",
              "type": "uint256"
            },
            {
              "internalType": "uint256",
              "name": "freshness",
              "type": "uint256"
            },
            {
              "internalType": "uint256",
              "name": "ecoFriendliness",
              "type": "uint256"
            },
            {
              "internalType": "uint256",
              "name": "taste",
              "type": "uint256"
            }
          ],
          "internalType": "struct PofNFT.Plant[]",
          "name": "",
          "type": "tuple[]"
        }
      ],
      "stateMutability": "view",
      "type": "function"
    },
    {
      "inputs": [
        {
          "internalType": "uint256",
          "name": "tokenId",
          "type": "uint256"
        }
      ],
      "name": "getApproved",
      "outputs": [
        {
          "internalType": "address",
          "name": "",
          "type": "address"
        }
      ],
      "stateMutability": "view",
      "type": "function"
    },
    {
      "inputs": [
        {
          "internalType": "uint256",
          "name": "_idToken",
          "type": "uint256"
        }
      ],
      "name": "getNFT",
      "outputs": [
        {
          "components": [
            {
              "internalType": "string",
              "name": "name",
              "type": "string"
            },
            {
              "internalType": "uint256",
              "name": "nutrient",
              "type": "uint256"
            },
            {
              "internalType": "uint256",
              "name": "freshness",
              "type": "uint256"
            },
            {
              "internalType": "uint256",
              "name": "ecoFriendliness",
              "type": "uint256"
            },
            {
              "internalType": "uint256",
              "name": "taste",
              "type": "uint256"
            }
          ],
          "internalType": "struct PofNFT.Plant",
          "name": "",
          "type": "tuple"
        }
      ],
      "stateMutability": "view",
      "type": "function"
    },
    {
      "inputs": [
        {
          "internalType": "address",
          "name": "owner",
          "type": "address"
        },
        {
          "internalType": "address",
          "name": "operator",
          "type": "address"
        }
      ],
      "name": "isApprovedForAll",
      "outputs": [
        {
          "internalType": "bool",
          "name": "",
          "type": "bool"
        }
      ],
      "stateMutability": "view",
      "type": "function"
    },
    {
      "inputs": [],
      "name": "name",
      "outputs": [
        {
          "internalType": "string",
          "name": "",
          "type": "string"
        }
      ],
      "stateMutability": "view",
      "type": "function"
    },
    {
      "inputs": [],
      "name": "owner",
      "outputs": [
        {
          "internalType": "address",
          "name": "",
          "type": "address"
        }
      ],
      "stateMutability": "view",
      "type": "function"
    },
    {
      "inputs": [
        {
          "internalType": "uint256",
          "name": "tokenId",
          "type": "uint256"
        }
      ],
      "name": "ownerOf",
      "outputs": [
        {
          "internalType": "address",
          "name": "",
          "type": "address"
        }
      ],
      "stateMutability": "view",
      "type": "function"
    },
    {
      "inputs": [
        {
          "internalType": "uint256",
          "name": "",
          "type": "uint256"
        }
      ],
      "name": "plants",
      "outputs": [
        {
          "internalType": "string",
          "name": "name",
          "type": "string"
        },
        {
          "internalType": "uint256",
          "name": "nutrient",
          "type": "uint256"
        },
        {
          "internalType": "uint256",
          "name": "freshness",
          "type": "uint256"
        },
        {
          "internalType": "uint256",
          "name": "ecoFriendliness",
          "type": "uint256"
        },
        {
          "internalType": "uint256",
          "name": "taste",
          "type": "uint256"
        }
      ],
      "stateMutability": "view",
      "type": "function"
    },
    {
      "inputs": [
        {
          "internalType": "uint256",
          "name": "requestId",
          "type": "uint256"
        },
        {
          "internalType": "uint256[]",
          "name": "randomWords",
          "type": "uint256[]"
        }
      ],
      "name": "rawFulfillRandomWords",
      "outputs": [],
      "stateMutability": "nonpayable",
      "type": "function"
    },
    {
      "inputs": [],
      "name": "renounceOwnership",
      "outputs": [],
      "stateMutability": "nonpayable",
      "type": "function"
    },
    {
      "inputs": [],
      "name": "requestIdTemp",
      "outputs": [
        {
          "internalType": "uint256",
          "name": "",
          "type": "uint256"
        }
      ],
      "stateMutability": "view",
      "type": "function"
    },
    {
      "inputs": [
        {
          "internalType": "address",
          "name": "from",
          "type": "address"
        },
        {
          "internalType": "address",
          "name": "to",
          "type": "address"
        },
        {
          "internalType": "uint256",
          "name": "tokenId",
          "type": "uint256"
        }
      ],
      "name": "safeTransferFrom",
      "outputs": [],
      "stateMutability": "nonpayable",
      "type": "function"
    },
    {
      "inputs": [
        {
          "internalType": "address",
          "name": "from",
          "type": "address"
        },
        {
          "internalType": "address",
          "name": "to",
          "type": "address"
        },
        {
          "internalType": "uint256",
          "name": "tokenId",
          "type": "uint256"
        },
        {
          "internalType": "bytes",
          "name": "data",
          "type": "bytes"
        }
      ],
      "name": "safeTransferFrom",
      "outputs": [],
      "stateMutability": "nonpayable",
      "type": "function"
    },
    {
      "inputs": [
        {
          "internalType": "address",
          "name": "operator",
          "type": "address"
        },
        {
          "internalType": "bool",
          "name": "approved",
          "type": "bool"
        }
      ],
      "name": "setApprovalForAll",
      "outputs": [],
      "stateMutability": "nonpayable",
      "type": "function"
    },
    {
      "inputs": [
        {
          "internalType": "bytes4",
          "name": "interfaceId",
          "type": "bytes4"
        }
      ],
      "name": "supportsInterface",
      "outputs": [
        {
          "internalType": "bool",
          "name": "",
          "type": "bool"
        }
      ],
      "stateMutability": "view",
      "type": "function"
    },
    {
      "inputs": [],
      "name": "symbol",
      "outputs": [
        {
          "internalType": "string",
          "name": "",
          "type": "string"
        }
      ],
      "stateMutability": "view",
      "type": "function"
    },
    {
      "inputs": [
        {
          "internalType": "uint256",
          "name": "tokenId",
          "type": "uint256"
        }
      ],
      "name": "tokenURI",
      "outputs": [
        {
          "internalType": "string",
          "name": "",
          "type": "string"
        }
      ],
      "stateMutability": "view",
      "type": "function"
    },
    {
      "inputs": [
        {
          "internalType": "address",
          "name": "from",
          "type": "address"
        },
        {
          "internalType": "address",
          "name": "to",
          "type": "address"
        },
        {
          "internalType": "uint256",
          "name": "tokenId",
          "type": "uint256"
        }
      ],
      "name": "transferFrom",
      "outputs": [],
      "stateMutability": "nonpayable",
      "type": "function"
    },
    {
      "inputs": [
        {
          "internalType": "address",
          "name": "newOwner",
          "type": "address"
        }
      ],
      "name": "transferOwnership",
      "outputs": [],
      "stateMutability": "nonpayable",
      "type": "function"
    },
    {
      "inputs": [],
      "name": "withdraw",
      "outputs": [],
      "stateMutability": "nonpayable",
      "type": "function"
    }
  ],
  "bytecode": "0x60a06040523480156200001157600080fd5b5060405162003fec38038062003fec8339818101604052810190620000379190620003b0565b81336040518060400160405280600681526020017f506f664e465400000000000000000000000000000000000000000000000000008152506040518060400160405280600381526020017f504f4600000000000000000000000000000000000000000000000000000000008152508160009081620000b6919062000686565b508060019081620000c8919062000686565b505050600073ffffffffffffffffffffffffffffffffffffffff168173ffffffffffffffffffffffffffffffffffffffff1603620001405760006040517f1e4fbdf70000000000000000000000000000000000000000000000000000000081526004016200013791906200077e565b60405180910390fd5b62000151816200020060201b60201c565b508073ffffffffffffffffffffffffffffffffffffffff1660808173ffffffffffffffffffffffffffffffffffffffff168152505050816008806101000a81548173ffffffffffffffffffffffffffffffffffffffff021916908373ffffffffffffffffffffffffffffffffffffffff16021790555082600860006101000a81548167ffffffffffffffff021916908367ffffffffffffffff160217905550806009819055505050506200079b565b6000600660009054906101000a900473ffffffffffffffffffffffffffffffffffffffff16905081600660006101000a81548173ffffffffffffffffffffffffffffffffffffffff021916908373ffffffffffffffffffffffffffffffffffffffff1602179055508173ffffffffffffffffffffffffffffffffffffffff168173ffffffffffffffffffffffffffffffffffffffff167f8be0079c531659141344cd1fd0a4f28419497f9722a3daafe3b4186f6b6457e060405160405180910390a35050565b600080fd5b600067ffffffffffffffff82169050919050565b620002ea81620002cb565b8114620002f657600080fd5b50565b6000815190506200030a81620002df565b92915050565b600073ffffffffffffffffffffffffffffffffffffffff82169050919050565b60006200033d8262000310565b9050919050565b6200034f8162000330565b81146200035b57600080fd5b50565b6000815190506200036f8162000344565b92915050565b6000819050919050565b6200038a8162000375565b81146200039657600080fd5b50565b600081519050620003aa816200037f565b92915050565b600080600060608486031215620003cc57620003cb620002c6565b5b6000620003dc86828701620002f9565b9350506020620003ef868287016200035e565b9250506040620004028682870162000399565b9150509250925092565b600081519050919050565b7f4e487b7100000000000000000000000000000000000000000000000000000000600052604160045260246000fd5b7f4e487b7100000000000000000000000000000000000000000000000000000000600052602260045260246000fd5b600060028204905060018216806200048e57607f821691505b602082108103620004a457620004a362000446565b5b50919050565b60008190508160005260206000209050919050565b60006020601f8301049050919050565b600082821b905092915050565b6000600883026200050e7fffffffffffffffffffffffffffffffffffffffffffffffffffffffffffffffff82620004cf565b6200051a8683620004cf565b95508019841693508086168417925050509392505050565b6000819050919050565b6000819050919050565b600062000567620005616200055b8462000532565b6200053c565b62000532565b9050919050565b6000819050919050565b620005838362000546565b6200059b62000592826200056e565b848454620004dc565b825550505050565b600090565b620005b2620005a3565b620005bf81848462000578565b505050565b5b81811015620005e757620005db600082620005a8565b600181019050620005c5565b5050565b601f82111562000636576200060081620004aa565b6200060b84620004bf565b810160208510156200061b578190505b620006336200062a85620004bf565b830182620005c4565b50505b505050565b600082821c905092915050565b60006200065b600019846008026200063b565b1980831691505092915050565b600062000676838362000648565b9150826002028217905092915050565b62000691826200040c565b67ffffffffffffffff811115620006ad57620006ac62000417565b5b620006b9825462000475565b620006c6828285620005eb565b600060209050601f831160018114620006fe5760008415620006e9578287015190505b620006f5858262000668565b86555062000765565b601f1984166200070e86620004aa565b60005b82811015620007385784890151825560018201915060208501945060208101905062000711565b8683101562000758578489015162000754601f89168262000648565b8355505b6001600288020188555050505b505050505050565b620007788162000330565b82525050565b60006020820190506200079560008301846200076d565b92915050565b60805161382e620007be60003960008181610719015261076d015261382e6000f3fe6080604052600436106101405760003560e01c8063715018a6116100b6578063a22cb4651161006f578063a22cb46514610451578063b88d4fde1461047a578063c87b56dd146104a3578063e985e9c5146104e0578063f2fde38b1461051d578063f3b1633d1461054657610140565b8063715018a61461035c57806376d85aca146103735780638da5cb5b1461038f5780638dd2361c146103ba5780639179e19c146103fb57806395d89b411461042657610140565b806323b872dd1161010857806323b872dd1461023c5780633ccfd60b1461026557806342842e0e1461027c578063576f7ea7146102a55780636352211e146102e257806370a082311461031f57610140565b806301ffc9a71461014557806306fdde0314610182578063081812fc146101ad578063095ea7b3146101ea5780631fe543e314610213575b600080fd5b34801561015157600080fd5b5061016c600480360381019061016791906124da565b610571565b6040516101799190612522565b60405180910390f35b34801561018e57600080fd5b50610197610653565b6040516101a491906125cd565b60405180910390f35b3480156101b957600080fd5b506101d460048036038101906101cf9190612625565b6106e5565b6040516101e19190612693565b60405180910390f35b3480156101f657600080fd5b50610211600480360381019061020c91906126da565b610701565b005b34801561021f57600080fd5b5061023a60048036038101906102359190612862565b610717565b005b34801561024857600080fd5b50610263600480360381019061025e91906128be565b6107d7565b005b34801561027157600080fd5b5061027a6108d9565b005b34801561028857600080fd5b506102a3600480360381019061029e91906128be565b61097a565b005b3480156102b157600080fd5b506102cc60048036038101906102c79190612625565b61099a565b6040516102d991906129e0565b60405180910390f35b3480156102ee57600080fd5b5061030960048036038101906103049190612625565b610ad9565b6040516103169190612693565b60405180910390f35b34801561032b57600080fd5b5061034660048036038101906103419190612a02565b610aeb565b6040516103539190612a3e565b60405180910390f35b34801561036857600080fd5b50610371610ba5565b005b61038d60048036038101906103889190612b0e565b610bb9565b005b34801561039b57600080fd5b506103a4610dd2565b6040516103b19190612693565b60405180910390f35b3480156103c657600080fd5b506103e160048036038101906103dc9190612625565b610dfc565b6040516103f2959493929190612b57565b60405180910390f35b34801561040757600080fd5b50610410610eca565b60405161041d9190612a3e565b60405180910390f35b34801561043257600080fd5b5061043b610ed0565b60405161044891906125cd565b60405180910390f35b34801561045d57600080fd5b5061047860048036038101906104739190612bdd565b610f62565b005b34801561048657600080fd5b506104a1600480360381019061049c9190612cbe565b610f78565b005b3480156104af57600080fd5b506104ca60048036038101906104c59190612625565b610f95565b6040516104d791906125cd565b60405180910390f35b3480156104ec57600080fd5b5061050760048036038101906105029190612d41565b610ffe565b6040516105149190612522565b60405180910390f35b34801561052957600080fd5b50610544600480360381019061053f9190612a02565b611092565b005b34801561055257600080fd5b5061055b611118565b6040516105689190612eb9565b60405180910390f35b60007f80ac58cd000000000000000000000000000000000000000000000000000000007bffffffffffffffffffffffffffffffffffffffffffffffffffffffff1916827bffffffffffffffffffffffffffffffffffffffffffffffffffffffff1916148061063c57507f5b5e139f000000000000000000000000000000000000000000000000000000007bffffffffffffffffffffffffffffffffffffffffffffffffffffffff1916827bffffffffffffffffffffffffffffffffffffffffffffffffffffffff1916145b8061064c575061064b82611231565b5b9050919050565b60606000805461066290612f0a565b80601f016020809104026020016040519081016040528092919081815260200182805461068e90612f0a565b80156106db5780601f106106b0576101008083540402835291602001916106db565b820191906000526020600020905b8154815290600101906020018083116106be57829003601f168201915b5050505050905090565b60006106f08261129b565b506106fa82611323565b9050919050565b610713828261070e611360565b611368565b5050565b7f000000000000000000000000000000000000000000000000000000000000000073ffffffffffffffffffffffffffffffffffffffff163373ffffffffffffffffffffffffffffffffffffffff16146107c957337f00000000000000000000000000000000000000000000000000000000000000006040517f1cf993f40000000000000000000000000000000000000000000000000000000081526004016107c0929190612f3b565b60405180910390fd5b6107d3828261137a565b5050565b600073ffffffffffffffffffffffffffffffffffffffff168273ffffffffffffffffffffffffffffffffffffffff16036108495760006040517f64a0ae920000000000000000000000000000000000000000000000000000000081526004016108409190612693565b60405180910390fd5b600061085d8383610858611360565b611663565b90508373ffffffffffffffffffffffffffffffffffffffff168173ffffffffffffffffffffffffffffffffffffffff16146108d3578382826040517f64283d7b0000000000000000000000000000000000000000000000000000000081526004016108ca93929190612f64565b60405180910390fd5b50505050565b6108e161187d565b600047905060008111610929576040517f08c379a000000000000000000000000000000000000000000000000000000000815260040161092090612fe7565b60405180910390fd5b610931610dd2565b73ffffffffffffffffffffffffffffffffffffffff166108fc829081150290604051600060405180830381858888f19350505050158015610976573d6000803e3d6000fd5b5050565b61099583838360405180602001604052806000815250610f78565b505050565b6109a26123e2565b81600a8054905081106109ea576040517f08c379a00000000000000000000000000000000000000000000000000000000081526004016109e190613053565b60405180910390fd5b600a83815481106109fe576109fd613073565b5b90600052602060002090600502016040518060a0016040529081600082018054610a2790612f0a565b80601f0160208091040260200160405190810160405280929190818152602001828054610a5390612f0a565b8015610aa05780601f10610a7557610100808354040283529160200191610aa0565b820191906000526020600020905b815481529060010190602001808311610a8357829003601f168201915b50505050508152602001600182015481526020016002820154815260200160038201548152602001600482015481525050915050919050565b6000610ae48261129b565b9050919050565b60008073ffffffffffffffffffffffffffffffffffffffff168273ffffffffffffffffffffffffffffffffffffffff1603610b5e5760006040517f89c62b64000000000000000000000000000000000000000000000000000000008152600401610b559190612693565b60405180910390fd5b600360008373ffffffffffffffffffffffffffffffffffffffff1673ffffffffffffffffffffffffffffffffffffffff168152602001908152602001600020549050919050565b610bad61187d565b610bb76000611904565b565b600a6001600a80549050610bcd91906130d1565b1115610c0e576040517f08c379a0000000000000000000000000000000000000000000000000000000008152600401610c0590613151565b60405180910390fd5b66470de4df8200003414610c57576040517f08c379a0000000000000000000000000000000000000000000000000000000008152600401610c4e906131bd565b60405180910390fd5b60088054906101000a900473ffffffffffffffffffffffffffffffffffffffff1673ffffffffffffffffffffffffffffffffffffffff16635d3b1d30600954600860009054906101000a900467ffffffffffffffff166003620f424060016040518663ffffffff1660e01b8152600401610cd59594939291906132f2565b6020604051808303816000875af1158015610cf4573d6000803e3d6000fd5b505050506040513d601f19601f82011682018060405250810190610d18919061335a565b60078190555080600b600060075481526020019081526020016000209081610d409190613529565b5033600c6000600754815260200190815260200160002060006101000a81548173ffffffffffffffffffffffffffffffffffffffff021916908373ffffffffffffffffffffffffffffffffffffffff1602179055506007547fabf2752a6127cbdd0f00db692417576a44c8a095c3e156bce8af96e92be5506082604051610dc791906125cd565b60405180910390a250565b6000600660009054906101000a900473ffffffffffffffffffffffffffffffffffffffff16905090565b600a8181548110610e0c57600080fd5b9060005260206000209060050201600091509050806000018054610e2f90612f0a565b80601f0160208091040260200160405190810160405280929190818152602001828054610e5b90612f0a565b8015610ea85780601f10610e7d57610100808354040283529160200191610ea8565b820191906000526020600020905b815481529060010190602001808311610e8b57829003601f168201915b5050505050908060010154908060020154908060030154908060040154905085565b60075481565b606060018054610edf90612f0a565b80601f0160208091040260200160405190810160405280929190818152602001828054610f0b90612f0a565b8015610f585780601f10610f2d57610100808354040283529160200191610f58565b820191906000526020600020905b815481529060010190602001808311610f3b57829003601f168201915b5050505050905090565b610f74610f6d611360565b83836119ca565b5050565b610f838484846107d7565b610f8f84848484611b39565b50505050565b6060610fa08261129b565b506000610fab611cf0565b90506000815111610fcb5760405180602001604052806000815250610ff6565b80610fd584611d07565b604051602001610fe6929190613637565b6040516020818303038152906040525b915050919050565b6000600560008473ffffffffffffffffffffffffffffffffffffffff1673ffffffffffffffffffffffffffffffffffffffff16815260200190815260200160002060008373ffffffffffffffffffffffffffffffffffffffff1673ffffffffffffffffffffffffffffffffffffffff16815260200190815260200160002060009054906101000a900460ff16905092915050565b61109a61187d565b600073ffffffffffffffffffffffffffffffffffffffff168173ffffffffffffffffffffffffffffffffffffffff160361110c5760006040517f1e4fbdf70000000000000000000000000000000000000000000000000000000081526004016111039190612693565b60405180910390fd5b61111581611904565b50565b6060600a805480602002602001604051908101604052809291908181526020016000905b8282101561122857838290600052602060002090600502016040518060a001604052908160008201805461116f90612f0a565b80601f016020809104026020016040519081016040528092919081815260200182805461119b90612f0a565b80156111e85780601f106111bd576101008083540402835291602001916111e8565b820191906000526020600020905b8154815290600101906020018083116111cb57829003601f168201915b505050505081526020016001820154815260200160028201548152602001600382015481526020016004820154815250508152602001906001019061113c565b50505050905090565b60007f01ffc9a7000000000000000000000000000000000000000000000000000000007bffffffffffffffffffffffffffffffffffffffffffffffffffffffff1916827bffffffffffffffffffffffffffffffffffffffffffffffffffffffff1916149050919050565b6000806112a783611dd5565b9050600073ffffffffffffffffffffffffffffffffffffffff168173ffffffffffffffffffffffffffffffffffffffff160361131a57826040517f7e2732890000000000000000000000000000000000000000000000000000000081526004016113119190612a3e565b60405180910390fd5b80915050919050565b60006004600083815260200190815260200160002060009054906101000a900473ffffffffffffffffffffffffffffffffffffffff169050919050565b600033905090565b6113758383836001611e12565b505050565b6000816000815181106113905761138f613073565b5b602002602001015190506000600a80549050905060006064836113b3919061368a565b905060006064612710856113c7919061368a565b6113d191906136bb565b905060006103e8612710866113e6919061368a565b6113f091906136bb565b90506000612710620186a087611406919061368a565b61141091906136bb565b905060006040518060a00160405280600b60008c8152602001908152602001600020805461143d90612f0a565b80601f016020809104026020016040519081016040528092919081815260200182805461146990612f0a565b80156114b65780601f1061148b576101008083540402835291602001916114b6565b820191906000526020600020905b81548152906001019060200180831161149957829003601f168201915b50505050508152602001868152602001858152602001848152602001838152509050600a81908060018154018082558091505060019003906000526020600020906005020160009091909190915060008201518160000190816115199190613529565b50602082015181600101556040820151816002015560608201518160030155608082015181600401555050611581600c60008b815260200190815260200160002060009054906101000a900473ffffffffffffffffffffffffffffffffffffffff1687611fd7565b600b60008a815260200190815260200160002060006115a09190612411565b600c60008a815260200190815260200160002060006101000a81549073ffffffffffffffffffffffffffffffffffffffff0219169055600c60008a815260200190815260200160002060009054906101000a900473ffffffffffffffffffffffffffffffffffffffff1673ffffffffffffffffffffffffffffffffffffffff16867fe342cb0b27387dca1fcae7df1759d5949e087f71837090eb91986a3095e5bf4f8360405161165091906129e0565b60405180910390a3505050505050505050565b60008061166f84611dd5565b9050600073ffffffffffffffffffffffffffffffffffffffff168373ffffffffffffffffffffffffffffffffffffffff16146116b1576116b0818486611ff5565b5b600073ffffffffffffffffffffffffffffffffffffffff168173ffffffffffffffffffffffffffffffffffffffff1614611742576116f3600085600080611e12565b6001600360008373ffffffffffffffffffffffffffffffffffffffff1673ffffffffffffffffffffffffffffffffffffffff168152602001908152602001600020600082825403925050819055505b600073ffffffffffffffffffffffffffffffffffffffff168573ffffffffffffffffffffffffffffffffffffffff16146117c5576001600360008773ffffffffffffffffffffffffffffffffffffffff1673ffffffffffffffffffffffffffffffffffffffff168152602001908152602001600020600082825401925050819055505b846002600086815260200190815260200160002060006101000a81548173ffffffffffffffffffffffffffffffffffffffff021916908373ffffffffffffffffffffffffffffffffffffffff160217905550838573ffffffffffffffffffffffffffffffffffffffff168273ffffffffffffffffffffffffffffffffffffffff167fddf252ad1be2c89b69c2b068fc378daa952ba7f163c4a11628f55a4df523b3ef60405160405180910390a4809150509392505050565b611885611360565b73ffffffffffffffffffffffffffffffffffffffff166118a3610dd2565b73ffffffffffffffffffffffffffffffffffffffff1614611902576118c6611360565b6040517f118cdaa70000000000000000000000000000000000000000000000000000000081526004016118f99190612693565b60405180910390fd5b565b6000600660009054906101000a900473ffffffffffffffffffffffffffffffffffffffff16905081600660006101000a81548173ffffffffffffffffffffffffffffffffffffffff021916908373ffffffffffffffffffffffffffffffffffffffff1602179055508173ffffffffffffffffffffffffffffffffffffffff168173ffffffffffffffffffffffffffffffffffffffff167f8be0079c531659141344cd1fd0a4f28419497f9722a3daafe3b4186f6b6457e060405160405180910390a35050565b600073ffffffffffffffffffffffffffffffffffffffff168273ffffffffffffffffffffffffffffffffffffffff1603611a3b57816040517f5b08ba18000000000000000000000000000000000000000000000000000000008152600401611a329190612693565b60405180910390fd5b80600560008573ffffffffffffffffffffffffffffffffffffffff1673ffffffffffffffffffffffffffffffffffffffff16815260200190815260200160002060008473ffffffffffffffffffffffffffffffffffffffff1673ffffffffffffffffffffffffffffffffffffffff16815260200190815260200160002060006101000a81548160ff0219169083151502179055508173ffffffffffffffffffffffffffffffffffffffff168373ffffffffffffffffffffffffffffffffffffffff167f17307eab39ab6107e8899845ad3d59bd9653f200f220920489ca2b5937696c3183604051611b2c9190612522565b60405180910390a3505050565b60008373ffffffffffffffffffffffffffffffffffffffff163b1115611cea578273ffffffffffffffffffffffffffffffffffffffff1663150b7a02611b7d611360565b8685856040518563ffffffff1660e01b8152600401611b9f9493929190613741565b6020604051808303816000875af1925050508015611bdb57506040513d601f19601f82011682018060405250810190611bd891906137a2565b60015b611c5f573d8060008114611c0b576040519150601f19603f3d011682016040523d82523d6000602084013e611c10565b606091505b506000815103611c5757836040517f64a0ae92000000000000000000000000000000000000000000000000000000008152600401611c4e9190612693565b60405180910390fd5b805181602001fd5b63150b7a0260e01b7bffffffffffffffffffffffffffffffffffffffffffffffffffffffff1916817bffffffffffffffffffffffffffffffffffffffffffffffffffffffff191614611ce857836040517f64a0ae92000000000000000000000000000000000000000000000000000000008152600401611cdf9190612693565b60405180910390fd5b505b50505050565b606060405180602001604052806000815250905090565b606060006001611d16846120b9565b01905060008167ffffffffffffffff811115611d3557611d3461271f565b5b6040519080825280601f01601f191660200182016040528015611d675781602001600182028036833780820191505090505b509050600082602001820190505b600115611dca578080600190039150507f3031323334353637383961626364656600000000000000000000000000000000600a86061a8153600a8581611dbe57611dbd61365b565b5b04945060008503611d75575b819350505050919050565b60006002600083815260200190815260200160002060009054906101000a900473ffffffffffffffffffffffffffffffffffffffff169050919050565b8080611e4b5750600073ffffffffffffffffffffffffffffffffffffffff168273ffffffffffffffffffffffffffffffffffffffff1614155b15611f7f576000611e5b8461129b565b9050600073ffffffffffffffffffffffffffffffffffffffff168373ffffffffffffffffffffffffffffffffffffffff1614158015611ec657508273ffffffffffffffffffffffffffffffffffffffff168173ffffffffffffffffffffffffffffffffffffffff1614155b8015611ed95750611ed78184610ffe565b155b15611f1b57826040517fa9fbf51f000000000000000000000000000000000000000000000000000000008152600401611f129190612693565b60405180910390fd5b8115611f7d57838573ffffffffffffffffffffffffffffffffffffffff168273ffffffffffffffffffffffffffffffffffffffff167f8c5be1e5ebec7d5bd14f71427d1e84f3dd0314c0f7b2291e5b200ac8c7c3b92560405160405180910390a45b505b836004600085815260200190815260200160002060006101000a81548173ffffffffffffffffffffffffffffffffffffffff021916908373ffffffffffffffffffffffffffffffffffffffff16021790555050505050565b611ff182826040518060200160405280600081525061220c565b5050565b612000838383612228565b6120b457600073ffffffffffffffffffffffffffffffffffffffff168373ffffffffffffffffffffffffffffffffffffffff160361207557806040517f7e27328900000000000000000000000000000000000000000000000000000000815260040161206c9190612a3e565b60405180910390fd5b81816040517f177e802f0000000000000000000000000000000000000000000000000000000081526004016120ab9291906137cf565b60405180910390fd5b505050565b600080600090507a184f03e93ff9f4daa797ed6e38ed64bf6a1f0100000000000000008310612117577a184f03e93ff9f4daa797ed6e38ed64bf6a1f010000000000000000838161210d5761210c61365b565b5b0492506040810190505b6d04ee2d6d415b85acef81000000008310612154576d04ee2d6d415b85acef8100000000838161214a5761214961365b565b5b0492506020810190505b662386f26fc10000831061218357662386f26fc1000083816121795761217861365b565b5b0492506010810190505b6305f5e10083106121ac576305f5e10083816121a2576121a161365b565b5b0492506008810190505b61271083106121d15761271083816121c7576121c661365b565b5b0492506004810190505b606483106121f457606483816121ea576121e961365b565b5b0492506002810190505b600a8310612203576001810190505b80915050919050565b61221683836122e9565b6122236000848484611b39565b505050565b60008073ffffffffffffffffffffffffffffffffffffffff168373ffffffffffffffffffffffffffffffffffffffff16141580156122e057508273ffffffffffffffffffffffffffffffffffffffff168473ffffffffffffffffffffffffffffffffffffffff1614806122a157506122a08484610ffe565b5b806122df57508273ffffffffffffffffffffffffffffffffffffffff166122c783611323565b73ffffffffffffffffffffffffffffffffffffffff16145b5b90509392505050565b600073ffffffffffffffffffffffffffffffffffffffff168273ffffffffffffffffffffffffffffffffffffffff160361235b5760006040517f64a0ae920000000000000000000000000000000000000000000000000000000081526004016123529190612693565b60405180910390fd5b600061236983836000611663565b9050600073ffffffffffffffffffffffffffffffffffffffff168173ffffffffffffffffffffffffffffffffffffffff16146123dd5760006040517f73c6ac6e0000000000000000000000000000000000000000000000000000000081526004016123d49190612693565b60405180910390fd5b505050565b6040518060a0016040528060608152602001600081526020016000815260200160008152602001600081525090565b50805461241d90612f0a565b6000825580601f1061242f575061244e565b601f01602090049060005260206000209081019061244d9190612451565b5b50565b5b8082111561246a576000816000905550600101612452565b5090565b6000604051905090565b600080fd5b600080fd5b60007fffffffff0000000000000000000000000000000000000000000000000000000082169050919050565b6124b781612482565b81146124c257600080fd5b50565b6000813590506124d4816124ae565b92915050565b6000602082840312156124f0576124ef612478565b5b60006124fe848285016124c5565b91505092915050565b60008115159050919050565b61251c81612507565b82525050565b60006020820190506125376000830184612513565b92915050565b600081519050919050565b600082825260208201905092915050565b60005b8381101561257757808201518184015260208101905061255c565b60008484015250505050565b6000601f19601f8301169050919050565b600061259f8261253d565b6125a98185612548565b93506125b9818560208601612559565b6125c281612583565b840191505092915050565b600060208201905081810360008301526125e78184612594565b905092915050565b6000819050919050565b612602816125ef565b811461260d57600080fd5b50565b60008135905061261f816125f9565b92915050565b60006020828403121561263b5761263a612478565b5b600061264984828501612610565b91505092915050565b600073ffffffffffffffffffffffffffffffffffffffff82169050919050565b600061267d82612652565b9050919050565b61268d81612672565b82525050565b60006020820190506126a86000830184612684565b92915050565b6126b781612672565b81146126c257600080fd5b50565b6000813590506126d4816126ae565b92915050565b600080604083850312156126f1576126f0612478565b5b60006126ff858286016126c5565b925050602061271085828601612610565b9150509250929050565b600080fd5b7f4e487b7100000000000000000000000000000000000000000000000000000000600052604160045260246000fd5b61275782612583565b810181811067ffffffffffffffff821117156127765761277561271f565b5b80604052505050565b600061278961246e565b9050612795828261274e565b919050565b600067ffffffffffffffff8211156127b5576127b461271f565b5b602082029050602081019050919050565b600080fd5b60006127de6127d98461279a565b61277f565b90508083825260208201905060208402830185811115612801576128006127c6565b5b835b8181101561282a57806128168882612610565b845260208401935050602081019050612803565b5050509392505050565b600082601f8301126128495761284861271a565b5b81356128598482602086016127cb565b91505092915050565b6000806040838503121561287957612878612478565b5b600061288785828601612610565b925050602083013567ffffffffffffffff8111156128a8576128a761247d565b5b6128b485828601612834565b9150509250929050565b6000806000606084860312156128d7576128d6612478565b5b60006128e5868287016126c5565b93505060206128f6868287016126c5565b925050604061290786828701612610565b9150509250925092565b600082825260208201905092915050565b600061292d8261253d565b6129378185612911565b9350612947818560208601612559565b61295081612583565b840191505092915050565b612964816125ef565b82525050565b600060a08301600083015184820360008601526129878282612922565b915050602083015161299c602086018261295b565b5060408301516129af604086018261295b565b5060608301516129c2606086018261295b565b5060808301516129d5608086018261295b565b508091505092915050565b600060208201905081810360008301526129fa818461296a565b905092915050565b600060208284031215612a1857612a17612478565b5b6000612a26848285016126c5565b91505092915050565b612a38816125ef565b82525050565b6000602082019050612a536000830184612a2f565b92915050565b600080fd5b600067ffffffffffffffff821115612a7957612a7861271f565b5b612a8282612583565b9050602081019050919050565b82818337600083830152505050565b6000612ab1612aac84612a5e565b61277f565b905082815260208101848484011115612acd57612acc612a59565b5b612ad8848285612a8f565b509392505050565b600082601f830112612af557612af461271a565b5b8135612b05848260208601612a9e565b91505092915050565b600060208284031215612b2457612b23612478565b5b600082013567ffffffffffffffff811115612b4257612b4161247d565b5b612b4e84828501612ae0565b91505092915050565b600060a0820190508181036000830152612b718188612594565b9050612b806020830187612a2f565b612b8d6040830186612a2f565b612b9a6060830185612a2f565b612ba76080830184612a2f565b9695505050505050565b612bba81612507565b8114612bc557600080fd5b50565b600081359050612bd781612bb1565b92915050565b60008060408385031215612bf457612bf3612478565b5b6000612c02858286016126c5565b9250506020612c1385828601612bc8565b9150509250929050565b600067ffffffffffffffff821115612c3857612c3761271f565b5b612c4182612583565b9050602081019050919050565b6000612c61612c5c84612c1d565b61277f565b905082815260208101848484011115612c7d57612c7c612a59565b5b612c88848285612a8f565b509392505050565b600082601f830112612ca557612ca461271a565b5b8135612cb5848260208601612c4e565b91505092915050565b60008060008060808587031215612cd857612cd7612478565b5b6000612ce6878288016126c5565b9450506020612cf7878288016126c5565b9350506040612d0887828801612610565b925050606085013567ffffffffffffffff811115612d2957612d2861247d565b5b612d3587828801612c90565b91505092959194509250565b60008060408385031215612d5857612d57612478565b5b6000612d66858286016126c5565b9250506020612d77858286016126c5565b9150509250929050565b600081519050919050565b600082825260208201905092915050565b6000819050602082019050919050565b600060a0830160008301518482036000860152612dca8282612922565b9150506020830151612ddf602086018261295b565b506040830151612df2604086018261295b565b506060830151612e05606086018261295b565b506080830151612e18608086018261295b565b508091505092915050565b6000612e2f8383612dad565b905092915050565b6000602082019050919050565b6000612e4f82612d81565b612e598185612d8c565b935083602082028501612e6b85612d9d565b8060005b85811015612ea75784840389528151612e888582612e23565b9450612e9383612e37565b925060208a01995050600181019050612e6f565b50829750879550505050505092915050565b60006020820190508181036000830152612ed38184612e44565b905092915050565b7f4e487b7100000000000000000000000000000000000000000000000000000000600052602260045260246000fd5b60006002820490506001821680612f2257607f821691505b602082108103612f3557612f34612edb565b5b50919050565b6000604082019050612f506000830185612684565b612f5d6020830184612684565b9392505050565b6000606082019050612f796000830186612684565b612f866020830185612a2f565b612f936040830184612684565b949350505050565b7f436f6e74726163742062616c616e6365206973207a65726f2e00000000000000600082015250565b6000612fd1601983612548565b9150612fdc82612f9b565b602082019050919050565b6000602082019050818103600083015261300081612fc4565b9050919050565b7f4e4654206e6f7420666f756e642e000000000000000000000000000000000000600082015250565b600061303d600e83612548565b915061304882613007565b602082019050919050565b6000602082019050818103600083015261306c81613030565b9050919050565b7f4e487b7100000000000000000000000000000000000000000000000000000000600052603260045260246000fd5b7f4e487b7100000000000000000000000000000000000000000000000000000000600052601160045260246000fd5b60006130dc826125ef565b91506130e7836125ef565b92508282019050808211156130ff576130fe6130a2565b5b92915050565b7f4d6178204e465420726561636865642e00000000000000000000000000000000600082015250565b600061313b601083612548565b915061314682613105565b602082019050919050565b6000602082019050818103600083015261316a8161312e565b9050919050565b7f496e76616c696420616d6f756e742e0000000000000000000000000000000000600082015250565b60006131a7600f83612548565b91506131b282613171565b602082019050919050565b600060208201905081810360008301526131d68161319a565b9050919050565b6000819050919050565b6131f0816131dd565b82525050565b600067ffffffffffffffff82169050919050565b613213816131f6565b82525050565b6000819050919050565b600061ffff82169050919050565b6000819050919050565b600061325661325161324c84613219565b613231565b613223565b9050919050565b6132668161323b565b82525050565b6000819050919050565b600063ffffffff82169050919050565b60006132a161329c6132978461326c565b613231565b613276565b9050919050565b6132b181613286565b82525050565b6000819050919050565b60006132dc6132d76132d2846132b7565b613231565b613276565b9050919050565b6132ec816132c1565b82525050565b600060a08201905061330760008301886131e7565b613314602083018761320a565b613321604083018661325d565b61332e60608301856132a8565b61333b60808301846132e3565b9695505050505050565b600081519050613354816125f9565b92915050565b6000602082840312156133705761336f612478565b5b600061337e84828501613345565b91505092915050565b60008190508160005260206000209050919050565b60006020601f8301049050919050565b600082821b905092915050565b6000600883026133e97fffffffffffffffffffffffffffffffffffffffffffffffffffffffffffffffff826133ac565b6133f386836133ac565b95508019841693508086168417925050509392505050565b600061342661342161341c846125ef565b613231565b6125ef565b9050919050565b6000819050919050565b6134408361340b565b61345461344c8261342d565b8484546133b9565b825550505050565b600090565b61346961345c565b613474818484613437565b505050565b5b818110156134985761348d600082613461565b60018101905061347a565b5050565b601f8211156134dd576134ae81613387565b6134b78461339c565b810160208510156134c6578190505b6134da6134d28561339c565b830182613479565b50505b505050565b600082821c905092915050565b6000613500600019846008026134e2565b1980831691505092915050565b600061351983836134ef565b9150826002028217905092915050565b6135328261253d565b67ffffffffffffffff81111561354b5761354a61271f565b5b6135558254612f0a565b61356082828561349c565b600060209050601f8311600181146135935760008415613581578287015190505b61358b858261350d565b8655506135f3565b601f1984166135a186613387565b60005b828110156135c9578489015182556001820191506020850194506020810190506135a4565b868310156135e657848901516135e2601f8916826134ef565b8355505b6001600288020188555050505b505050505050565b600081905092915050565b60006136118261253d565b61361b81856135fb565b935061362b818560208601612559565b80840191505092915050565b60006136438285613606565b915061364f8284613606565b91508190509392505050565b7f4e487b7100000000000000000000000000000000000000000000000000000000600052601260045260246000fd5b6000613695826125ef565b91506136a0836125ef565b9250826136b0576136af61365b565b5b828206905092915050565b60006136c6826125ef565b91506136d1836125ef565b9250826136e1576136e061365b565b5b828204905092915050565b600081519050919050565b600082825260208201905092915050565b6000613713826136ec565b61371d81856136f7565b935061372d818560208601612559565b61373681612583565b840191505092915050565b60006080820190506137566000830187612684565b6137636020830186612684565b6137706040830185612a2f565b81810360608301526137828184613708565b905095945050505050565b60008151905061379c816124ae565b92915050565b6000602082840312156137b8576137b7612478565b5b60006137c68482850161378d565b91505092915050565b60006040820190506137e46000830185612684565b6137f16020830184612a2f565b939250505056fea2646970667358221220bd2a1ffb367f2264f03d1e1c783e7ff4b91ec400abf29e2c8bc58daa42b3346364736f6c63430008180033",
  "linkReferences": {},
  "deployedLinkReferences": {}
}